:020000040000FA
:06000000020B8C020275E8
:03002B0002094681
:030033000206E7DB
:030053000201AAFD
:03006B000206C1C9
:100083000202090100F0FF0700080000FFFF000063
:10009300070400000003000147726F757000FF043E
:1000A30000100502640A2FAC092FAC09C0C1C2C3FA
:1000B300C4C5C6C7C8C9CACBCCCDCECF5A6967425F
:1000C3006565416C6C69616E636530390100FFFFE2
:1000D300F2E0A1610000000000010A84DE0CE40CE0
:1000E300F00CEA0C0020FD000206FFFF1E0153572F
:1000F300343A2048656C7020202020202020007096
:1001030014000000000000000000000000000000D8
:1001130000000000000000102020202020202020CC
:1001230020202020202020200108040100010002BB
:100133009183010884010400001918000000E803FA
:100143000000FFFF93180188130000E80300006418
:10015300006400B801A0BB0D00A0BB0D00020202A9
:1001630007040101051E02051E020A0A0101010816
:1001730009080103B80B02803E0102FEFFE8030AEF
:10018300050001FFFF010A011401E001050301015C
:10019300FF0F10FEFF792B00000000AF2A000000C4
:1001A30000FF000000FF00C0E074F112048CA2AF56
:1001B300E433F509D2AF85A708AFA1EF5508FE7464
:1001C300105E6006120ECA75A1EF74085E60081215
:1001D3000ED075A1F78024EFA2E092F0E508A2E02B
:1001E30082F05017906198E0F89004BAE0C398A2A7
:1001F300D265D0335002E8F075A1FEE509A2E09282
:10020300AF7F020204EBC0E074F212048CA2AFE4ED
:1002130033FED2AF9061A4E0F8759B00E59158548A
:100223000860087591F7120F1E8023E5915854104A
:1002330060087591EF120F248014E591A2E092F00B
:10024300E8A2E082F05007E0C2E0F012106E906185
:10025300A3E0F8E5E9585404600E12104475E9FB75
:10026300906193E0A2E640F2EEA2E092AF7F01023A
:1002730004EBC0E074F212048CA2AFE433FED2AFFD
:100283009061A5E0F8E5BF585404600675BFFB1202
:10029300108680D4C3E498F8E499F91202D8802632
:1002A300C3E49AFAE49BFBE920E7E91202D8E49855
:1002B300F8E499F922C3E498F8E499F91202D8E42E
:1002C30098F8E499F9C3E49AFAE49BFB22EB20E75C
:1002D300CFE920E7E0B90010BB0008E88AF084F812
:1002E300AAF022E4FBC8FA22EB70227B10C833C8C1
:1002F300C933C9335007C39AC3DBF280069A50014E
:100303002ADBEAC833F4C8C933F4C9FA2275F00802
:10031300E4C833C8C933C933C99AC99B5004C92A2D
:10032300C93BD5F0ECFBC833F4C8E4C9FA2208088A
:1003330008EAC0E0EBC0E086F0E7A4FA180986F00B
:10034300E7A42AFA180986F0E7A42AFA180986F01E
:10035300E7A42AFA1986F0E7A4FBE5F02AFA1908BC
:1003630086F0E7A42BFBE5F03AFA190886F0E7A438
:100373002BFBE5F03AFA18180986F0E7A4C5F02B31
:10038300FBE43AFA1908E7C5F0C6A426F6E5F03B04
:10039300FBE43AFA1886F0E7A4F6E5F00826F6E45B
:1003A3003B08F6E43A08F6D0E0FBD0E0FA22E4CFCB
:1003B300C0E0E4CEC0E0E4CDC0E0E4CCC0E075F042
:1003C30020E626F608E633F608E633F608E633F6C3
:1003D300181818EC33FCED33FDEE33FEEF33FFC397
:1003E300EC9709ED9709EE9709EF97191919400F43
:1003F300FFEC97FC09ED97FD09EE97FE191906D559
:10040300F0BFECF709EDF709EEF709EFF719191942
:10041300D0E0FCD0E0FDD0E0FED0E0FF222518C5FF
:1004230082C0E0E51934FFC583C0E0E518C39582B7
:1004330024F810AF088583198582188008858319ED
:10044300858218D2AFCEF0A3E520F0A37808E608A2
:10045300F0A3DEFAEFF0A3E58124FAF8E608F0A3AF
:10046300E608F0A3E608F0A30808E608F0A3E60808
:10047300F0A315811581D0E0FED0E0F81581158138
:100483001581E8C0E0EEC0E022C0D02518C582C0C7
:10049300E0E51934FFC583C0E0E518C3958224F372
:1004A30010AF088583198582188008858319858292
:1004B30018D2AFC8F0A3E9F0A3EAF0A3EBF0A37955
:1004C30008E709F0A3D8FAECF0A3EDF0A3EEF0A34C
:1004D300EFF0A3D0E0F0A3D0E0F0A3D0E0F0A3E5E9
:1004E30020F0A3E5F0F0A322851983851882E0C0EC
:1004F300E0A3E0F9A3E0FAA3E0FBA37808E0F608A1
:10050300A3DFFAE0FCA3E0FDA3E0FEA3E0FFA3E08A
:10051300C0E0A3E0C0E0A3E0F5D0A3E0F520A3E0B2
:10052300A3F5F010AF0885831985821880088583A9
:1005330019858218D2AFD082D083D0E0F8D0E032D0
:10054300120C06B90003020582E490040178AA792B
:10055300188002F0A3D8FCD9FA7AAA7B1B900086F4
:10056300782579028015E493A3AD82AE838A828BCA
:1005730083F0A3AA82AB838D828E83D8E9D9E775F2
:1005830082A07583CF74061208B97582AA75832871
:1005930074001208B975F0108E1A8F1B85821F859F
:1005A300831E851882851983E0CEA3E0CF851F8241
:1005B300851E83EBC9EAC8EDCBECCAC3E833C8E9AF
:1005C30033C9EA33CAEB33CBC3EA9EF51DEB9FF580
:1005D3001CB35004AB1CAA1DEC33CCED33CDD5F0CA
:1005E300DAAE1AAF1B22D083D082ECC0E0EDC0E0BC
:1005F300E493A3FCE493A3FDED4C600D120705EC1B
:1006030024FFFCED34FFFD80EFE493A3FCE493A30C
:10061300FDED4C600D1207A2EC24FFFCED34FFFD51
:1006230080EFD0E0FDD0E0FCE493A3C0E0E493C00E
:10063300E022D083D082E9C0E0E493A3C386F0C56F
:10064300F095F0F908E493A386F0C5F095F0700BEC
:10065300E493A3C3994005E9048002A3E475F0027F
:10066300A42582F582E5F03583F583D0E0F9E493A0
:10067300A3C0E0E493C0E022851983851882E0A338
:10068300FEE0A3F5207808E0A3F608DFFAE0A3FF75
:10069300E0A3C0E0E0A3C0E0E0A3C0E0E0A3C0E0CB
:1006A300E0A3C0E010AF0885821885831980088510
:1006B3008218858319D2AFD083D0820208BFC0E0ED
:1006C30074F212048CA2AFE433FED2AFE589A2E147
:1006D3005003120DE0758900C2C5EEA2E092AF7F10
:1006E300010204EBC0E074F212048CA2AFE433FE07
:1006F300D2AFE58BA2E05003120DE0758B00C2E888
:1007030080D8C0E0C3E49396087401939618400F11
:10071300E49366700808740193661870007019A357
:10072300A3C3E49396087401939618A3A3400DD032
:10073300E0D0E0D0E0020625A3A3A3A3A3A3D0E0C7
:10074300227404800474028000CCC0E0EDC0E0E5B4
:1007530018C39CCCAD1950011D10AF068C188D1910
:1007630080068C188D19D2AF12083BD0E0FDD0E083
:10077300FC2274028000CCC0E0EDC0E0E518C39C0D
:10078300CCAD1950011D10AF068C188D1980068C45
:10079300188D19D2AF120819D0E0FDD0E0FC22C0A9
:1007A300E0C0F088F0E4936670080874019366185B
:1007B3007000A8F0A3A3700BD0F0D0E0D0E0D0E09D
:1007C300020625A3A3D0F0D0E022D083D082CCC0F0
:1007D300E0E493A3600612085C1470FAE493A36048
:1007E300061209D91470FAD0E0FCE493A3C0E0E444
:1007F30093C0E022A2E792D65002F40430F70663D6
:10080300F0FF05F0B3400384800384F40430D6057D
:1008130063F0FF05F022CAC0E0E493A3C582CCC510
:1008230082C583CDC583F0A3C582CCC582C583CDE4
:10083300C583DAE5D0E0CA22CAC0E0E0A3C582CC12
:10084300C582C583CDC583F0A3C582CCC582C583CC
:10085300CDC583DAE6D0E0CA22C0E0E493A3D39CFB
:100863005010E493A3C39C400AD0E0D0E0D0E00250
:1008730007EAA3A3A3D0E0227009080808226016A0
:10088300181818C6C333C608C633C608C633C60805
:10089300C633C6D5E0EA22C008C3E096F50808A32C
:1008A300E096420808A3E096420808A3E0964508AC
:1008B3007001D3D00822C09FF59FE473D09F22D04C
:1008C30083D082C09FE493C0E0740193C0E07402BC
:1008D30093F59F22C5822518C582C583351910AFAC
:1008E30007F5198582188007F519858218D2AFC5D7
:1008F30083227404800A74038006740280027401E4
:10090300C0E0F404120910D0E0120BC9222518F537
:100913008210AF08F518400C15198008F51840022D
:100923001519D2AF8519832200C0D0251810AF083E
:10093300F518500C05198008F51850020519D2AFA7
:10094300D0D022C0E0C0D0E8C0E0A8A8D2AFC2C7D0
:10095300E8A2E792AFD0E0F8D0D0D0E032BB0102FA
:10096300E722C082C08389828A83BB0003E08002BE
:10097300E493D083D082226016080808C6C313C646
:1009830018C613C618C613C618C613C6D5E0EA227E
:100993002518F8E43519F9222518FAE43519FB224C
:1009A3002518FCE43519FD22C3E0C696F608A3E03A
:1009B300C696F608A3E0C696F608A3E0C696F62206
:1009C300251810AF08F518400C15198008F51840C4
:1009D300021519D2AF22C0E0E493A36C7009D0E0F2
:1009E300D0E0D0E00207EAA3A3D0E022E7667010CC
:1009F3000809E766700A0809E76670040809E766EC
:100A030022E066701008A3E066700A08A3E066702F
:100A13000408A3E06622C3E09608A3E09608A3E0D7
:100A23009608A3E096A2D265D03322C3E096F008DD
:100A3300A3E096F008A3E096F008A3E096F022C3A3
:100A4300E4939608740193960874029396087403CA
:100A5300939622C3E697F60809E697F60809E69700
:100A6300F60809E697F622E627F60809E637F608B8
:100A730009E637F60809E637F622E026F608A3E08A
:100A830036F608A3E036F608A3E036F622E493F63A
:100A930008740193F608740293F608740393F6221C
:100AA300E026F008A3E036F008A3E036F008A3E060
:100AB30036F022E056F008A3E056F008A3E056F023
:100AC30008A3E056F022E046F608A3E046F608A3A2
:100AD300E046F608A3E046F622E647F60809E647AD
:100AE300F60809E647F60809E647F622700422608D
:100AF3000D18C6C333C608C633C6D5E0F41822E6BC
:100B030057F60809E657F60809E657F60809E657BF
:100B1300F622E056F608A3E056F608A3E056F608D8
:100B2300A3E056F622E046F008A3E046F008A3E06F
:100B330046F008A3E046F022E4C396F608E496F6EE
:100B430008E496F608E496F622600D08C6A2E713B9
:100B5300C618C613C6D5E0F322C6F4C608C6F4C643
:100B630008C6F4C608C6F4C622C3E09608A3E096F6
:100B730008A3E09608A3E09622C3E7960809E79640
:100B83000809E7960809E7962275D00075813F7535
:100B9300180175190400020543E6F008A3E6F008FE
:100BA300A3E6F008A3E6F022600C08C6C313C61838
:100BB300C613C6D5E0F422E0F608A3E0F608A3E0E6
:100BC300F608A3E0F622CAC0E0E6F0A308DAFAD0FA
:100BD300E0FA22E8F0A3E9F0A3EAF0A3EBF022E0C5
:100BE300F8A3E0F9A3E0FAA3E0FB22EAF0A3EBF019
:100BF300A3ECF0A3EDF022E0FAA3E0FBA3E0FCA357
:100C0300E0FD22E5C754F84401F5C7790122251810
:100C1300F582E43519F58322C2AF75D69F02000031
:100C2300221208C22E8A061208C2628A061208C25B
:100C330018E4051208C294E4051208C2C7E40512B9
:100C430008C2F5E4051208C219E7051208C235E720
:100C5300051208C27AE7051208C2FFE7051208C2A7
:100C63004BE8051208C2DBE8051208C2B4E9051215
:100C730008C205EA051208C26AEA051208C2DDEADB
:100C8300051208C221EB051208C279EB051208C24E
:100C93009BEB051208C22BEC051208C2BCEC051233
:100CA30008C208ED051208C234ED051208C275ED3D
:100CB300051208C216EF051208C2F8EF051208C2A2
:100CC300D4F0051208C275E2021208C2A8E20212A9
:100CD30008C2F0E2021208C2FCE4021208C265E78D
:100CE300021208C298E7021208C274EA021208C28A
:100CF3002AED021208C2C0ED021208C23EF102122E
:100D030008C20FF2021208C273F3021208C2F5F30B
:100D1300021208C2EDF4021208C22EF7021208C230
:100D2300B5F7021208C2B6F9021208C2DCFC0212BD
:100D330008C2DFFC021208C2F2FC021208C23FFD25
:100D4300021208C215C2051208C2E9C6051208C27A
:100D53004DC7051208C272C8051208C25CCC051241
:100D630008C23BD0051208C25BD2051208C2A1D249
:100D7300051208C270D4051208C2ECDB061208C2C1
:100D8300FDDB061208C29BDC061208C2B5DC0612A4
:100D930008C2FBFF021208C2EB7F001208C264DD27
:100DA300061208C274DD061208C28CDD061208C2E0
:100DB300F4DD061208C2EAD8061208C26ED906127A
:100DC30008C2D6D9061208C28EFE011208C2ADFEB1
:100DD300011208C21AFF011208C25FFF011208C202
:100DE300B8FF011208C2E8B3061208C2FDB3061227
:100DF30008C213B5061208C24BB5061208C265B580
:100E0300061208C2DAB5061208C2C6B6061208C22E
:100E13003AB7061208C254B7061208C26BB70612D5
:100E230008C27EB7061208C296B7061208C2ABB74D
:100E3300061208C2CCB7061208C21DB8061208C2B1
:100E4300CCBF061208C2DABF061208C253C006128C
:100E530008C228C1061208C2FAC2061208C225DF58
:100E6300061208C269A5061208C295A5061208C291
:100E73002CA8061208C26CA8061208C2A8A806125B
:100E830008C2BCA8061208C2D5A8061208C2C6A981
:100E9300061208C278AA061208C28CAA061208C251
:100EA30058D6061208C27CD6061208C295D6061278
:100EB30008C2D3D6061208C203D7061208C230D717
:100EC300061208C296D7061208C299D7061208C29C
:100ED300A3D7061208C2B0D7061208C2F9CC06126D
:100EE30008C219CD061208C258CD061208C276CD23
:100EF300061208C291CD061208C2F7CD061208C227
:100F030003CE061208C260CE061208C26FCE0612C6
:100F130008C293CE061208C254CF061208C261CF8C
:100F2300061208C272CF061208C29ADE061208C25F
:100F3300B2DE061208C2DEDE061208C290AF061247
:100F430008C2EAB0061208C2F8B0061208C20BB112
:100F5300061208C220B1061208C235B1061208C231
:100F630048B1061208C2C4B1061208C229B2061259
:100F730008C2BFB2061208C298B3061208C2A8B3C9
:100F8300061208C2B7B3061208C2CBDC061208C2A7
:100F9300EFDC061208C217DD061208C23FDD061297
:100FA30008C28FFD041208C2B6FD041208C2D4FDA4
:100FB300041208C243FE041208C2C2FC051208C28E
:100FC300DBFC051208C2E7FC051208C2FBFC051294
:100FD30008C219FD051208C223FD051208C22DFD22
:100FE300051208C240FD051208C2C6FD051208C25B
:100FF3003BFE051208C26AFE051208C2B8FE0512BE
:1010030008C207FF051208C222FF051208C22CFFFF
:10101300051208C23DFF051208C280FF051208C26F
:10102300FFDD061208C29294061208C2BE9406128D
:1010330008C2DB94061208C2EE94061208C2099590
:10104300061208C26395061208C29195061208C2D9
:10105300A199061208C2FF9A061208C2319B061212
:1010630008C2949B061208C2009D061208C2289D5E
:10107300061208C23D9D061208C24D9D061208C203
:101083008D9D061208C2CF9D061208C2DF9D06126F
:1010930008C2BAD7061208C2D4D7061208C2FCD7B0
:1010A300061208C215D8061208C239D8061208C299
:1010B30057D8061208C26ED8061208C29CD8061268
:1010C30008C2B7D8061208C2E1DE061208C25FC31F
:1010D300061208C26FC3061208C274C4061208C2FD
:1010E300A6C4061208C2D6C4061208C2F9C4061260
:1010F30008C210C5061208C24AC5061208C2AFC507
:10110300061208C2F1C5061208C238C6061208C282
:1011130065C6061208C290C6061208C2F7FF01127E
:1011230008C2FAFF011208C2FDFF011208C23AD237
:10113300061208C25AD2061208C26ED3061208C299
:1011430090D4061208C2BED4061208C2F4D4061202
:1011530008C20CD5061208C24ED5061208C25ED5C7
:10116300061208C26DD5061208C2B1D5061208C20E
:101173004BD6061208C255D6061208C2A88A061212
:1011830008C2B28A061208C2DD8A061208C2268B7A
:10119300061208C28F8B061208C2AE8B061208C253
:1011A300C78B061208C2698C061208C2F18E06129A
:1011B30008C2FA8E061208C24B8F061208C2748F39
:1011C300061208C2818F061208C2F28F061208C2E5
:1011D3008090061208C2CE90061208C2049106122D
:1011E30008C26591061208C28E91061208C20592C2
:1011F300061208C26192061208C29E92061208C223
:10120300D592061208C2E792061208C2F992061294
:1012130008C21893061208C22193061208C2DC936F
:10122300061208C22894061208C26694061208C25F
:101233008BFF051208C2AB7E001208C2BAFD021270
:1012430008C2F0FD021208C238FE021208C291FF62
:10125300021208C26C6A001208C29D6B001208C217
:10126300D96B001208C2936D001208C2BD6D001243
:1012730008C23670001208C27670001208C20A72E1
:10128300001208C2A972001208C20173001208C238
:101293009473001208C2CE73001208C210740012B5
:1012A30008C28375001208C20377001208C240798E
:1012B300001208C26E79001208C29A79001208C29D
:1012C300A379001208C2007A001208C2907A0012B1
:1012D30008C2CC7D001208C24E7E001208C214E080
:1012E300061208C22AE0061208C2E5FB031208C26E
:1012F300FBFB031208C29FFC031208C2DEFC0312AD
:1013030008C2FBFC031208C22CFD031208C279FDBC
:10131300031208C2ADFD031208C2E8FD031208C29E
:10132300DDFF031208C2EFD9061208C24EDA061215
:1013330008C28CDA061208C2CDDA061208C200808F
:10134300041208C20C80041208C26D82041208C27F
:101353007782041208C20983041208C24583041267
:1013630008C20E84041208C27484041208C2DC8406
:10137300041208C25285041208C29885041208C2D6
:101383001686041208C2CF87041208C2BC8904124D
:1013930008C2D68A041208C27E8B041208C23B908C
:1013A300041208C23591041208C2C591041208C27E
:1013B300EA91041208C28792041208C2A49204128A
:1013C30008C2C492041208C23593041208C252938D
:1013D300041208C28093041208C21695041208C2AC
:1013E300BC95041208C20496041208C2769604122D
:1013F30008C2F996041208C25E97041208C2BB978A
:10140300041208C25A98041208C2C598041208C2EA
:101413000199041208C26F99041208C2D29A0412E5
:1014230008C25A9C041208C2089D041208C2369DC1
:10143300041208C23A9F041208C2CCA1041208C2C3
:10144300F2A2041208C233CA061208C296CA0612CE
:1014530008C2A5CB061208C239CC061208C293CC27
:10146300061208C2B3CC061208C2E0CC061208C2A8
:10147300E3CC061208C2ECCC061208C2C0DF061287
:1014830008C2FDA6041208C29CA7041208C218A829
:10149300041208C207A9041208C205AA041208C24A
:1014A30084AA041208C2C6AB041208C267AC0412B1
:1014B30008C227AE041208C22EAF041208C24BAFF3
:1014C300041208C233B0041208C270B1041208C275
:1014D3001AB2041208C284B5041208C28CB70412EB
:1014E30008C215B8041208C26FB8041208C2BDB806
:1014F300041208C238B9041208C2BAB9041208C2E5
:10150300F6B9041208C29AC0041208C2F5C2041242
:1015130008C2D1C3041208C25BD5051208C2EDD5B7
:10152300051208C264D6051208C284D9051208C27E
:1015330036DB051208C281DD051208C2CEDE0512B4
:1015430008C273E1051208C29DE1051208C2CDE18C
:10155300051208C267E2051208C2FEE2051208C2BC
:101563000FE3051208C216E3051208C29AE3051237
:1015730008C2E3E3051208C2EFDA061208C23ADB37
:10158300061208C28BE2041208C2BAE2041208C2AD
:101593003EE3041208C2A1E4041208C28FE5041258
:1015A30008C2FEE6041208C223E7041208C275E764
:1015B300041208C207E8041208C253E8041208C25E
:1015C30066E8041208C2C3E8041208C290E90412D0
:1015D30008C2FEE9041208C235EA041208C27EEA10
:1015E300041208C226EC041208C205ED041208C254
:1015F30053EE041208C236EF041208C2C2EF0412FB
:1016030008C2FBEF041208C21AF0041208C265F004
:10161300041208C285F0041208C242F1041208C27F
:1016230065F2041208C2C0F2041208C200F30412E5
:1016330008C208F4041208C28FF6041208C2B5F6F1
:10164300041208C230F7041208C255F7041208C284
:10165300DCF7041208C2B8F8041208C2F6F8041240
:1016630008C27AF9041208C265FA041208C268FAB9
:10167300041208C272FA041208C27CFA041208C2E5
:1016830098FA041208C214FB041208C24DFB041298
:1016930008C269FB041208C295FB041208C2BCFB12
:1016A300041208C2E0FB041208C21BFC041208C2A5
:1016B3008EFC041208C2C2FC041208C2CCFC041241
:1016C30008C208FD041208C23DFD041208C25CFDF5
:1016D300041208C24ADE061208C262DE061208C2FB
:1016E300F8FF021208C20F9E061208C25E9E06127F
:1016F30008C21CA0061208C2D6A1061208C214A270
:10170300061208C241A3061208C24CA4061208C25C
:101713006EA4061208C2B8A4061208C239A506129E
:1017230008C2C6C4041208C2E9C4041208C254C6DB
:10173300041208C29DC6041208C2FBC6041208C2E2
:1017430061C7041208C264C7041208C2ACC70412FA
:1017530008C230C8041208C2B8C8041208C2BBC801
:10176300041208C243C9041208C286C9041208C27B
:1017730024CE041208C2C4CF041208C20AD0041231
:1017830008C280D3041208C2BCD4041208C299D57B
:10179300041208C223D6041208C25CD6041208C27B
:1017A300E9D8041208C2B2DA041208C24DDB0412EB
:1017B30008C2D3DB041208C2C5DC041208C27ADEF5
:1017C300041208C277DF041208C2EDE0041208C253
:1017D30033E1041208C2DEE1041208C2F3AD0512BC
:1017E30008C28EAE051208C201AF051208C21CAFB3
:1017F300051208C2A6AF051208C2FFAF051208C240
:101803004AB0051208C2A9B0051208C2B6B1051242
:1018130008C2D3B4051208C209B6051208C292B6AB
:10182300051208C296B8051208C23AB9051208C2D1
:10183300E4B9051208C2C6BA051208C2A8BC05124B
:1018430008C21DBE051208C22CBF051208C2B9BFCB
:10185300051208C2C5C0051208C23BD9031208C24B
:101863009ED9031208C2E6D9031208C224DA03126E
:1018730008C27FDA031208C2DCDA031208C217DBDC
:10188300031208C299DB031208C2F3DB031208C276
:1018930067DD031208C2E5DD031208C2FDDE031291
:1018A30008C225DF031208C274E0031208C285E0F0
:1018B300031208C29DE0031208C2B2E1031208C278
:1018C3008FE2031208C28CE3031208C2B0E30312CF
:1018D30008C2C7E3031208C2E8E3031208C20AE41A
:1018E300031208C229E4031208C2FDE4031208C26A
:1018F30057E5031208C2F8E7031208C251E80312BE
:1019030008C270E8031208C25BE9031208C291E936
:10191300031208C2CBEA031208C24AEB031208C23D
:1019230081EB031208C2BBEB031208C22AEC0312B9
:1019330008C2EBEC031208C2C4EE031208C2CBEFD9
:10194300031208C23CF1031208C23CF3031208C29B
:10195300B7F5031208C291F7031208C252F8031233
:1019630008C2CAF8031208C2E1F8031208C2DBF97D
:10197300031208C2D3FA031208C242FB031208C2BD
:10198300E8C6061208C298C8061208C257C906124A
:1019930008C2BFC9061208C252B8061208C266813D
:1019A300061208C2B4B8061208C2DAB8061208C290
:1019B30001B9061208C219B9061208C231B90612D2
:1019C30008C2D3B9061208C215BA061208C237BB39
:1019D300061208C240BB061208C249BB061208C25F
:1019E30052BB061208C25CBB061208C2A0AA0612AA
:1019F30008C2D4AE061208C2E2AE061208C2E7AEAF
:101A0300061208C2C7D0061208C294DF061208C223
:101A1300D789061208C2EBDF061208C234E00612A9
:101A230008C20080031208C23280031208C29E80DB
:101A3300031208C23981031208C2D881031208C2F3
:101A43001D82031208C23F82031208C25882031286
:101A530008C27E82031208C2A082031208C2DE8279
:101A6300031208C22283031208C24483031208C26A
:101A7300A683031208C26D84031208C224850312CD
:101A830008C29685031208C26886031208C2B2868A
:101A9300031208C20587031208C26B87031208C228
:101AA300A587031208C2F787031208C2138803121B
:101AB30008C23E88031208C2458A031208C2998BE2
:101AC300031208C2BB8B031208C2EF8B031208C2B6
:101AD300108C031208C21F8C031208C22A8C031233
:101AE30008C2DA8C031208C2438D031208C2F08DB8
:101AF300031208C2288E031208C2EE8E031208C214
:101B0300FB8F031208C24590031208C2D49003123C
:101B130008C23891031208C27391031208C2DF93FB
:101B2300031208C23395031208C26C98031208C249
:101B33003999031208C2C799031208C2F099031214
:101B430008C2629A031208C2F69A031208C2549B8F
:101B5300031208C2469C031208C2689C031208C2FF
:101B6300C49D031208C2DD9D031208C2F09D031237
:101B730008C25F9E031208C26B9F031208C2789FBC
:101B8300031208C2819F031208C259A1031208C29B
:101B93007FA2031208C28FA2031208C291A30312E9
:101BA30008C208A4031208C237A4031208C23DA541
:101BB300031208C283A5031208C24FA7031208C267
:101BC30027AB031208C231AB031208C245AB0312A1
:101BD30008C24FAB031208C259AB031208C263AB6E
:101BE300031208C27CAB031208C286AB031208C2FD
:101BF300FAAB031208C205AC031208C22AAC0312E3
:101C030008C235AC031208C283AC031208C28DAC00
:101C1300031208C298AC031208C2BCAC031208C278
:101C2300E0AC031208C23CAD031208C282AD03123A
:101C330008C29FAD031208C21CAE031208C253AE02
:101C4300031208C292AE031208C2DFAE031208C227
:101C530061AF031208C2FAAF031208C2CAB103127A
:101C630008C228B2031208C244B3031208C26AB3FB
:101C7300031208C2A9B4031208C2CFB7031208C2E1
:101C830010BA031208C2ECBB031208C282BC0312CF
:101C930008C2A9BE031208C255BF031208C28ABFF5
:101CA300031208C2EFBF031208C2F9BF031208C22E
:101CB30023C2031208C24AC3031208C28AC303120F
:101CC30008C230C4031208C2C1C5031208C24AC7FE
:101CD300031208C26AC7031208C2C3C7031208C2A9
:101CE300C5C8031208C20FC9031208C25FC9031291
:101CF30008C249CA031208C2BECA031208C2D8CB1B
:101D0300031208C253CC031208C258CD031208C2EF
:101D130003D0031208C222D0031208C283D10312D4
:101D230008C245D3031208C299D3031208C251D47F
:101D3300031208C200D5031208C256D5031208C203
:101D43000CD6031208C2A1D6031208C20DD7031280
:101D530008C247D7031208C278D7031208C2D4D8DF
:101D6300031208C20080021208C23280021208C2A3
:101D73006980021208C25282021208C2358302121B
:101D830008C28D83021208C2C884021208C21485D5
:101D9300021208C23C88021208C29E8B021208C2B9
:101DA300EB8C021208C2818D021208C28D8D0212C1
:101DB30008C2BF8D021208C2418F021208C24F909F
:101DC300021208C27990021208C2D090021208C20D
:101DD3002991021208C29591021208C2AC93021211
:101DE30008C23B95021208C20596021208C2439725
:101DF300021208C27399021208C2439C021208C25B
:101E0300509C021208C2D79C021208C27F9D021284
:101E130008C2C29D021208C20B9E021208C25F9E34
:101E2300021208C2C49E021208C22C9F021208C2E8
:101E3300499F021208C2799F021208C2AE9F021282
:101E430008C27EA0021208C227A1021208C2ABA3D5
:101E5300021208C2CBA4021208C2B4A5021208C21D
:101E630036A6021208C258AA021208C295AA021282
:101E730008C2EDAA021208C220AB021208C2A1AB2B
:101E8300021208C2EEAB021208C279AC021208C2F7
:101E9300CBAC021208C2A2AD021208C25BAE0212A0
:101EA30008C2F6AE021208C20FB2021208C22FB362
:101EB300021208C2E0B6021208C2FEB7021208C23A
:101EC30001B8021208C230B8021208C236BA0212AE
:101ED30008C20FBB021208C244BB021208C24CBCA8
:101EE300021208C202BD021208C2A3BE021208C235
:101EF300C8BE021208C207BF021208C279BF02128B
:101F030008C25DC0021208C22AC1021208C260C31D
:101F1300021208C2D1C3021208C211C4021208C2BB
:101F230072C4021208C235C8021208C224C90212BE
:101F330008C20BCA021208C283CA021208C245CBE6
:101F4300021208C243CD021208C25BCD021208C2BC
:101F53006FCD021208C2A7CD021208C2D5CD02125C
:101F630008C25CCF021208C267D0021208C2B9D0FD
:101F7300021208C221D1021208C2D3D1021208C22E
:101F830003D2021208C2E7D2021208C298D3021285
:101F930008C287D5021208C2BCD5021208C224D6D1
:101FA300021208C253D7021208C205D8021208C28D
:101FB30036D8021208C24ED8021208C2DDD8021265
:101FC30008C291DB021208C269DD021208C285DD74
:101FD300021208C2A1DD021208C26FDE021208C299
:101FE30053E2021208C213BC061208C253BC061203
:101FF30008C206BE061208C215BE061208C26F97B3
:10200300051208C2869C051208C2D19C051208C29B
:10201300219F051208C2B5A0051208C243A10512EB
:1020230008C2A4A3051208C2A9A5051208C2FDA5EA
:10203300051208C20CA8051208C23DA8051208C261
:102043007DA8051208C298A8051208C2F3A80512B4
:1020530008C215A9051208C21CA9051208C234A991
:10206300051208C214AA051208C2F3AA051208C26F
:102073001284011208C24A84011208C2288901127B
:1020830008C26E89011208C2BB8A011208C2268BDC
:10209300011208C2AF8C011208C2BF8F011208C21D
:1020A300DA90011208C2EC9A011208C27F9B011256
:1020B30008C2D19E011208C2CD9F011208C228A0F6
:1020C300011208C272A1011208C260A2011208C261
:1020D300FCA4011208C270A6011208C2F3A60112E1
:1020E30008C2F6A6011208C26BA7011208C275A79F
:1020F300011208C282A7011208C2ADA7011208C2C9
:102103005DA8011208C256A9011208C201AA011250
:1021130008C21FAA011208C238AA011208C261AA82
:10212300011208C283AA011208C2D8AC011208C264
:102133009DAD011208C2E2AD011208C261AE0112E7
:1021430008C20DAF011208C23FAF011208C293AF1C
:10215300011208C2CEAF011208C215B0011208C2A3
:1021630065B0011208C26AB0011208C2BEB0011202
:1021730008C2EAB0011208C2D3B1011208C224B2E4
:10218300011208C284B2011208C2DEB2011208C2EF
:1021930079B3011208C2B8B6011208C2CAB7011254
:1021A30008C244B9011208C254BC011208C2F2BCED
:1021B300011208C2E8BF011208C2A7C0011208C277
:1021C300EBC0011208C296C2011208C2AAC20112D0
:1021D30008C2B4C2011208C2BEC2011208C2CAC2F6
:1021E300011208C2EFC2011208C2C8C4011208C218
:1021F3001DC5011208C227C5011208C231C501124B
:1022030008C2A6C5011208C2F5C5011208C206C755
:10221300011208C253C7011208C260C8011208C2E2
:10222300A4C8011208C24AC9011208C23DCA011258
:1022330008C203CB011208C226CC011208C244CD46
:10224300011208C22CCE011208C244CE011208C2E8
:102253009BCE011208C2A5CE011208C2B0CE011254
:1022630008C2CECE011208C216CF011208C278CF1F
:10227300011208C29FCF011208C2B1CF011208C2D6
:102283004CD0011208C281D0011208C268D10112D8
:1022930008C2ADD1011208C293D2011208C2BAD248
:1022A300011208C23DD3011208C2AED3011208C203
:1022B30037D5011208C263D6011208C226D701120C
:1022C30008C2EED7011208C278D8011208C2A0D9F9
:1022D300011208C242DA011208C2BDDA011208C2B1
:1022E30079DB011208C2C3DB011208C21DDC011233
:1022F30008C2F5DC011208C218DD011208C2CBDDE9
:10230300011208C2EDDD011208C256DE011208C235
:102313006CE0011208C264E1011208C228E2011252
:1023230008C25AE4011208C2A4E4011208C2F4E488
:10233300011208C258E5011208C2BAE5011208C227
:10234300E8E5011208C20CE6011208C241E60112D7
:1023530008C272E6011208C2A5E6011208C2F5E638
:10236300011208C248E7011208C26DE8011208C24F
:102373000DEA011208C268EA011208C291EA0112C9
:1023830008C21EEB011208C28CEB011208C29AEBC1
:10239300011208C2BEEB011208C213EC011208C2FB
:1023A3002EEC011208C2E0EC011208C218ED011272
:1023B30008C25BED011208C2BEED011208C2C0EFF4
:1023C300011208C2EAEF011208C2E1F0011208C2C9
:1023D300EBF1011208C29BF2011208C279F3011258
:1023E30008C2B1F3011208C2D2F3011208C214F4F5
:1023F300011208C276F4011208C280F4011208C265
:1024030090F4011208C2CBF4011208C2ABF8011216
:1024130008C298FA011208C27EFC011208C215FD17
:10242300011208C2B7FD011208C25D30001208C2D2
:102433000831001208C2B631001208C2BC320012C1
:1024430008C2DC32001208C20534001208C2C035CB
:10245300001208C23336001208C2D736001208C26F
:10246300E337001208C24E38001208C28A3800123D
:1024730008C2CD38001208C20839001208C24A390E
:10248300001208C2DF39001208C25B3A001208C208
:10249300253B001208C2023C001208C29A3C0012FB
:1024A30008C2B43C001208C2E43C001208C2153D45
:1024B300001208C2DB3D001208C2EB3D001208C245
:1024C3003A3E001208C2473E001208C2503E0012B4
:1024D30008C2CE3E001208C22A3F001208C2753F4E
:1024E300001208C2903F001208C2BB3F001208C28C
:1024F300D83F001208C2E43F001208C27B41001219
:1025030008C29441001208C21942001208C22C42A8
:10251300001208C24B42001208C2EF42001208C266
:102523007044001208C22346001208C2B9460012C2
:1025330008C2BC46001208C22C47001208C24A4710
:10254300001208C2E147001208C22948001208C25B
:102553002C48001208C2F248001208C25F49001258
:1025630008C28549001208C2104A001208C22E4A46
:10257300001208C2744A001208C2284B001208C293
:10258300724B001208C2A14B001208C2FE4B00128C
:1025930008C2334C001208C25F4C001208C26D4CD3
:1025A300001208C2BA4C001208C22A4D001208C217
:1025B300734D001208C2BF4D001208C2EB4D00124A
:1025C30008C2F64D001208C2144E001208C2FF4E94
:1025D300001208C2094F001208C2444F001208C279
:1025E300544F001208C2A84F001208C2BC4F001279
:1025F30008C2EB50001208C20051001208C28E51EB
:10260300001208C2D351001208C25F52001208C25E
:102613006A52001208C2AC53001208C2C753001218
:1026230008C21354001208C28254001208C2BB54D9
:10263300001208C2D554001208C23555001208C250
:10264300D455001208C21F56001208C2EF580012D8
:1026530008C2A159001208C20E5A001208C24E5CE9
:10266300001208C2665C001208C2695C001208C24C
:10267300755C001208C2895C001208C2915C0012EA
:1026830008C2C45C001208C2C75D001208C2545ECF
:10269300001208C2C45E001208C2465F001208C2DC
:1026A3000760001208C22660001208C2C760001249
:1026B30008C22461001208C22761001208C29B618C
:1026C300001208C2EA62001208C2F063001208C2D4
:1026D3007B64001208C29665001208C25E6600128F
:1026E30008C28F66001208C2B266001208C2BB6637
:1026F300001208C2EA66001208C27A67001208C212
:102703003068001208C2A568001208C24C690012A2
:1027130008C2C169001208C2F869001208C2366A09
:10272300001208C27880061208C20A80061208C284
:102733005E97051208C24A97051208C24097051210
:1027430008C2D396051208C20495051208C2C294A2
:10275300051208C2D893051208C2AC93051208C229
:102763006393051208C2A092051208C27C8F05125A
:1027730008C21E8D051208C2EE8C051208C29E8C7B
:10278300051208C2388C051208C2F78B051208C25D
:10279300298B051208C2C38A051208C2628A051270
:1027A30008C2028A051208C2A088051208C234882A
:1027B300051208C28887051208C28387051208C25A
:1027C3006C87051208C27988061208C2378705127A
:1027D30008C2CB87061208C22E87061208C22487B6
:1027E300061208C21A87061208C2AF86061208C26A
:1027F3009486061208C2C983051208C2C68305124D
:1028030008C28483051208C27183051208C2E485D5
:10281300061208C26683051208C23583051208C270
:102823005C81051208C2CF80051208C28B80051295
:1028330008C2EA84061208C20080051208C25DDFDE
:10284300061208C277FC051208C222FC051208C250
:10285300F5FB051208C2C2FB051208C29AFB05125A
:1028630008C23BFB051208C21BFB051208C2E6FAAD
:10287300051208C2AAF7051208C27FF5051208C29D
:102883006FF3051208C2ECF2051208C2A0F205129A
:1028930008C254F2051208C21084061208C2AEF12F
:1028A300051208C270B80600000080FBE4738F00B5
:1028B3000100AE1C87000100AC1C35000400721C33
:1028C30025000200761C26000200781C2700020067
:1028D3007A1C28000100841C29000100851C840047
:1028E3000400201986000100B81B2A000100861C81
:1028F3002B000100871C2C0001008C1C2D000800FC
:102903002E192E0001008D1C2F0001008E1C30009B
:1029130001008F1C31000100901C320001003619A8
:1029230033000100371934000100911C3600010007
:10293300381938000100921C390001008B1C8300F8
:102943000200AA1C63000100431964000100881CF3
:1029530065000100891C6D00010044197100080025
:10296300261966000100A91C430001009A1C4400BB
:1029730002009B1C450001009D1C460002009E1C9A
:10298300470008003B1948000100A01C4B00010050
:10299300A11C04000100AD1CA1000100B11C370003
:1029A3000100B01C88000100AF1C3C000100391974
:1029B3003D000100931C49000200A21C67000100B6
:1029C30045194D000200A41C4E000100A61C4F0037
:1029D3000200A71C3E000100991C51000100951C38
:1029E30052000100961C53000100981C5400010082
:1029F3003A19000000000000000136360101000111
:102A030002010001030100010401060605020000A2
:102A1300070100340801000F090401010D0100FF43
:102A23000E08000017020000190100FF1A0100013F
:102A33001B0100FE1C0100081D0200001F01000114
:102A430020010001210200002301000F24020000E5
:102A53002601000127010008280200FF2A010007C0
:102A63002B0102402C0100002D0100012E01000169
:102A73002F0100FF30010B1D310800003A0100084F
:102A83003B01000F3C0100013D0100FF3E0400003B
:102A930042040000460400004A0400004E04000003
:102AA30052040000560400005A040000010371039D
:102AB30001030103010301030103220302030103D1
:102AC30010030003000300030003000300030003DB
:102AD3004203000324030603000300030403120359
:102AE3002503230325032303040304030003000333
:102AF30000034403000300032303000365032100D1
:102B030035038103000305030003000300030003EF
:102B130025032303030271023001600211027002D4
:102B23000102020202028002100261023A00410025
:102B3300630273027202620243020002130238004C
:102B4300000200020402120200020002000200025C
:102B530004020402370037003C0244020002390039
:102B63000002000265020002350281020002050232
:102B73008202830200020300710030016000110031
:102B83007000310220035004800010006100000037
:102B9300140063007300720062004300000013001E
:102BA3000600000000000400120000000000000006
:102BB300000004000400370037003C02440000001A
:102BC30000000000000065000000350081000000E7
:102BD30005000000830000000101710101010101F2
:102BE30011010101310101010101800110016101A4
:102BF3003B00140063017301720162014301000190
:102C0300130106013D013500040112010001000119
:102C13000001000104010401330133013C014401BB
:102C23003201360000010001650100013500810118
:102C33000001050182018301000103047104020400
:102C43006004110470040204020401040204100469
:102C530061040004140463047304720462044304EF
:102C63000004130406040004000404041204000412
:102C73000004000400045104640000040004000480
:102C83004404000400040004000465040004350443
:102C9300810464000504000483040004210010007F
:102CA3002081C91B21001100438100002100120073
:102CB3002083CA1B210013002083CB1B2100140097
:102CC3002083CC1B2100150043813E042100160004
:102CD3001A81CD1B210017001A81D01B210020006F
:102CE3001883400421002100F183D31B210022001B
:102CF300F183E31B2100FDFF2181F31B000003008F
:102D0300200110840000000020010E840000040054
:102D130042015881000005004201148100000600B1
:102D230042014781000007003001118400001000B8
:102D330042033E1C000011003003E11700001200A3
:102D430010034F1C030000002103E2170000FDFFE6
:102D5300210106840300FDFF2101068436000100E2
:102D6300060000000F00000000000000000000004B
:102D7300000003FFFF00000403FFFF0000FFFF0F3D
:102D8300F4010005C4040320000100000B0000004F
:102D9300000000000003010F00000000000000001D
:102DA3000000000000000000000000000000000020
:102DB3000000000000000000000010142E14161480
:102DC3005C131C1434141C14401422145C131C14C0
:102DD30034140000000000000000000000000000A8
:102DE30000000000000028145C1300000000000035
:102DF30000000000000000000000000000000000D0
:102E030000000000000000000000000000000000BF
:102E130000000000000013009A171F00A0171F8076
:102E2300A61700000C1801000C18020046170280B8
:102E3300401703004C17040052170480581705006D
:102E43005E1706006A1731007C17330082173400BF
:102E5300881736008E17FFFF00000A0000000200EB
:102E63000000040000000800000010000000200023
:102E7300000040000000800000000001000000028C
:102E83000000000400000008000000100000002003
:102E930000000040000001AC2006DC2008D6200B17
:102EA300FA2010161D02B22005CA2007B8200C9480
:102EB300200DA02064061BFF000007ECFDFDFDECC8
:102EC300DCDCCCBCACAC9C9C8C7C7C6C6C5C5C5CBF
:102ED3004C4C3C3C2C2C1C1C03EAF5E5D5D5C5B564
:102EE300A59595858575756565555545453535258F
:102EF3002515150500160F00000B150B0200022205
:102F03000F3300000E0F5A6967426565416C6C69A7
:102F1300616E63653039D0D1D2D3D4D5D6D7D8D961
:102F2300DADBDCDDDEDF0000000000000000000073
:102F3300000000000000C0C1C2C3C4C5C6C7C8C9E1
:102F4300CACBCCCDCECF303016181920231A1C1E75
:102F53003000034D4C4651181A250502000119167D
:102F630018161618230300303017181921301B1DAB
:102F73001F30003C40423A3F3F392F47300C0E028E
:102F83000B040B0A0708000F0204020101010109E7
:102F93000200BE040AE8030000E803000001000386
:102FA300007F0000000E00000404080405030A0C5F
:102FB300100C08091E0C28FF03100209033C0C0522
:102FC3000815001EE4F0A3F0A3F0A322122FC7F00C
:102FD30022901AAA1245D312249622122FE222E03B
:102FE300F508E4F509F50AF50B22E824FBF582E977
:102FF30034FFF58322E82411F582E439F583E022D6
:10300300F58312300922E0F508A3E0F5092212271F
:1030130012740412092B7F0802067B7401F09004DA
:10302300D2E0640F22740912092B7F0402067BEAA3
:103033002413FAE43FFB122640E922790512264CB9
:10304300740622A3A3E024F5C394132212271E902F
:1030530004F21265917A147B0022C082C083901A15
:1030630089748AF0A37424F0A3749CF0A37424F0ED
:10307300901A8D7472F0A37424F0A3746CF0A3748B
:1030830024F0A374A8F0A37424F0A374AEF0A37483
:1030930024F0A374A2F0A37424F0A3745AF0A374CD
:1030A30024F0901A99747EF0A37424F0A37484F02E
:1030B300A37424F0A37478F0A37424F0A374B4F07D
:1030C300A37424F0901AAA124FA26009901AAA12AC
:1030D30045CF12124E901AA71248E97408125C3EAB
:1030E300A3F0901B53F0901AACF07C0BFDF97AAD72
:1030F3007B1A1211947C0B7D0079007AB87B1A122B
:10310300119402474374F712042074F71209C3EAB7
:10311300FEEBFF12319B7405124A077403F012325F
:10312300B21249E92430FCE43FFD8C821231931240
:1031330031A760081239C074FFF0A3F0EE242EE427
:103143003F1C1CFD8C82F583A3E0C0E08A828B8345
:1031530012469BD0E01231A788828983124ED6246F
:1031630003F0EE1239CA120C117403F09004E71243
:10317300074874021209A312359412092BE9F508C2
:103183007007EEFAEFFB122526A90874090239D954
:10319300F583E08882898322EA1231A0221250E566
:1031A3003FF58322125EBE1249F5E8F0A3E91261EE
:1031B30095E02274F0120420EAFEEBFF8C0C8D0DD7
:1031C300890B1232B2F5831249FD7410120C11E00F
:1031D300F508A3123195F0E824FFF582E91235A62C
:1031E300E508F0E824FEF582E91235A6E50BF09038
:1031F30004ECE0C0E0E824FDF582E91235A6D0E056
:10320300F09004EBE0C0E0E824FCF582E91235A677
:10321300D0E0F07412120C11123005122FEDE509F3
:10322300F0E824FAF8E934FFF98882F583E508F039
:10323300EE2404FCE43FFD88088A828B83E0F50ECC
:103243008C828D83E0250EC39508125EBE1248233F
:10325300850C82850D83A3A3A3A3A3A3A3A3E064E7
:10326300037009EE1249D7F0A3E480031235AB12C1
:1032730035B37409F07508AD75091A750A00780835
:103283001208F912598812092B7508FF7509FF787E
:10329300081208FDAC0CAD0D12359412092BE9F59B
:1032A300087007EEFAEFFB122526A908023019EA87
:1032B3002402FAE43FFB8A8222C082C083901AC9A7
:1032C300E0C39408400474078001E08A828B83F092
:1032D30033333354F8F902474374F01204208A0855
:1032E3008B09890A8C0E8D0F750C00A2AFE433F5A0
:1032F3000BC2AF901AC380451233DE503D1233F830
:1033030064037036E50824F9F508E50934FFF50987
:103313008E828F83A3A3E02405FCA3E03400FDAADF
:1033230008AB09121338E50824FFF508E50934FF53
:10333300F5097410250CF50C150A1237CD126946E0
:10334300E50A6004EE4F70B0E50BA2E092AFA2AFC6
:10335300E433F50BC2AF901AC3803E124EAF88829E
:10336300F583124123850882850983F08A82898344
:103373001233EFA3A3E0C0E0E50824FFF582E509DB
:103383001235A6D0E0F0E50824FEF508E50934FF80
:10339300F509050C150A1237CD12362160211233B7
:1033A300F8640270F11233DEEE40B0124B1EA2E558
:1033B30050E4850E82850F837401F0E50A70D7E52A
:1033C3000BA2E092AF850882850983E50CF0E5083E
:1033D30024FFFAE50934FFFB0230191233E4A2E6B5
:1033E30022EE2411F582E43FF583E0221233F32227
:1033F300124EF4A3228E828F83A3A312469F1255EB
:10340300CB2274F012042074F31209C37403120C58
:1034130011E9F07402120C11EAF08B0B8518828506
:103423001983E4F00412099B12243CE9F89004D1B7
:10343300E0292437F508FA7B001211B28A0C8B0DB0
:10344300AE0CAF0DEA4F700302358BEA2402F50E82
:10345300E43FF50FA808EA28F8E43BF9850E8285D6
:103463000F83123F1F9004D1E0F9FAC3E49AFA954F
:10347300E0FB850E82850F83E02AF50CA3E03BF584
:103483000D9004CF123005750A0078081208F9E987
:10349300FC7D00AA0CAB0D12495912092BAC18ADD7
:1034A300197401120C11E0F9E50C24FFFAE50D344F
:1034B300FFFB1224428A828B83E4F0E50BC454F0B1
:1034C300F9901B54E0C4333354C0F89004CBE0A20A
:1034D300E0E43313134849440FC0E0EA24FFF582C4
:1034E300EB1235A6D0E0F0EA24FEF50CEB34FFF541
:1034F3000D7403120C11E0F87402120C11E0C454A1
:10350300F048850C82850D83F0A80C850E82850F0B
:1035130083125C0B2AC3988E828F83A3A3A3A3F089
:10352300850E82850F83E8F0A3E50DF01235AB120B
:1035330035B3E4F0740C120C11E4F07508B8750996
:103543001A78081208F912598812092B85188285EE
:103553001983E06009EE240E124B204408F0122672
:103563002EE9F9E4F508F50978081208FD74061246
:1035730009A312359612092BE97006EEFAEFFB80C8
:103583000BEEFAEFFB1211B87A007B00740D0230D8
:10359300167903EEFAEFFB122646740222EE24FF9D
:1035A300F582EF34FFF58322EE1231A0E4F0A3227B
:1035B300F01235B822EE1258AB3FF5832274F212A3
:1035C30004208A0C8B0DA2AFE433F50AC2AF750851
:1035D30000750900901AC3802C1237DD5024850C26
:1035E30082850D83A3A312599B8E828F83A3A3127B
:1035F30045CF122634E9600A1237D8C2E6F08E08A6
:103603008F091237CD12362170CFE50845096006C0
:103613001236BAD2E6F0E50AA2E092AF800DE0FEE0
:10362300A3E0FFEE4F22740212092B7F0602067BF2
:1036330074F01204208A0E8B0F8C0C8D0D750A000A
:10364300A2AFE433F50BC2AF7E007F00901AC380B4
:1036530010AE08AF091236B2124B1ED2E7F0124574
:10366300AD1245C160341236BAA2E750F185088223
:10367300850983A3A3120748AC0CAD0DAA0EAB0FAB
:1036830012263A740212092BE960D3EE4F60C2127C
:103693003A5470061236CCD2E4F0E50BA2E092AFB6
:1036A300EE4F6006122520750A01A90A023019128D
:1036B30033E4D2E4F0EE22E5081258C53509F58368
:1036C300E022AA82AB831213388E828F83A3A312C4
:1036D300469FE02274F212042074FE1209C3750C93
:1036E30000750D00851882851983E4F0A3F0A2AF5D
:1036F30033F50AC2AF901AC3126946802BEE24FB3E
:10370300F582EF34FF123003780C1208FD1237BB39
:1037130012092BEEFCEFFDAA18AB191211D6AE0855
:10372300AF09901AC9E014F0EE4F602B1237DD5049
:103733001DEE240BF8E43FF98882F583E024FFF0C3
:10374300A3E034FFF088828983124FA260AF8E0C0E
:103753008F0D1237CD80A1E50AA2E092AF901AC96E
:10376300E0602C9004D2E0640F6006901B53E0707D
:103773001E7AA17B1A12271E9083F91207447AA19D
:103783007B1A1247CB12092B800574F01246ACAAA0
:1037930018AB191211DC8A088B09AE08AF09EA4F7E
:1037A300601312244E1237D8A2E28E828F83A35065
:1037B300D974E980D7023629EEFCEFFD7AC37B1A70
:1037C3001211E87402228E0A8F0BEE24FBF582EFAE
:1037D30034FFF58322EE1233E5221233E4A2E7220B
:1037E30074F7120420EAFEEBFF12244E12469812DD
:1037F30028AFE964019004EE700AE02401F8A3E025
:103803003400800312461EF9124D20124823901AE9
:10381300C9E0701F9004D2E0640F70177AA17B1A7D
:1038230012271E9083F91207447AA17B1A1247CB01
:1038330012092BA8A8C2AF901AC9E004F0E8A2E7C6
:103843008004E508A2E092AF024C2E74F712042024
:10385300EAFEEBFFEA123884F012244EEEFCEFFD91
:103863007AC37B1A1211E2A8A8C2AF901AC91241F7
:10387300729004D2E0640F700579081225E6024CB9
:103883002E1233E5C2E42274F712042074EA1209FB
:10389300C3EAFEEBFF9004CBE0602A85188285190A
:1038A300837401F0120C11E412393F120C11123619
:1038B300C5C0E0740A120C11D0E0125C2B740B1219
:1038C3000C11124E8B74160239D974F7120420EAC4
:1038D300FEEBFF122430E9F974DC69601E74DD69C4
:1038E300601974E469601474F369600F74DE6960CD
:1038F3000A74DF69600574DB697007EEFAEFFB1287
:1039030025EC024C2E74F712042074EB1209C3EA5F
:10391300FEEBFF851882851983740612393F120C5A
:1039230011AA82AB83121338EE2408FCE43FFD7422
:103933000A120C11124E8B74150239D9F0EA2413B2
:10394300FCE43FFD74022274F712042074F7120999
:10395300C3EAFEEBFFEA2430124B20605DEA123922
:10396300CA120C117403F09004E71207481239C00D
:103973001207489004FAE0F974041209A3EEFAEF6F
:10398300FB122436740412092BE9F974DC696023F1
:1039930074DD69601E74E469601974F369601474FA
:1039A300DE69600F74DF69600A74E869600574DBBF
:1039B300697007EEFAEFFB1225EC02318EEE242E2E
:1039C300F582E43FF58322125D9CAA18AB1912130A
:1039D30038740822740312092B024C2E74F2120459
:1039E300208A0C8B0D750A00750B007508E7A2AFD2
:1039F300E433F509C2AF901AC380031237C91236F4
:103A03002160251237DD50F3123A5470EEEE243262
:103A1300123BEBE06870E4780A1208FD1237BB1220
:103A2300092B901AC9E014F0E509A2E092AFEE4F1A
:103A33006013EEFAEFFB12244E79F0EEFAEFFB126D
:103A430025EC750800A908AA0CAB0D1225EC02366B
:103A53002E1235B8E064012274F412042074F712B4
:103A630009C3EAFEEBFF8A82F583A3E064F37003E4
:103A7300023AF98A828B83A3E064DF60798A828BBE
:103A830083A3E064E8606F8A828B83A3E064DB60D6
:103A930065122490E9F5087055EE240E124B206050
:103AA3004D123B0360487408120C11123B121207AB
:103AB300487508FF7509FF78081208FD8E828F8309
:103AC300A3A3A3A3A3A3A3A3E0F974041209A312BA
:103AD3002436740412092BE9F50874F369600F7432
:103AE300DF69600A74E869600574DB69700F8E82B0
:103AF3008F83A3E508F0EEFAEFFB12249C02302833
:103B0300EE240FFAE43FFB79091224D2EA4B227424
:103B13000212539174FFF0A3123B1F22124EDFA334
:103B2300A32274F1120420EAFEEBFF7508008A82D7
:103B3300F583A3A3A3A3A3A312304640037508E808
:103B43008A828B83A3A3A3A3A3A3A3A3A3A3E0C357
:103B5300941040057508E880138A828B83A3A3A37E
:103B6300A3A3A3A3A3A3A3E0640F600B901B30E064
:103B7300540870037508E8EA240B123BEBA3A3A3D4
:103B8300A3A3A3A3A3E0C398500DEA240B124B20D5
:103B9300640F60037508E89004EBE0F47003A3E09E
:103BA300F470037508EC7A237B001212488B0BA97F
:103BB3000B901AAA123BFA60278E828F83A3A3A9C4
:103BC30082AA83890C8A0D750E00780C1208F97C81
:103BD300237D00901AAAE0FA12495912092B800397
:103BE30075081AA908025983F582E43FF583E0F8C2
:103BF3008A828B83A3A322EAF0A3EBF0EA4922741F
:103C0300F5120420EAFEEBFF8A82F583A3A3A3A3A4
:103C1300A3A3A3A3E09004D2123C92E09004EDF09E
:103C2300EA240B124B209004CD123C92A3E0901B8C
:103C330054F0F9120FCC901B54E0600BEE240412E5
:103C43004B122406123C88901B5312301E600474DE
:103C53000180027400901AAC1262D61208F97C0B30
:103C63007D007AAD7B1A12495912092BEE2418F5FF
:103C730008E43FF50978081208F97C0B7D007AB84F
:103C83007B1A024946FAE43FFB79E1120FB4221290
:103C930062C0A3A3A3A32274F7120420EAFEEBFFDE
:103CA3008A82F583A3E07003122FD4125E47024C7D
:103CB3002E74F7120420EAFEEBFF901AAA124FA209
:103CC3006010901AAA1245CF901AAAE4F0A3F0123A
:103CD300124E8E828F8374081246B31219EC024C73
:103CE3002E74F6120420901B53E06010901AACE07F
:103CF300700A123D02EA4B6003122526025F4190CF
:103D030004CDE0FB9004EDE0FA9004D2E0F9122434
:103D1300482274F412042074E71209C3EAFEEBFF8D
:103D2300750B018A82F583A3A3A3A3A3A3A3E0A294
:103D3300E25069EA242BF582E43F125999EA2413ED
:103D4300FAE43FFB122454E97052908323E06401A8
:103D53007005750B008045123DD41208F97C0B7D6C
:103D630000741112099B12495912092B12262EE9CC
:103D7300FA740E1209938808890978081208FD75E8
:103D8300083075090078081208FDEE125BF412077B
:103D930048125D8E790112304012092B85188285F5
:103DA30019837410F0125D8E7402120C11AA82AB87
:103DB3008312132CEE242B126587740B120C111231
:103DC3004823740D120C11E50B12600074190230B4
:103DD3002AEE24081262DE22C082C083901B54E0C4
:103DE30060031226A0024743C082C083901B4B741A
:103DF30089F0A3741AF0A3748DF0A3741AF0A3745A
:103E030099F0A3741AF0901CC4743DF0A3742CF0C1
:103E1300901B35742AF0A37424F0901ACE7460F0CA
:103E2300A37424F0901AD07466F0A37424F0901B4A
:103E330030E04402024247C082C083EAFCEBFD79D2
:103E430003024F4EC082C08379080260C1C082C0A2
:103E53008374FE1209C3901AD6740EF0A37425F06E
:103E6300901AD87408F0A37425F080077AC37B1ADC
:103E7300123EAC901AC3124FA270F1901AC5124FA2
:103E8300A260097AC57B1A123EAC80EF901AC3E494
:103E9300F0A3F0901AC9F0A3F0A3F0901AE4744AC7
:103EA300F0A37425F07402801C1211DC851882853E
:103EB3001983EAF0A3EB123EC012261C22F0AA18C3
:103EC300AB1922741112092B02474374F612042012
:103ED300E9FF747529F582E4342FF583E493FEFA40
:103EE3007B001211B2EA4B6007EA2E123F1C8026B8
:103EF3007A027B001211B2EA4B6017746A2FF582C3
:103F0300E4342FF583E4938A828B83F0A3741A122B
:103F130042E57A007B00025F41124812E8125EBB61
:103F2300A3A3A3A3E4F022E9FC740629F8EAA2E020
:103F3300501EE875F00A84E5F0F96014740A28C38A
:103F430099F8E9C394054004740A28F8740B28F817
:103F5300ECC394134004791480027906E8297900AC
:103F63002409F85001097A0A7B001202D0E8F90209
:103F730008BFC082C083901B30E05402600A12194C
:103F8300F2E96004790180027900024743C082C0EC
:103F930083901B30E054026014901AC9E0700A1237
:103FA3004F9F6009123FB5500479018002790002E6
:103FB3004743122FF8A2E722C082C083908320E0F8
:103FC300F8901ACBE0C39850051211B280047A001E
:103FD3007B00024743C082C08312261C790002473C
:103FE30043C082C08374FE1209C385188285198376
:103FF300EAF0A3EB12414EA3A3A3A3A3E0600A1428
:10400300605724FE605A0240BE9004D2E0640F6001
:10401300121225F2E9700C1245C9901AD212469B6E
:104023001228AF9004FAE0C0E08518828519831244
:104033004EC2D0E012414E74141258DFFCA3E0FDCF
:104043007AC57B1A1211D6A8A8C2AF901ACB124117
:104053007279201225E6023EA812441C741580D9F9
:1040630012441CA3A3A3A3E0605112441C1236D034
:10407300C0E0851882851983E02406F582E43BF5C8
:1040830083D0E01258DF2402F8A3E03400F98882D9
:10409300F583E02401FAA3E03400FB88828983EAF4
:1040A300F0A3EB1258DF12445C85188285198360F4
:1040B3001312412360051241354048AA18AB191267
:1040C300261C809212412360F21241355021124185
:1040D30042FA851882851983A3E0C824061244187E
:1040E300F8748A1250D7342FF583E4936A601485E9
:1040F3001882851983124123640870BF12414264F8
:104103000870B812414214124156240AC0E08518BF
:104113008285198312469BD0E01241560402403C2B
:104123001241272212461EC82406F582E438F5837D
:10413300E022851882851983124127C3940A2285B8
:1041430018828519831233F3A3E022124160F583A9
:10415300888222124160C8240612444622F0851840
:104163008285198312461E22A8A8C2AF901ACAE0FC
:1041730004F0E8A2E792AF22C082C083901ADA1259
:104183004FA260081244231228AF8002790002472D
:104193004374F7120420EAFEEBFFEA1235B9740107
:1041A3001247D1F8A3E0F912319B124823EA2435D0
:1041B300124B20C0E0EA2413F582E43FF583D0E0FC
:1041C300F0EA2436124B20C0E0EA2414F582E43FDF
:1041D300F583D0E0F0EA2438124B20C0E0EA24183B
:1041E300F582E43FF583D0E0F0EA242FF582E43F43
:1041F300F583120748125D9BEA2431124B20F91212
:10420300359A12092BE9F5087007EEFAEFFB122530
:1042130026A908024C2EC082C0831225F2E960044D
:10422300792080027901024743C082C083EA2411C6
:1042330012423DD2E0800DEA240DF582E43BF58382
:10424300E022F0A3F0024743C082C08312423A64E3
:104253000170111242DF400C8A828B83A3E0F912B2
:1042630025EC80661242D0A2E650128A828B83A389
:10427300E0F9901AD412469B1228AF804D12423AAD
:104283006401700D1242DF50088A828B8374308080
:10429300368A828B83A3E0641B8A828B83700474C7
:1042A300228024A3E0700D12423AF874491250D7C9
:1042B300342F800B12423AF8746A1250D7342FF518
:1042C30083E4938A828B831242E50247431242D4EA
:1042D30022EA2410F582E43BF583E0221242D4A2C1
:1042E300E322F0901B2BE0F91211BE2274F71204A3
:1042F30020E9FE124F9F7003024415EE6014741BF5
:104303006E701AE81258AB39F583E0640570030246
:1043130043ED901ACD124423A3E40243F474E96EEF
:104323007068E82412F582E439F583E0700B121902
:10433300F8E96005124466606179EE120F36901A4F
:10434300CC12443D901ACC603A124469901ACC7056
:104353000B12443D14F01210EC02441512445BC2DC
:10436300E7124604240D12441864037009124436FC
:104373001245BAD2E2F079ED120F3612444E1228EA
:10438300AF807812442974E9806774E16E703E123D
:1043930019F8E9605512446670509004F4E0C0E0E7
:1043A3001244362412F582E438F583D0E0F0900409
:1043B300E3E0C0E0901ACC124432124432D0E0F071
:1043C3009004E3E004F079011210D48045741C6E6C
:1043D3007018901ACC1245CF901ADC12469B122803
:1043E300AF901ACCE4F0A3F08028901ACC124429A1
:1043F300EEF0901ACC1245CF1225141245E5E05485
:104403008060031260B0901ACCE4F0A3F07910122C
:1044130025E6024C2E12444622851882851983A371
:10442300E0F58388822212442D221246A3A322128E
:104433004EF022901ACC124ED122124ED1241212D7
:10444300444622F582E438F583E022901ACC1245E3
:10445300D3901AD012469F22E0F8A3E0C82410128A
:10446300444622901ACC1245ECE054042274F41210
:104473000420750A00750B00A2AFE433FEC2AF122D
:104483004F9F60030245631246981228AFE9441018
:10449300F8901AC3800985080A85090B1245AD12E5
:1044A30045C170030245631236BA586870E8780A4A
:1044B3001208FDAC08AD091237BF12092B901ACCB4
:1044C300E508F0A3E5091246041245BAA2E7500332
:1044D30002456A901ACAE014F0EEA2E092AF901A75
:1044E300CCE0240EF8A3E03400F9E8FEE9FF88826B
:1044F300F5831245CF901ACC124148F91224D8E91A
:10450300901AC7125C3E8E828F83E054806018122B
:1045130044362413124418F9120FF01244362414AB
:10452300124418F9120FE41245E5A3E05401605F49
:10453300901AC7124FA260451245FB60401245FB1B
:10454300F87900901AC71245CF1202D8E8C0E012DA
:1045530045D9D0E0124609C3941340117402800F69
:10456300EEA2E092AF8037901AC90244D97400C01A
:10457300E0901ACDE0C81245A4D0E0800D1245D9D1
:1045830074011246041245A47401F07903800C905F
:104593001ACC12445BA2E1B3E433F91210D4023013
:1045A3002D241AF582E438F58322E50824FBF582ED
:1045B300E50934FFF583221258C51244492212300B
:1045C30009E5084509228518828519831245D322F6
:1045D300E0FAA3E0FB22124ECE2419F582E438F56B
:1045E3008322901ACC1245EC2212461EC81245F4BF
:1045F300221250E538F58322124ECE241812444677
:1046030022124616C822124616F5838882A3A3A354
:10461300A3E022F0901ACC12461E22E0F8A3E02277
:1046230074F7120420EAFEEBFF122616124B1DA2AA
:10463300E3400A123A54700590831E800390831F4F
:10464300E0F9EEFCEFFD7AC37B1A1211EEE9603854
:10465300EEFAEFFB901AD612469B1228AFEE240E09
:10466300124B205404701212416BEE12319CA3E0E2
:104673005401701E1225208019EEFAEFFB901ACE1A
:1046830012469B1228AF800A8E828F83A374F11285
:1046930046AC024C2E901AD812469F221246A322F1
:1046A300E0F8A3E0F5838882221246B31225142290
:1046B300F0EEFAEFFB2202473C74F7120420EAFE05
:1046C300EBFF7900901B30E05402700CEA243312A4
:1046D3004B205404600279E8901B30E05460700C66
:1046E300EA2433124B205402600279E88A828B83D6
:1046F300A3A3A3A3E0F8908324E0C398500279E82E
:10470300EA2431124B20700CEA242E124B20700441
:1047130079F5800BE97005122502E9F9E96007EEE6
:10472300FAEFFB1225EC024C2EC082C0838A828BE7
:1047330083740DF01219EC8007C082C08312252008
:10474300D083D0820208BF74F4120420EAFEEBFF88
:104753008A82F583E4F0A31247D1540490831E7038
:1047630012E0F8901ACAE0C398401279F11225ECCE
:1047730002302DE0F8901AC9E0C39850EE1247D7E3
:10478300A3E054016037EA2437124B20C394054059
:1047930033EA2433124B20540570297ADE7B1A1234
:1047A300271EEE2437F582E43FF583122FDE7808C7
:1047B3001208F57ADE7B1A1247CB12092BEEFA1296
:1047C30051C880AC79E880A5122712740422F01234
:1047D30047D7E022EA2433F582E43FF5832274F6D7
:1047E300120420E9FE2451FAE43400FB1211B2EA68
:1047F3004B6015EE8A828B83A3A3A3A3F0EA245113
:1048030012481212482380047A007B00025F41F8A9
:10481300E43BF98A828B83A3A322126591901BA8A0
:10482300E8F0A3E9F02202473CC082C083901AE774
:104833007474F0A37425F0A374A4F0A37425F0A3F7
:10484300747AF0A37425F0A37480F0A37425F0A305
:10485300749EF0A37425F0A37492F0A37425F0A3BF
:10486300748CF0A37425F0A374AAF0A37425F0A3A9
:1048730074B0F0A37425F0A374B6F0A37425F0A369
:1048830074C2F0A37425F0A37486F0A37425F0A377
:10489300746EF0A37425F0A37468F0A37425F090EC
:1048A3001B037498F0A37425F0A374BCF0A37425C0
:1048B300F0A374D6F0A37426F0A374C8F0A37425F0
:1048C300F0A374CEF0A37425F0901B27E4F0901BA3
:1048D3002AF0901B131248E97402F0901B1C124833
:1048E300E9740102424774E6F0A37425F0A322742D
:1048F300F512042074F11209C38518828519837493
:1049030002F07401120C11E9F060047AFF7BFF746A
:1049130002120C1112538675081F75091B750A00C4
:1049230078081208F97C0B7D007407120C11AA8217
:10493300AB8312495912092BAA18AB191219EC743B
:104943000F800312495912092B7F0302067B7C0B4C
:104953007D007A1F7B1B12118274032274F71204E9
:104963002074FD1209C3851882851983740AF074B3
:1049730001120C11E9F07402120C11EA1260000228
:1049830039D774F612042074F71209C3EAFEEBFF59
:10499300EA1249D7124A077402F0EA2428FCE43FDA
:1049A300FDAA18AB1912132CEE24311249DD24335E
:1049B3001259FF1208FD74021209A379831A1A12FD
:1049C300359812092BE9F5087007EEFAEFFB12256B
:1049D30026025F3A1231A0740122F582E43FF58387
:1049E300123009124EA7F5831249F5E8F0A3E9F056
:1049F300EE221249FD8A828B8322E024FFF8A3E092
:104A030034FFF922F0A3E4F0EA1235B92274F0126C
:104A1300042012646F120BBA7808790C12033178F0
:104A2300081208F57A167B1B02301174F412042065
:104A330074C61209C39004D2E0640F600D85188216
:104A4300851983742E1253A580227A0D7B1B123095
:104A53004F1202D888088909E4F50AF50B78081281
:104A630008F57A0D7B1B1247CB12092B743A0230DF
:104A73002A74F5120420EAFEEBFF8A82F583A3E091
:104A8300F87078EA2430124B2064026007E0640374
:104A9300600278E8EA2426F582E43FF58312304881
:104AA300400478E88058E87052EA2426123C88EEE5
:104AB3002431124B122430124B206402700EEE2468
:104AC300281265879004E112482380179004E1744B
:104AD300FEF0A304F0EE2428FCE43FFD7AD87B0427
:104AE300121338EE241B123DD71208F91249511242
:104AF300092BEEFAEFFB122562E9F8E8600EE88E67
:104B0300828F83A3125DA37417125E4D02494CFA80
:104B1300E43FFB7950120FB4EE22EE2410F582E449
:104B23003FF583E02274F612042074F71209C39050
:104B33001B2AE070377401F0F912109EAA18AB1902
:104B430012262875081F75091B78081208FD7508B9
:104B53000175090078081208FD9004E712074874EC
:104B6300061209A37A0312303E12092B025F3C742A
:104B7300F7120420124D4E7004A374EBF0901B2A1D
:104B8300E0A2E25003C2E2F0E0A2E15005124D5F61
:104B930080098E828F83742A125E4D024C2E74F428
:104BA30012042074FE1209C3124C54124E9AEC855F
:104BB3001882851983124EE9E0F50B7015AA18AB1C
:104BC300197953120FB4EE2413FAE43FFB794A1216
:104BD3000FB4123DD41208F912495112092B124590
:104BE300C9A90B122556901B2AE0A2E15003124DCE
:104BF30066901B2AE4F0740202302A74F712042030
:104C0300EAFEEBFF8A82F583A374EBF0901B2AE0A4
:104C1300A2E150077A0079EB12255CEEFAEFFB1262
:104C230025928007EEFAEFFB1226947F0102067BA2
:104C330074F7120420124C54901B27E4F0901B2AA3
:104C4300F07AFF7BFF8E828F83A3E0F912255680D3
:104C5300DA124D9F7A167B1B12271E2274F7120459
:104C630020EAFEEBFF12258C80BA74F7120420129F
:104C73004DDCA3A3A3E060047400800274EB124C28
:104C8300AD5003C2E2F0E0A2E15005124DB0801135
:104C9300A2E0500D8E828F83742AF0A374EB125E10
:104CA3004DEEFAEFFB12253880818E828F83A3F0BD
:104CB300901B2AE0A2E22274F6120420EAFEEBFF24
:104CC300901B2AE0D2E1F0790112109E8E828F832D
:104CD300A3E0703812262EE9FAEE240DF508E43F1E
:104CE300F50978081208FD7508017509007808129E
:104CF30008FD124D20120748EE2402FCE43FFD128A
:104D0300303E12092BE98E828F83A3F08E828F832C
:104D1300A3E060067A00F912255C025F41EE240BE2
:104D2300F582E43FF5832274F7120420124D4E708E
:104D330004A374EBF0901B2AE0A2E25003C2E2F05A
:104D4300E0A2E15003124D5F024C2EEAFEEBFF7925
:104D5300011210A48E828F83E0642022C2E1F0123C
:104D63004D66227A008E828F83A3E0F912255C229E
:104D730074F7120420124D9F8E828F83A3A3A3A3E3
:104D8300E060047400800274EB124CAD5003C2E285
:104D9300F0E0A2E15003124DB0024CA4EAFEEBFF97
:104DA30079011210A47A0D7B1B12271E22C2E11275
:104DB30062D1E0A2E4E433FA124D682274F71204DC
:104DC30020124DDC74EB124CB25003C2E2F0E0A2AD
:104DD300E15003124D5F024C2EEAFEEBFF79011204
:104DE30010A48E828F83A32274F7120420124E0123
:104DF300024C2774F7120420124E01024C2EEAFED5
:104E0300EBFF7A0D7B1B12271EEEFAEFFB1225B682
:104E13002274F712042074EF1209C3EAFEEBFFEACF
:104E2300125D8F7AD87B04121326E96056851882A7
:104E33008519837409F07401120C1174EFF0124E8A
:104E43009A7402120C11EC124EE9A3A3E0C0E074B1
:104E530004120C11D0E0124ED6640870158E828FA6
:104E630083A3A3124EC2E0C0E07405120C11D0E07C
:104E730080067405120C11E4125C2B7406120C11DB
:104E8300124E8B74110239D9AA82AB8312265EAA01
:104E930018AB191219EC22124EA7F583124EB9FC66
:104EA300A3E0F922EE124EAFFB8882222402F8E43B
:104EB3003FF9E8FAE92212461E8882F583E02212BE
:104EC3004ED12407F582E438F58322901ACC12469A
:104ED3001EC822124EDA22124EDFE022F08E828F9B
:104EE30083A3A3A3A322125EBB124EF022124EF49D
:104EF30022E0F8A3E0F5838882A3A322C082C083C3
:104F03001226A0024743C082C083901B4774E7F078
:104F1300A3741AF0A37403F0A3741BF0901CBE7463
:104F2300DBF0A3742BF0A37417F0A3742BF0901B86
:104F3300337450F0A37425F0901B30E04401024217
:104F430047C082C083EAFCEBFD79021226040247C4
:104F53004374F612042074FE1209C3901B2C124FE3
:104F6300A260077A2C7B1B12261C901B32E4F09064
:104F73000B8B124FA260208007AA18AB1912261CB4
:104F8300901B2BE0F91211CA8B09A9098518828598
:104F93001983123BFA70E27402025F3E901ACC123C
:104FA3006591E8492274F7120420E9FA7B00901B0B
:104FB3002BE0F91211F4024C2E74F712042074F052
:104FC3001209C3EAFCEBFDE9FE8A828B83E0F874E5
:104FD300801250D7342FF583E493C0E07401120C90
:104FE30011D0E0F0640B700DE98A828B83A3F01279
:104FF30026820250D2E070030250D2640C60030296
:1050030050C3741A6E700B7404120C11E4F0A302F3
:1050130050C27404120C11125386EA243212588FB0
:10502300C0E07403120C11D0E01262BC120BE274E4
:1050330006120C11120BD68C828D83A3A3A3A3A3F8
:10504300A3A3A3A312658D740A120C11E8F0A3E9BC
:105053001250DCE054106009851882851983E480BE
:1050630013EC241212588FF89004F4E0C3988518B7
:1050730082851983F0E0C0E0740C120C11D0E0F0CB
:10508300EC241512588FC0E0740D120C11D0E0F00F
:10509300EC241612588FC0E0740E120C11D0E0F0FD
:1050A300EC241712588FC0E0740F120C11D0E012C9
:1050B30050DCA3E0540160087401120C117411F068
:1050C3007402120C11EEF0740112099B1219EC74A4
:1050D300100239D928F582E422F0EC1250E53DF5AF
:1050E3008322240EF582E422C082C083901B32E027
:1050F3006403700479018002790002474374F71254
:105103000420901B32E012517B74BC28F582741C7E
:1051130039F58312560DC2E7F0125182A3E493FED0
:1051230025E0FCE433FD74BC2CF582741C3D12595C
:1051330099EC4D6005EE901B32F08A828B83E0255B
:10514300E0FCE433FDE82CF582E93DF583E493FCD0
:10515300C4540F25E0F874411250D7341BF5831261
:105163004FA27005122670800CEC540F125182125C
:10517300469B1228AF024C2E25E0F8E433F9222592
:10518300E0FCE82CF582E439F5832274F212042062
:1051930074FE1209C3890B8A088B0912522D12520D
:1051A3001E601A125C38F50A78081208F912523A8E
:1051B300240212598F12092B1251C6800312524C2A
:1051C300023629AA0CEFFB901B2BE0F91211BE2229
:1051D30074F012042074FE1209C3890B8A0E8B0F1C
:1051E30012522DF50812521E6027125C38A808EAE5
:1051F30028123F1C850E08850F09F50A7808120846
:10520300F912523A12598D12092B1251C6790080A4
:105213000512524C791A7402023016FA7B001211ED
:10522300B28A0C8B0DAF0DEA4F22745429F582E438
:10523300342FF583E49322A80B745F1250D7342FD5
:10524300F583E493FC7D00EA22851882851983E5C2
:105253000BF0791AAA18AB191225EC22C082C0836D
:10526300E9901B2B02424774F612042074FE1209C4
:10527300C3EAFEEBFFEA542070308039A8A8C2AF1E
:10528300901ACBE0141241748A828B831253739069
:105293001B2E1253861225F8851882851983E06424
:1052A3001560077A2E7B1B12261C7AC57B1A1211F6
:1052B300DCEA4B70C7EF5480700C8016901B2EEA0B
:1052C300F0A3EB125399901B2BE0F91211CAEA4B8E
:1052D30070EAEE5410600B851882851983742D12C1
:1052E30053A5EEA2E0500B8518828519837424120E
:1052F30053A5EE5402600B85188285198374251219
:1053030053A5EE5404600B85188285198374261205
:1053130053A5EE5408600B851882851983742812EF
:1053230053A5EE5440600D7401120C1112538C748A
:105333002C1253A5EE5480600D7401120C111253FC
:105343008C742F1253A5901B2C124FA2601BA8A87C
:10535300C2AF901B2C1245CF901B2CE4F0A312413B
:1053630074A3EAF0A3E91253997A007B00024F9ADF
:1053730012537722E0851882851983F022A3A3A311
:10538300A3A3A3EAF0A3EBF022E412539122F08546
:10539300188285198322F01225F87A2E7B1B122698
:1053A3001C22123EC01225F822C082C083901B2EFD
:1053B300125FFB687002EB697007901B2EE4F0A389
:1053C300F002474374F7120420EAFEEBFFEA4F7042
:1053D30003120D92A2AFE433F508C2AF8E828F831E
:1053E300124FA26028E824FBFAE934FFFB901B2E3E
:1053F30012599BE86C7002E96D7007901B2EE4F064
:10540300A3F08E828F83E4F0A3F012124E0238458C
:10541300C082C083901B557464F0A37426F0A374F8
:1054230076F0A37426F0A3747CF0A37426F0A3741F
:1054330032F0A37425F0A37482F0A37426F0A3744E
:105443002CF0A37425F0A37438F0A37425F0901BFB
:105453006374B2F0A37426F0A37488F0A37426F0E7
:10546300A3748EF0A37426F0A3749AF0A37426F0A9
:10547300A37494F0A37426F0901B54E4024247C033
:1054830082C0839004E1E064FE7003A3E0F470093A
:105493007CD87D0412132C801C8A828B83A3A3A344
:1054A300A3A3A3A3A37402F09004E112658D8A82DF
:1054B3008B83124823024743C082C0839004EBC30B
:1054C300E094FEA3E094FF40047903800279020292
:1054D3004743C082C0831256168C828D831255CBEC
:1054E300687039740268701C8A828B83125524E0B9
:1054F3006870298A828B83A3125524A3E068701CE9
:105503007901801A7403687013EC2405FC50010DB3
:10551300EA2405FA50010B12133280027900024784
:1055230043A3A3A3A3A3E0F88C828D83A3A3A3A384
:10553300A32274F61204207E00740A120C11E012E6
:1055430055BFFF8A828B83A3A3A3A3A3A3A3A3E033
:105553006F706474026F704E8A828B83C082C083C3
:1055630088828983A3A3A3A3A3E0F5088882898300
:10557300A3A3A3A3A3A3E0FBAA08D083D082E06ADA
:105583007003A3E06B703088828983A3A3A3E0FA3E
:1055930088828983A3A3A3A3E0F9EA6C7002E96D6F
:1055A30070157E01801174036F700CE82405FCE410
:1055B30039FD121332E9FEEEF9025F41F8A3E0F977
:1055C3008882F5831255CB22A3E01313543F54036F
:1055D30022C082C0838A828B83A3A3A3A3A3A3A392
:1055E300A3E0640270169004E112560D687003A3E1
:1055F300E06970047901800F7900800BEAFCEBFD10
:105603007AD87B041213260247431265918A828B50
:1056130083E0228A828B831255CBF82274F0120422
:105623002074FC1209C3E9851882851983F074027A
:10563300120C11ECF0A3EDF08A0A8B0B75080074C1
:1056430002120C11E0240812588FC0E07401120CEE
:1056530011D0E01258DFA2E75008750EFF750FFF57
:10566300800A9004E7E0F50EA3E0F50F8518828524
:105673001983E0C2E71258E4542060071258B1744A
:105683000880041258B1E41258E454046007125815
:10569300BC748080051258BC74101258E454106016
:1056A30006125897E4800B9004F4E0C0E012589778
:1056B300D0E01258E4A2E0500375082054086006B5
:1056C30074104508F5088A828B83A3A3E024FFFEA8
:1056D300A3E034FFFFEA1258A2C39402E0400F6430
:1056E3000B6009E0148E828F831258D5740345082A
:1056F300F508750900900507E0640170118A828B33
:1057030083A3A3A3A3E0C39467400375091085187B
:1057130082851983E0F50C750D00740E780C120A5E
:10572300EFE50D4509F509E06402701B9004ECE018
:105733008E828F83F09004EBE0C0E01235A0D0E0BE
:10574300F0EE24FEFE801CE06403701DEE24F9FEDF
:10575300EF34FFFF7CFB7D04EEFAEFFB121338EE10
:1057630024FF1EEF34FFFF8003E0602F7401120C4F
:1057730011E060187414120C11E0650E7004A3E0BC
:10578300650F700874404508F508800F8E828F837B
:10579300E50FF01235A0E50E1258CB7401120C116F
:1057A300E0F50C750D00740A780C120AEFE50D454F
:1057B30009F509E0640270237402120C11125FF6FA
:1057C3008E828F83F07402120C111236D2C0E01253
:1057D30035A0D0E0F0EE24FEFE8020E064037021CB
:1057E300EE24F9FEEF34FFFF7402120C1112599BE1
:1057F300EEFAEFFB121338EE24FF1EEF34FFFF80A7
:1058030003E0601C7414120C11A3E08E828F83F0EA
:105813007414120C11E0C0E01235A0D0E01258CB82
:10582300EEF8EFF9E824FF1EE934FFFFE50A12580A
:10583300A270059004D780039004E3E0FA04F0EA31
:1058430088828983125DA3E5091258D58E82F58378
:10585300E508F0E50A2404F8E4350BF9E50A240227
:10586300FAE4350BFBEEFC8A828B83E0F508888231
:105873008983E02508C39C125EBEEEF0A3EFF0859A
:105883000A82850B83A3E4F0F9023014F582E43D28
:10589300F583E022EA2412F582E4350BF583221224
:1058A30058AB350BF583E022240DF582E422EA247C
:1058B30010F582E4350BF58322EA1258C5350BF552
:1058C30083222411F582E422F0EE24FEFEEF34FF5E
:1058D300FF22F0EE24FF1EEF34FFFF22125391E06C
:1058E30022F0EA1250E5350BF583E02274F112043D
:1058F3002074FE1209C3851882851983ECF0A3ED89
:10590300F0890B8A0E750A1A7415120C111268208D
:105913001224D28A0C8B0DAE0CAF0DEA4F605A7471
:1059230013120C11125FFB1259FAF0A3E9124A0A7F
:10593300E50BF0750A0078081208F97C0B7D00EA84
:1059430012598D12092B7411120C1112074874028B
:10595300120C1112599BA90E12359612092BE9F557
:105963000A7016E50B24F960031470061237D8D2B7
:10597300E5F0EEFAEFFB122526A90A740212092BB1
:105983007F0702067B7C0B7D00EE241BFAE43FFBC2
:10599300121182740322F583E0FCA3E0FD2274F666
:1059A30012042074F71209C3EAFEEBFF7801EA241C
:1059B30032124B2060027805EA1259FA124A077430
:1059C30004125D96AA18AB1912132CEE242F124958
:1059D300DD24311259FF1208FD74021209A3790361
:1059E3001A1A12359812092BE9F5087007EEFAEF27
:1059F300FB122526025F3A1231A0E822F582E43F2A
:105A0300123193124EDA04F078082274F212042051
:105A13008A088B09ECFEEDFF8A828B837405F0EC18
:105A2300125E2F126183F0EA2403F50AE43509F5C7
:105A33000B850A82F583E0F50CA3E0F50DEC242534
:105A4300F582E43FF583120BE2E50C1258C5350DE0
:105A5300F583120BD6EC125D8FAA0CAB0D12132C2F
:105A6300850A82850B831268A0125BF4125C1712FD
:105A73005380EE242F124B20C0E0125BFDD0E012C6
:105A83005C432415F582E438F583E4125C43124544
:105A9300F4E4125C2B850A82850B83E02416FAA3B7
:105AA300E03400FB12265E8E828F83A3A3A3A3A3FD
:105AB300A3A3E0C0E0850A82850B83124439125800
:105AC300AB38F583D0E0125C22FAA3E0FB850A82AF
:105AD300850B8312658DE8240BFCE439FD8A828BE8
:105AE30083E08C828D83125C3E8A828B83A3E0F5F4
:105AF3000B8C828D83A3E0450B125EB6A3E0FCEA18
:105B03002403FA50010BECA2E7E433C0E0E8240FCE
:105B1300F582E439F583D0E0F074075C6004780122
:105B23008002780075F00374075CA428F8EA28FA69
:105B3300E43BFBE5082405F8E43509F98A828B8305
