:020000040000FA
:060000000217E8020A7677
:03001300020B32AB
:03002B0002155F5C
:03003300020CC0FC
:03003B00020B872E
:03004B0002147329
:030053000209ABF4
:03005B000212CBC3
:030063000212EC9A
:03006B00020C661E
:03007B00020C97DD
:10008300020A0A010020FD000201FE050000000132
:10009300D41EE61E0000EC1EF21E00000000F81E37
:1000A300101F161F1C1F0000000000000000180195
:1000B300FF0D010612FFFFFFFFFFFFFF0101010418
:1000C30000B915000000E8030000FFFF0D16E80368
:1000D300000064006400B801A0BB0D00A0BB0D00CC
:1000E300020200F8FF0705021E0401051E02051E99
:1000F300020A0A0101080803102702803E0102FEDA
:10010300FFE8030A050001FFFF020A1401E00200F1
:100113000000C503423F1A51123FF304B53F0000EC
:10012300803EFFFFFF0005030101FF783E00000052
:1001330000103E00000000FF000000FF00C082C06E
:1001430083E9FA5407F8745D28F582E43484F5836F
:10015300E0F879006022EAC4540F54036008146085
:100163000914600D8012E5808002E59058700780C5
:1001730007E5A05860027901020269C082C08312B8
:10018300026E400478008003120326E8F4FCEB605F
:100193000814601214601C802BEA6005E84280801A
:1001A30023EC5280801EEA6005E842908016EC52F0
:1001B300908011E8C39420500BEA6005E842A080C8
:1001C30003EC52A0020269C082C08312026E400493
:1001D30078008003120326E8F4FCE8700302026946
:1001E300EB600814602C146050807BEC52F37401B4
:1001F3006A601274026A601574046A7003E8428FBD
:10020300E842FD806153F7DFEC528F80F343F72020
:1002130080F6EC52F474016A601274026A60157419
:10022300046A7003E842F6E842FE803A53F7BFECF3
:1002330052F680F343F74080F6E8C394205027EC4E
:1002430052F574016A601274026A601574046A706C
:1002530003E842F7E842FF800D53F77FEC52F78043
:10026300F343F78080F6D083D08222E9C4540F543D
:1002730003FB743F59C394302274F8120EBCE9C4D3
:10028300540F5403FE743F59C394304004780080E4
:1002930003120326E8F4FBE86077EE600814602B92
:1002A30014604E806CEB52F352FD74016A600F745C
:1002B300026A600F74046A7058E8428F805353F7E0
:1002C300DF800343F720EB528F8046EB52F452FE5C
:1002D30074016A600F74026A600F74046A7032E812
:1002E30042F6802D53F7BF800343F740EB52F6806D
:1002F30020E8C39420501AEB44E0FB52F552FF74FC
:10030300016A601274026A601574046A7003E84239
:10031300F77F0102124C53F77FEB52F780F343F759
:100323008080F6E95407FC745D2CF582E43484F58F
:1003330083E0F822C082C08312026E4004780080FA
:1003430003120326E8F4FCE86038EB60081460123B
:1003530014601C802DEA6005E842FD8025EC52FD07
:100363008020EA6005E842FE8018EC52FE8013E824
:10037300C39420500DEA6005E842FF800574E04C09
:1003830052FF020269C082C08312026E40047800E9
:100393008003120326E8F4FCE8603FEB6008146076
:1003A300151460228034EA6005E842808003EC5231
:1003B30080E842FD8024EA6005E842908003EC5225
:1003C30090E842FE8014E8C39420500EEA6005E8EA
:1003D30042A08003EC52A0E842FF020269743F5935
:1003E300C394305042E9C4540F540360071460139C
:1003F300146020227801E8F4FBEA602414601814E6
:10040300601922740F59C394045004780280E7786A
:100413000480E3780880DFE8428C22E58C5860048E
:10042300EB528C22E8428C221217F8601D12180737
:100433007005191919801A121661701F121689C3D3
:100443007003E667331919194007181818220808AA
:100453000874FFF618F618F618F6221216896017B4
:100463001218AD702192F01218B67019501720F0BF
:1004730014080808090909E7F61819E7F61819E72F
:10048300F61819E7F6221218B660E6E869701F0835
:1004930008E62480F608E436F618547FB47F0CE6A9
:1004A30054806007F6E418F618F622181822E9C6F5
:1004B300CC08C6CD08C6CE08C6CFC0E0E8C0E0EA87
:1004C300C0E0EBC0E009E9F809E7FA09E7FBE6F960
:1004D30018E6F8C3EC98ED99EE9AEBC2E7F5F0EF66
:1004E300C2E795F0500E600CEBCFFBEACEFAE9CDF4
:1004F300F9E8CCF8EAA2E7D2E7FAEB33FB13F5F01D
:10050300EEA2E7D2E7FEEF33FFC5F013A2E730E632
:1005130001B313C5F0C3C0E0C0F07F00C39BFB6011
:100523005E9418600F401D14601AD0E023F9D0E0E8
:10053300F802060C8AF0E9486003D2F0E4AFF0FA5F
:10054300F9F8803BEB30E40D89F0EA6003D2F0E484
:10055300AFF0F9CAF8EB30E30D88F0EF6002D2F0A8
:10056300AFF0E4CAC9F8EB54076014FBC3EA13FA0B
:10057300E913F9E813F8EF135002D2E0FFDBEDD0F3
:10058300E0C0E030E739C3E49FFFF5F0EC98FC42AC
:10059300F0ED99FD42F0EE9AFE42F0D0E0F9D0E0A2
:1005A300F8E5F0607AE923F9EE20E742D8028067A4
:1005B300C3EF33FFEC33FCED33FDEE33FE80EAECA7
:1005C30028FCED39FDEE3AFED0E023F9D0E0F84007
:1005D30002801BC3EE13FEED13FDEC13FCEF13506F
:1005E30002D2E0FF08B800067F7F74FF802EEF334E
:1005F30050178CF020F00260100CBC000C0DBD00F5
:10060300080EBE000408E860DFE933E813FFEE23B9
:1006130013FE4F4D4C8008E95480FFE4FEFDFCEED1
:1006230033EF33F47004FCFD7E80D0E0FBD0E0FABE
:10063300D0E0F8D0E0CFC618CEC618CDC618CCC6C9
:10064300F9221217F8700418181822121807700DDF
:1006530074FFF61819F61819F61819F622E75480DC
:1006630066F61218B6700F1218AD70F014F608F68D
:1006730008F608F680D11218AD700CF608F6087665
:100683008008E6447F80EC12168C700C12166460AE
:10069300BFE65480F6E480BB12166470051919197D
:1006A30080A5E869700C763F18768018F618F6E88E
:1006B300F922E6CDC0E018ECC0E0E633CD33CDD36C
:1006C30013F6E719FCE7191933CC33C3947F400EB3
:1006D300CD9D502408E65480F6E418F6800FF40408
:1006E3003D14501408E6447FF6187680E418F61893
:1006F300F6D0E0FCD0E0FD22CCD313CCFD18E4C649
:10070300CBC0E018E4C6CAC0E00808ED08C633E66B
:1007130013F618E433C675F003C3CA97CA09CB9717
:10072300CB199C40047D08802EBD00030207EE1602
:10073300B6FF050606081618C3CA33CACB33CB3334
:10074300CA27CA09CB37CB193CC37D08803E187D25
:100753000820E75CC633C6CA33CACB33CB33DDF1DB
:10076300D5F0EB30E77BCA97CA09CB974ACB199CE4
:10077300406F4B7025E620E0218066187D08C3CAD0
:1007830097CA09CB97CB199CD3C633C6CA33CACBF6
:1007930033CB3350C9DDE7D5F0E1D3E4C636C60821
:1007A300C636C608C636C608C636C61818188031F7
:1007B300C3CA97CA09CB97CB199CB34097C633C614
:1007C300CA33CACB33CB33DD34D5F02EC6A2E0C651
:1007D30040C8CA27CA09CB37194A70BECB3CB4807C
:1007E300B90808E63308E633601F181818D0E0FA92
:1007F300D0E0FBD0E0FCD0E0FD22187D08CA27CA78
:1008030009CB37CB193CD3808013F618E4B67F119C
:10081300F618B6FF0EF618C60470D2080876808064
:10082300CAF618F618F680C5001217F8604F1218AA
:10083300076012E7548066F612166170111218AD44
:10084300703B090909F4F618F618F618F622121681
:100853008970151218B608080860EAE6447FF6188E
:10086300768018E4F618F6221218B660161218AD40
:100873007012E4F608F608F608E65480F60909094A
:1008830018181822EAC0E0EBC0E0ECC0E0EDC0E0CD
:10089300E687F0A4FBACF008E687F0A42CFCE43573
:1008A300F0FA1809E687F0A42C4B60027401CA35EC
:1008B300F0FCE433FB09E687F0D2F7A42CCB35F048
:1008C300FC1908E687F0A42BCC35F0FBE433FD08D4
:1008D30019E687F0D2E7A42C4ACB35F0CD3400FCDF
:1008E30009E687F0D2E7A42DCC35F0FDE433FA090D
:1008F30018E687F0D2F7A42CCD35F0CA3400FC08F3
:10090300E687F0D2E7D2F7A42ACC35F07A7E20E747
:100913000B0ACB33CBCD33CDCC33CC33CB335014C9
:100923007004ED30E00ED2F1E4CD3DCDCC3CCC3BB8
:100933005005DA05C2F1EB547FC63308E63392F073
:10094300FBE73309E733C39A502D2B70190C0D4C79
:100953004D70151806E608C333700D20F10AA2F096
:1009630013F6E418800B4024E4F630F00276801886
:10097300F618F618F68024D33B14501074FFA2F037
:1009830013F6187680E418F618F6800FA2F013F623
:1009930018E63303F618ECF618EDF6D0E0FDD0E0D8
:1009A300FCD0E0FBD0E0FA22C0E074F1120F22A2E7
:1009B300AFE433F509D2AF85A708AFA1EF5508FE21
:1009C30074105E6006121BB675A1EF74085E6008B2
:1009D300121BBC75A1F78024EFA2E092F0E508A2F8
:1009E300E082F05017906198E0F890056CE0C398AE
:1009F300A2D265D0335002E8F075A1FEE509A2E06A
:100A030092AF7F02020F81C0E074F2120F22A2AFF5
:100A1300E433FED2AF9061A4E0F8759B00E59158F2
:100A2300540860087591F7121C048023E59158540B
:100A33001060087591EF121C0A8014E591A2E092F0
:100A4300F0E8A2E082F05007E0C2E0F0121D6090EF
:100A530061A3E0F8E5E9585404600E121D3675E908
:100A6300FB906193E0A2E640F2EEA2E092AF7F0139
:100A7300020F81C0E074F2120F22A2AFE433FED260
:100A8300AF9061A5E0F8E5BF585404600675BFFB5D
:100A9300121D7880D4C3E498F8E499F9120AD98036
:100AA30026C3E49AFAE49BFBE920E7E9120AD9E4B6
:100AB30098F8E499F922C3E498F8E499F9120AD969
:100AC300E498F8E499F9C3E49AFAE49BFB22EB2057
:100AD300E7CFE920E7E0B90010BB0008E88AF0841B
:100AE300F8AAF022E4FBC8FA22EB70227B10C83389
:100AF300C8C933C9335007C39AC3DBF280069A507F
:100B0300012ADBEAC833F4C8C933F4C9FA2275F001
:100B130008E4C833C8C933C933C99AC99B5004C947
:100B23002AC93BD5F0ECFBC833F4C8E4C9FA22C0A8
:100B3300E0C0D0E8C0E0E9C0E0C082C083A8C1E85B
:100B4300C0E09004D9E0F8745828F582E43404F541
:100B530083D0E0F09004D8E0F8A3E0687006E59550
:100B63009004DBF09004D9E004F0C394804002E4E5
:100B7300F0A374C6F0D083D082D0E0F9D0E0F8D0EF
:100B8300D0D0E032C0E0C0D0E8C0E0E9C0E0C0822D
:100B9300C08390055CE0F8A3E0687008539AFBA358
:100BA30074018022C2E990055CE0F8740128F074B6
:100BB300DC28F582E43404F583E0F5C190055CE0BC
:100BC300C394804002E4F080AC120C1730F0391269
:100BD3000C5C8034120C1720F01430E72B74FFFCEC
:100BE300FBFA747F8022E4FCFBFA7480801AB480E1
:100BF30008BC00F2BB00EF800F50EBF9E4C39AFA94
:100C0300E49BFBE49CFCE499C6CC18C6CB18C6CA8B
:100C130018C6F922E4C9C608CAC608CBC6D333032B
:100C230008CCC63392F0C3947F402E94184019C960
:100C3300B90704CACBCC225025C309CA33CACB3364
:100C4300CBCC33CC33D9F422F4600DC9CCC313CB52
:100C530013CBCA13CAD9F6CC22E4FCFBFA2214FC48
:100C6300FBFA22C0E074F2120F22A2AFE433FED2E9
:100C7300AF900712E05589600FE589FA79001220D9
:100C830036900712E0F45289C2C5EEA2E092AF7F1C
:100C930001020F81C0E074F2120F22A2AFE433FE0F
:100CA300D2AF900713E0558A600FE58AFA790112F3
:100CB3002036900713E0F4528AC2EB80CDC0E07473
:100CC300F2120F22A2AFE433FED2AF900714E05525
:100CD3008B600FE58BFA7902122036900714E0F44B
:100CE300528BC2E880A4080808EAC0E0EBC0E086A3
:100CF300F0E7A4FA180986F0E7A42AFA180986F09F
:100D0300E7A42AFA180986F0E7A42AFA1986F0E775
:100D1300A4FBE5F02AFA190886F0E7A42BFBE5F01B
:100D23003AFA190886F0E7A42BFBE5F03AFA18180B
:100D33000986F0E7A4C5F02BFBE43AFA1908E7C5E6
:100D4300F0C6A426F6E5F03BFBE43AFA1886F0E792
:100D5300A4F6E5F00826F6E43B08F6E43A08F6D0F4
:100D6300E0FBD0E0FA22080808E630E7111216C5C6
:100D7300120D81080808C64480C6181818221818CE
:100D830018E9799EC608CAC608CBC608CCC6C37084
:100D9300207996CACBCC7019798ECBCC7013798617
:100DA300CC700EF9802ACA33CACB33CBCC33CC33C5
:100DB3001930E7F2CCCBCA3350147004EA30E00D9B
:100DC300E4CA3ACACB3BCBCC3CCC500209C3E913AF
:100DD300C6CC182313C6CB18C6CA18C6F922E4CF4B
:100DE300C0E0E4CEC0E0E4CDC0E0E4CCC0E075F008
:100DF30020E626F608E633F608E633F608E633F689
:100E0300181818EC33FCED33FDEE33FEEF33FFC35C
:100E1300EC9709ED9709EE9709EF97191919400F08
:100E2300FFEC97FC09ED97FD09EE97FE191906D51E
:100E3300F0BFECF709EDF709EEF709EFF719191908
:100E4300D0E0FCD0E0FDD0E0FED0E0FF222518C5C5
:100E530082C0E0E51934FFC583C0E0E518C395827D
:100E630024F810AF088583198582188008858319B3
:100E7300858218D2AFCEF0A3E520F0A37808E60868
:100E8300F0A3DEFAEFF0A3E58124FAF8E608F0A375
:100E9300E608F0A3E608F0A30808E608F0A3E608CE
:100EA300F0A315811581D0E0FED0E0F815811581FE
:100EB3001581E8C0E0EEC0E0222518C582C0E0E558
:100EC3001934FFC583C0E0E518C3958224F910AF38
:100ED300088583198582188008858319858218D22D
:100EE300AFCEF0A3E520F0A37808E608F0A3DEFA7E
:100EF300EFF0A3E58124FBF8E608F0A3E608F0A3EE
:100F03000808E608F0A3E608F0A315811581D0E0F0
:100F1300FED0E0F815811581E8C0E0EEC0E022C004
:100F2300D02518C582C0E0E51934FFC583C0E0E5CC
:100F330018C3958224F310AF08858319858218801E
:100F430008858319858218D2AFC8F0A3E9F0A3EA14
:100F5300F0A3EBF0A37908E709F0A3D8FAECF0A328
:100F6300EDF0A3EEF0A3EFF0A3D0E0F0A3D0E0F018
:100F7300A3D0E0F0A3E520F0A3E5F0F0A3228519C8
:100F830083851882E0C0E0A3E0F9A3E0FAA3E0FBC5
:100F9300A37808E0F608A3DFFAE0FCA3E0FDA3E0F2
:100FA300FEA3E0FFA3E0C0E0A3E0C0E0A3E0F5D030
:100FB300A3E0F520A3E0A3F5F010AF08858319851E
:100FC30082188008858319858218D2AFD082D08396
:100FD300D0E0F8D0E0321216C8181818120DE1123A
:100FE300179719191922121797191919080808E6DA
:100FF30018181820E7E0120DE11216C81818182265
:10100300090909E719191920E7DC080808E618187F
:101013001820E703020DE11216C8181818120DE183
:101023001216C81818181217971919192212189896
:10103300B9000302106FE4900401787C79158002F3
:10104300F0A3D8FCD9FA7A7C7B1890008678BB7918
:10105300018015E493A3AD82AE838A828B83F0A3D0
:10106300AA82AB838D828E83D8E9D9E775828C758A
:10107300839574071214F075828875833774001290
:1010830014F0E4730475F0108E1A8F1B85821F858C
:10109300831E851882851983E0CEA3E0CF851F8246
:1010A300851E83EBC9EAC8EDCBECCAC3E833C8E9B4
:1010B30033C9EA33CAEB33CBC3EA9EF51DEB9FF585
:1010C3001CB35004AB1CAA1DEC33CCED33CDD5F0CF
:1010D300DAAE1AAF1B221217F8601C12180760173A
:1010E3001218B670071218AD7001D322C0D01218AF
:1010F300AD7006D0D0B322C32233D0D0501430E029
:10110300F6C3E7960809E7960809E7960809E796FC
:10111300B32220E0D5E6970809E6970809E6970881
:1011230009E697B322D083D082ECC0E0EDC0E0E4BF
:1011330093A3FCE493A3FDED4C600D12128CEC24FD
:10114300FFFCED34FFFD80EFE493A3FCE493A3FDE8
:10115300ED4C600D121393EC24FFFCED34FFFD8086
:10116300EFD0E0FDD0E0FCE493A3C0E0E493C0E063
:10117300221217F8601B12180760161218B67007B0
:101183001218AD600CB322C0D01218AD7005D0D0C8
:1011930022C32233D0D0501330E0EBC3E7960809C3
:1011A300E7960809E7960809E7962220E0E4E69720
:1011B3000809E6970809E6970809E69722D083D03D
:1011C30082E9C0E0E493A3C386F0C5F095F0F90883
:1011D300E493A386F0C5F095F0700BE493A3C39951
:1011E3004005E9048002A3E475F002A42582F58298
:1011F300E5F03583F583D0E0F9E493A3C0E0E4930D
:10120300C0E022851983851882E0A3FEE0A3F520C0
:101213007808E0A3F608DFFAE0A3FFE0A3C0E0E06C
:10122300A3C0E0E0A3C0E0E0A3C0E0E0A3C0E010FF
:10123300AF088582188583198008858218858319EC
:10124300D2AFD083D0820214F6851983851882E049
:10125300A3FEE0A3F5207808E0A3F608DFFAE0A3F5
:10126300FFE0A3C0E0E0A3C0E0E0A3C0E0E0A3C0D0
:10127300E010AF0885821885831980088582188558
:101283008319D2AFD083D08222C0E0C3E4939608FF
:101293007401939618400FE49366700808740193E1
:1012A300661870007019A3A3C3E49396087401939E
:1012B3009618A3A3400DD0E0D0E0D0E0021164A3C0
:1012C300A3A3A3A3A3D0E022C0E074F2120F22C20F
:1012D300D99018B0E0C39400A2D265D0334005E0A2
:1012E300F91224687F01020F81C0E074F2120F2209
:1012F300C2DC9018B2E0F9C39400A2D265D03340A7
:101303000312246880DE7404800474028000CCC05D
:10131300E0EDC0E0E518C39CCCAD1950011D10AF42
:10132300068C188D1980068C188D19D2AF121452A1
:10133300D0E0FDD0E0FC2274028000CCC0E0EDC020
:10134300E0E518C39CCCAD1950011D10AF068C18F5
:101353008D1980068C188D19D2AF12140ED0E0FDB2
:10136300D0E0FC221217F86025121807602012182B
:10137300B670030218AD080808E76670101819E77D
:1013830066700A1819E76670041819E76622F422D2
:10139300C0E0C0F088F0E4936670080874019366B7
:1013A300187000A8F0A3A3700BD0F0D0E0D0E0D069
:1013B300E0021164A3A3D0F0D0E022D083D082CC8A
:1013C300C0E0E493A360061214D11470FAE493A36B
:1013D30060061215F61470FAD0E0FCE493A3C0E0A3
:1013E300E493C0E022C008C3E096F50808A3E096A2
:1013F300420808A3E096420808A3E0964208A2D256
:1014030065D033E5087001D3D00822CAC0E0E49365
:10141300A3C582CCC582C583CDC583F0A3C582CCC9
:10142300C582C583CDC583DAE5D0E0CA22A2E7929F
:10143300D65002F40430F70663F0FF05F0B340031F
:1014430084800384F40430D60563F0FF05F022CAD8
:10145300C0E0E0A3C582CCC582C583CDC583F0A31C
:10146300C582CCC582C583CDC583DAE6D0E0CA2266
:10147300C0E0C0D0C082C08375AF00900751E024A4
:1014830001F0A3E03400F0D083D082D0D0D0E0329A
:101493007009080808226016181818C6C333C6084E
:1014A300C633C608C633C608C633C6D5E0EA22C06B
:1014B30008C3E096F50808A3E096420808A3E0965F
:1014C300420808A3E09645087001D3D00822C0E083
:1014D300E493A3D39C5010E493A3C39C400AD0E0AD
:1014E300D0E0D0E00213DBA3A3A3D0E022C09FF59A
:1014F3009FE473D09F22D083D082C09FE493C0E047
:10150300740193C0E0740293F59F227404800A74FB
:10151300038006740280027401C0E0F404121529EA
:10152300D0E0121843222518F58210AF08F51840B1
:101533000C15198008F51840021519D2AF851983C7
:101543002200C0D0251810AF08F518500C051980DB
:1015530008F51850020519D2AFD0D022C0E0C0D090
:10156300E8C0E0A8A8D2AFC2C7E8A2E792AFD0E034
:10157300F8D0D0D0E032BB0102E722C082C0838919
:10158300828A83BB0003E08002E493D083D082226B
:101593006017080808C6A2E713C618C613C618C6FC
:1015A30013C618C613C6D5E0E9226016080808C694
:1015B300C313C618C613C618C613C618C613C6D592
:1015C300E0EA222518F8E43519F9222518FAE4355A
:1015D30019FB222518FCE43519FD22C3E0C696F653
:1015E30008A3E0C696F608A3E0C696F608A3E0C6ED
:1015F30096F622C0E0E493A36C7009D0E0D0E0D06B
:10160300E00213DBA3A3D0E022251810AF08F518DE
:10161300400C15198008F51840021519D2AF22C3E2
:10162300E09608A3E09608A3E09608A3E096A2D26A
:1016330065D03322E76670100809E766700A080967
:10164300E76670040809E76622E066701008A3E005
:1016530066700A08A3E066700408A3E066221818FF
:1016630018E60846087009E626087005E633F422F2
:101673000822C3E493960874019396087402939620
:10168300087403939622191919E70947097009E7A2
:1016930027097005E733F4220922C3E096F008A373
:1016A300E096F008A3E096F008A3E096F022C3E6E4
:1016B30097F60809E697F60809E697F60809E69704
:1016C300F622181818E4C396F608E496F608E4968A
:1016D300F608E496F622E026F608A3E036F608A319
:1016E300E036F608A3E036F622E627F60809E637E1
:1016F300F60809E637F60809E637F622E493F60812
:10170300740193F608740293F608740393F622E6C1
:1017130057F60809E657F60809E657F60809E657A3
:10172300F622E056F608A3E056F608A3E056F608BC
:10173300A3E056F622E647F60809E647F60809E667
:1017430047F60809E647F622700422600D18C6C35F
:1017530033C608C633C6D5E0F41822E667F608098F
:10176300E667F60809E667F60809E667F622E02663
:10177300F008A3E036F008A3E036F008A3E036F063
:1017830022E056F008A3E056F008A3E056F008A3C1
:10179300E056F022E4C397F709E497F709E497F7D3
:1017A30009E497F722600D08C6A2E713C618C6130B
:1017B300C6D5E0F322C6F4C608C6F4C608C6F4C606
:1017C30008C6F4C622C3E09608A3E09608A3E096F1
:1017D30008A3E09622C3E7960809E7960809E79667
:1017E3000809E7962275D00075813F7518017519B0
:1017F3000400021030E6084608C3134608336002AB
:10180300E633F422E7094709C3134709336002E7C4
:1018130033F422600C08C6C313C618C613C6D5E03A
:10182300F422E6F008A3E6F008A3E6F008A3E6F046
:1018330022E0F608A3E0F608A3E0F608A3E0F62208
:10184300CAC0E0E6F0A308DAFAD0E0FA22E0FCA38B
:10185300E0FDA3E0FEA3E0FF22EAF0A3EBF0A3EC9C
:10186300F0A3EDF022E0FAA3E0FBA3E0FCA3E0FD8C
:1018730022E8F0A3E9F0A3EAF0A3EBF022ECF0A353
:10188300EDF0A3EEF0A3EFF022E0F8A3E0F9A3E07C
:10189300FAA3E0FB22E5C754F84401F5C779012216
:1018A3002518F582E43519F58322E72719471947E7
:1018B300194722E62618461846184622C2AF75D69F
:1018C3009F020000221214F9C2C9051214F92CCA8E
:1018D300051214F992CB051214F9BCAF071214F9CF
:1018E30011A8051214F963A8051214F9BFA805126B
:1018F30014F94DA9051214F9A9A9051214F9D3ACC9
:10190300051214F901AF051214F92EB0051214F9DA
:10191300F082071214F95A83071214F97B83071212
:1019230014F9B983071214F9FE83071214F92484F6
:10193300071214F92D84071214F9DB84071214F922
:101943003F85071214F9137F001214F942AF0712EF
:1019530014F95DAF071214F94ECA041214F92DCB12
:10196300041214F92DCC041214F901CD041214F944
:10197300E3CF041214F947D0041214F9DAD1041294
:1019830014F992D2041214F9A3D3041214F92ED524
:10199300041214F90080061214F90E80061214F9C9
:1019A3001F81061214F9CF81061214F95B83061204
:1019B30014F9A485061214F90080071214F98A8019
:1019C300071214F99581071214F9B181071214F95A
:1019D30038A6071214F949A6071214F90EA707121D
:1019E30014F91DA7071214F928A7071214F9F67F93
:1019F300001214F9E7FF031214F928AB071214F9C4
:101A030038AB071214F94DAB071214F9B3AB071235
:101A130014F940A7071214F9C3A7071214F929A848
:101A2300071214F99191071214F9CC91071214F9C2
:101A33002892071214F98092071214F907930712D8
:101A430014F94393071214F995B0071214F9A5B0CA
:101A5300071214F927E7061214F98AE7061214F994
:101A6300D9E7061214F906E8061214F95CE806121F
:101A730014F984AF071214F95C88071214F9A688C5
:101A8300071214F93C89071214F9C289071214F9D1
:101A9300F389071214F90B8A071214F97F8A0712C4
:101AA30014F9958A071214F9A88A071214F9B28A4D
:101AB300071214F9CF94051214F9299A051214F98F
:101AC3005B9A051214F9879A051214F9149B0512EF
:101AD30014F9FB9C051214F968EC041214F9D4EC04
:101AE300041214F984ED041214F94FEE041214F9DC
:101AF300A5EF041214F993F0041214F99AF10412E5
:101B030014F998F3041214F9CBF3041214F935F40D
:101B1300041214F95CF4041214F9D9F5041214F93B
:101B23004BF6041214F980F6041214F994F6041215
:101B330014F90AF7041214F9F5D5051214F96CD83F
:101B4300051214F9CDD9051214F9D4DB051214F9D1
:101B5300A8B5061214F9D4B5061214F945B806123D
:101B630014F985B8061214F9C5B8061214F9D9B8D0
:101B7300061214F9F2B8061214F9E3B9061214F9AD
:101B830088BA061214F99CBA061214F9939D071227
:101B930014F9B79D071214F9D09D071214F9029E88
:101BA300071214F9329E071214F95F9E071214F9F3
:101BB300C19E071214F9D09E071214F9DA9E071278
:101BC30014F9E79E071214F9C685071214F9E6857E
:101BD300071214F92586071214F94086071214F91F
:101BE3005F86071214F9C586071214F9CE86071209
:101BF30014F92B87071214F94F87071214F9108869
:101C0300071214F91D88071214F92E88071214F904
:101C13002DAE071214F945AE071214F971AE07126F
:101C230014F97AC9061214F9CECA061214F9DCCAD9
:101C3300061214F9EFCA061214F904CB061214F9AA
:101C430019CB061214F92CCB061214F9A0CB0612E9
:101C530014F905CC061214F9A7CC061214F96BCDAE
:101C6300061214F97BCD061214F98ACD061214F963
:101C7300F9A9071214F91DAA071214F945AA0712A4
:101C830014F96DAA071214F96E8F071214F9958FC0
:101C9300071214F9B38F071214F92690071214F9D7
:101CA30032FB061214F94BFB061214F957FB06120A
:101CB30014F96BFB061214F989FB061214F993FB52
:101CC300061214F99DFB061214F9B0FB061214F95F
:101CD3003AFC061214F9AFFC061214F9E3FC0612DF
:101CE30014F931FD061214F97EFD061214F999FD5B
:101CF300061214F9A3FD061214F9C9FD061214F90C
:101D03002EFE061214F942A9071214F964A9071248
:101D130014F97BB0071214F9939E051214F9BD9EB2
:101D2300051214F9DA9E051214F9ED9E051214F941
:101D3300039F051214F9619F051214F9999F051267
:101D430014F991A3051214F9D6A4051214F909A5DF
:101D5300051214F96CA5051214F9E5A6051214F978
:101D63000DA7051214F922A7051214F932A70512BB
:101D730014F976A7051214F9D1A7051214F9E1A7EE
:101D8300051214F9DEA2071214F9F8A2071214F9C6
:101D930020A3071214F939A3071214F95DA307123C
:101DA30014F97BA3071214F992A3071214F9C0A321
:101DB300071214F9DBA3071214F9FEAE071214F984
:101DC3001CEB061214F92CEB061214F931EC061273
:101DD30014F963EC061214F989EC061214F9ACEC4D
:101DE300061214F9C3EC061214F9FDEC061214F9E9
:101DF30062ED061214F9A4ED061214F9E3ED0612CE
:101E030014F914EE061214F94BEE061214F9858D2B
:101E1300061214F95B8E061214F9868E061214F953
:101E2300A38E061214F99E8F061214F9E08F061280
:101E330014F94E90061214F9A090061214F90891A1
:101E4300061214F9EA91061214F9C392061214F950
:101E530004DF061214F959DF061214F9CEDF061255
:101E630014F9E1DF061214F908E0061214F9ABE0E5
:101E7300061214F98CE1061214F992DE051214F914
:101E8300BDDE051214F988DF051214F9CFDF051240
:101E930014F960E0051214F9D9E3051214F94CE5BD
:101EA300051214F90D9A031214F94D9A031214F939
:101EB3004C9C031214F9729C031214F95E9F0312D3
:101EC30014F99AA0031214F92BA4031214F995A47C
:101ED300031214F92FA5031214F982A5031214F99E
:101EE300EAA5031214F93AA6031214F96CA6031215
:101EF30014F96FA6031214F97FA6031214F991A61D
:101F0300031214F9E0A6031214F99DA8031214F99D
:101F13000AA9031214F950A9031214F9ECA9031224
:101F230014F972AA031214F96EAC031214F90DAE6C
:101F3300031214F954AF031214F932B0031214F953
:101F4300E3B1031214F9229C071214F93C9C071203
:101F530014F97E9C071214F9B19C071214F9CB9C57
:101F6300071214F9E49C071214F9269D071214F9B9
:101F73005B9D071214F9B899061214F9E999061230
:101F830014F93D9A061214F90D9B061214F9439B9A
:101F9300061214F9709B061214F9C29B061214F967
:101FA300E09B061214F9049C061214F92A9C0612EB
:101FB30014F9AC9C061214F9369D061214F9679DA8
:101FC300061214F9AD9D061214F9CB9D061214F9ED
:101FD300F99D061214F91D9E061214F9539E06125A
:101FE30014F9B29E061214F9D49E061214F9339F03
:101FF300061214F96C9F061214F97A9F061214F94B
:1020030006CD051214F940CD051214F97FCE051241
:1020130014F9AFCF051214F9CFD5051214F9C693ED
:10202300061214F9AF94061214F9F094061214F977
:102033009F95061214F92EA5071214F99FA50712EE
:1020430014F904A6071214F9B58A051214F9D48BEE
:10205300051214F94C8D051214F9938E051214F917
:10206300EB8E051214F92B8F051214F9398F051213
:1020730014F9698F051214F9F98F051214F9969062
:10208300051214F9A291051214F93E93051214F9DD
:10209300C494051214F9DEF1061214F939F206128A
:1020A30014F972F2061214F95AF4061214F986B0EE
:1020B300061214F9CBB0061214F901B1061214F981
:1020C30028B2061214F9CDB3061214F93AB4061263
:1020D30014F98AB5061214F9D9A1041214F9DDA270
:1020E300041214F94DA3041214F933A4041214F9BD
:1020F3007FA4041214F9E7A7041214F92FA80412F9
:1021030014F9FCA8041214F946A9041214F97DA9C0
:10211300041214F9E6A9041214F92BAA041214F9EF
:102123007DAA041214F9CFAA041214F928AB0412DD
:1021330014F98BAB041214F9F9AB041214F94EAC75
:10214300041214F93FAD041214F9A4AD041214F9E6
:1021530083AE041214F97297071214F97D970712CC
:1021630014F9BA97071214F9DF97071214F9FB97BA
:10217300071214F91098071214F9C3CD061214F9B3
:10218300D2CE061214F97ACF061214F974D00612BD
:1021930014F995D0061214F9AFD0061214F951D1DF
:1021A300061214F982D1061214F902D2061214F996
:1021B30024F7041214F986F7041214F91AF8041216
:1021C30014F9A9F9041214F9EAFC041214F900FD34
:1021D300041214F9C2FD041214F9F19E071214F942
:1021E300039F071214F917A0071214F91AA0071274
:1021F30014F998A1071214F9CEA1071214F9E8A152
:10220300071214F92AA2071214F93AA2071214F9B1
:10221300D4A2071214F92EF6051214F938F6051292
:1022230014F972F6051214F9DBF6051214F9F8F62F
:10223300051214F99AF7051214F9A3F7051214F904
:10224300E8F7051214F911F8051214F91EF805122E
:1022530014F98FF8051214F91AF9051214F968F92B
:10226300051214F9A6F9051214F90BFA051214F95B
:102273002EFA051214F9A5FA051214F9FCFA05123F
:1022830014F937FB051214F96CFB051214F97EFBE4
:10229300051214F990FB051214F9AFFB051214F99A
:1022A300B8FB051214F973FC051214F9BFFC0512EF
:1022B30014F9FDFC051214F9AEBF061214F9EEC0B1
:1022C300061214F911C1061214F922C1061214F9E7
:1022D30021C3061214F941C3061214F960B00712A0
:1022E30014F928F8061214F96CF8061214F9B4F864
:1022F300061214F99AFA061214F929FB061214F9B4
:1023030044AC071214F90080041214F92481041256
:1023130014F95E81041214F90883041214F9328348
:10232300041214F9A785041214F9E785041214F9A9
:102333007D87041214F91A88041214F96C880412A4
:1023430014F90F89041214F94789041214F98989BD
:10235300041214F9F88A041214F9468C041214F9BD
:10236300778E041214F9A58E041214F9CC8E04127C
:1023730014F9D58E041214F9258F041214F9B78FAA
:10238300041214F9E692041214F96993041214F96D
:10239300E7FF011214F923E3061214F939E30612D5
:1023A30014F9DDE3061214F91CE4061214F939E4F6
:1023B300061214F96AE4061214F9B7E4061214F9C2
:1023C300EAE4061214F925E5061214F91AE70612CF
:1023D30014F993A5061214F939A7061214F97AA869
:1023E300061214F992A8061214F92AD2061214F945
:1023F30061D3061214F9C0D4061214F9CBBA05122C
:1024030014F9F7BA051214F931BB051214F9F7BD23
:10241300051214F94FBE051214F999BE051214F9E9
:10242300BDBE051214F93AC0051214F997C005127E
:1024330014F9F4C2051214F90FE7051214F938E878
:10244300051214F937E9051214F97BEA051214F998
:102453009AEB051214F96CEC051214F99193071217
:1024630014F95F94071214F9ABEC021214F970ED2E
:10247300021214F97BED021214F924EE021214F97C
:1024830083EE021214F97FF0021214F9EFF0021234
:1024930014F9F4F2021214F92DF3021214F9D3F51C
:1024A300021214F9FBF5021214F985F6021214F95B
:1024B30000F7021214F963F8021214F9C0F80212B9
:1024C30014F93EF9021214F92DFE021214F977C41D
:1024D300061214F99EC4061214F9ACC6061214F9B6
:1024E300D3C6061214F928C7061214F9F6C7061242
:1024F30014F96EC8061214F9C58A071214F9DD8A95
:10250300071214F9DC8B071214F9E38B071214F981
:102513000C8C071214F942A8071214F9A1A8071288
:1025230014F9DFA8071214F920A9071214F956ABFE
:10253300061214F97CAB061214F9BCAC061214F99A
:10254300B1AD061214F9D8AD061214F971AE061224
:1025530014F9C5AE061214F9E0AF061214F9A89FD8
:10256300061214F94AA0061214F96AA1061214F904
:10257300BCA2061214F97AA4061214F99DE10412FE
:1025830014F9F1E1041214F91BE3041214F947E4FA
:10259300041214F935E5041214F9D1E7041214F9FD
:1025A30088E9041214F9D3E9041214F9E1EB0412D3
:1025B30014F94EFC011214F9A1FC011214F924FDC3
:1025C300011214F9B0FF011214F947A0071214F90C
:1025D300C1A0071214F9DCA0071214F94FFE02126E
:1025E30014F952FF021214F9BAFF021214F939FE58
:1025F300061214F984FE061214F9D4FE061214F915
:10260300EFFE061214F99B9A071214F9F69A0712B1
:1026130014F9F29B071214F91D8D071214F9868D14
:10262300071214F9FC8D071214F9178E071214F907
:10263300B693041214F92794041214F98E94041215
:1026430014F92C95041214F92796041214F95B96C5
:10265300041214F98898041214F97799041214F9DE
:10266300E699041214F9249A041214F92A9B041209
:1026730014F9E19B041214F91E9C041214F9889CAA
:10268300041214F9D99C041214F9739E041214F958
:10269300AD9E041214F9B6AC071214F9F5AC071287
:1026A30014F90FEF051214F96CEF051214F94AF03F
:1026B300051214F97EF1051214F9AEF1051214F99D
:1026C300EAF2051214F947F3051214F90FF405128F
:1026D30014F987F4051214F9E1AF071214F9F4AFF2
:1026E300071214F90EA4071214F91DA4071214F902
:1026F3007DA4071214F905B0071214F90BB00712E1
:1027030014F911B0071214F93FD6041214F9AAD61A
:10271300041214F9ADB8031214F9DAD8041214F937
:1027230049D9041214F9F7D9041214F9D0DA0412AE
:1027330014F9BFDB041214F915DD041214F968DF70
:10274300041214F9CF41001214F9DB41001214F9F9
:102753003D42001214F94742001214F9DA42001202
:1027630014F91643001214F9D243001214F9E54385
:10277300001214F93544001214F9C444001214F978
:10278300FA44001214F97C45001214F92B47001285
:1027930014F9FF48001214F9E549001214F9374BF4
:1027A300001214F98D4D001214F9F64E001214F9AB
:1027B30060C9051214F93B54001214F9295500128B
:1027C30014F9C755001214F9F355001214F98F5672
:1027D300001214F9A456001214F9C856001214F981
:1027E3002E57001214F94B57001214F975570012A3
:1027F30014F9F258001214F91359001214F99959E3
:10280300001214F93F5A001214F9865A001214F9EF
:10281300F95A001214F9855B001214F9E95B0012EE
:1028230014F9495C001214F9DF5C001214F95A5DC3
:10283300001214F98D5D001214F9EF5D001214F902
:10284300515F001214F9C15F001214F97060001295
:1028530014F9C661001214F95E62001214F9CA6217
:10286300001214F90D65001214F99966001214F997
:10287300C466001214F9AA68001214F9406A00121F
:1028830014F9496B001214F9E5AF041214F99CB062
:10289300041214F9A3B1041214F921B2041214F9A5
:1028A30063B3041214F984B3041214F93CB404128C
:1028B30014F9E7B4041214F9C7B8041214F9E3BA0B
:1028C300041214F94ABC041214F9BAAE071214F92B
:1028D3000080031214F95880031214F9DE800312E6
:1028E30014F9F081031214F93D82031214F92383BE
:1028F300031214F93A83031214F98C83031214F9A3
:10290300C483031214F9D783031214F92D84031219
:1029130014F98684031214F99E84031214F90E87A2
:10292300031214F9A587031214F9CF87031214F9BC
:102933000788031214F92D8A031214F9738A0312F8
:1029430014F9BD8A031214F9918B031214F9D28B73
:10295300031214F9F58B031214F93C8C031214F9C6
:102963005E8C031214F9DF8C031214F96C8D0312BD
:1029730014F9C68D031214F90E8E031214F9838F02
:10298300031214F9FF91031214F98C92031214F930
:10299300B893031214F9F393031214F9C0940312B6
:1029A30014F90095031214F90395031214F90D9504
:1029B300031214F92095031214F9A195031214F9C3
:1029C300D795031214F90396031214F92A960312E6
:1029D30014F94E96031214F9E596031214F9FE96B0
:1029E300031214F93197031214F95197031214F9CE
:1029F3008E97031214F9C597031214F9C49803129E
:102A030014F9F799031214F9BDAB071214F9C9AB02
:102A1300071214F90FAC071214F9F97F001214F915
:102A2300B4CB031214F9D7CB031214F9AECC0312AF
:102A330014F9F7CC031214F94FCD031214F9A9CDED
:102A4300031214F9F5CD031214F96BCE031214F922
:102A5300F9CE031214F971CF031214F9B4CF031290
:102A630014F991D3031214F9D8D5031214F90BD620
:102A7300031214F989D6031214F90ED7031214F9A9
:102A8300E6D7031214F910D9031214F9FBD9031270
:102A930014F9D8DA031214F914DC031214F9B8DDAB
:102AA300031214F94ADE031214F951E0031214F964
:102AB300846F001214F92470001214F98E7000123E
:102AC30014F93571001214F99971001214F9CC72CA
:102AD300001214F9F273001214F96B74001214F952
:102AE3004376001214F9E376001214F98677001284
:102AF30014F9E577001214F9A078001214F9667A34
:102B0300001214F9097C001214F9B57C001214F9AF
:102B1300CA7D001214F9E1E0031214F959E103121A
:102B230014F9A1E1031214F9E5E1031214F92EE2F9
:102B3300031214F978E2031214F9ADE2031214F943
:102B43002BE3031214F985E3031214F9DEE40312F1
:102B530014F967E5031214F9C3E5031214F9DDE56B
:102B6300031214F904E6031214F95CE6031214F9D0
:102B7300C6E7031214F9E5E7031214F90DE903128A
:102B830014F98AE9031214F9F7E9031214F959EA5B
:102B9300031214F909EB031214F9DBEC031214F911
:102BA300C6ED031214F9C0EE031214F9C6EF0312B3
:102BB30014F9E2F0031214F9F0F0031214F9C9F155
:102BC300031214F969F2031214F9ADF2031214F9A2
:102BD300C2F2031214F9D3F3031214F976F40312B5
:102BE30014F9CEF4031214F929FD051214F962FE47
:102BF300051214F91FFF051214F983FF051214F9C6
:102C030004F5061214F91FF5061214F963F50612FA
:102C130014F989F5061214F9AFF5061214F9C7F57C
:102C2300061214F92AF6061214F93FF6061214F9DD
:102C330061F7061214F96AF7061214F973F706120C
:102C430014F97CF7061214F986F7061214F982D6E2
:102C5300061214F962DA061214F967DA061214F985
:102C630069DA061214F9FF95071214F924B0071252
:102C730014F922AD071214F974AE071214F9CA7FBE
:102C8300001214F9D0DA061214F992AA071214F9F1
:102C9300BCAA071214F90F99071214F9CEFF0412F4
:102CA30014F942B0071214F983AD071214F9DDAD1C
:102CB300071214F9A3EE061214F95FD8011214F9DE
:102CC300B6D8011214F922D9011214F9AED901129E
:102CD30014F964DA011214F9ACDA011214F9C5DA41
:102CE300011214F9E8DA011214F90ADB011214F9DA
:102CF30048DB011214F997DB011214F9C2DB01124C
:102D030014F920DC011214F9C7DC011214F96FDD88
:102D1300011214F9EBDD011214F9B8DE011214F9F2
:102D230004DF011214F98CDF011214F9C5DF01125B
:102D330014F956E0011214F967E0011214F9D9E00D
:102D4300011214F972E1011214F9DCE1011214F910
:102D5300CCE2011214F9F1E2011214F9EEE30112CB
:102D630014F9FBE3011214F904E4011214F9EDE57B
:102D7300011214F909E7011214F99AE7011214F97F
:102D83000BE8011214F9E5E9011214F9B0ED01128F
:102D930014F9C4ED011214F9D4ED011214F9DEEDA6
:102DA300011214F9E7ED011214F9F0ED011214F90F
:102DB300FAED011214F929EE011214F957EE01127A
:102DC30014F962EE011214F986EE011214F9AAEE57
:102DD300011214F91CEF011214F965EF011214F931
:102DE30081EF011214F9F2EF011214F93EF001120E
:102DF30014F987F0011214F9C5F0011214F946F120
:102E0300011214F911F3011214F9B0F3011214F9B8
:102E130078F4011214F904F7011214F959F70112A5
:102E230014F981F7011214F9B4F8011214F9F9F83D
:102E3300011214F94EF9011214F9FCF9011214F9F3
:102E4300A1FA011214F9D6FA011214F976FB011250
:102E530014F9F2FB011214F93687011214F9688789
:102E6300011214F99C87011214F95089011214F903
:102E7300248A011214F9838A011214F9998B01121D
:102E830014F9E58B011214F9828E011214F9F790EB
:102E9300011214F94392011214F9DB92011214F98D
:102EA300E792011214F93093011214F9639301129A
:102EB30014F9EF93011214F90195011214F94296D2
:102EC300011214F94197011214F96B97011214F9C5
:102ED300D697011214F92F98011214F9A29801122E
:102EE30014F9D89A011214F95E9C011214F9499D40
:102EF300011214F9979E011214F9CFA0011214F9CB
:102F0300C6A3011214F9D5A3011214F969A401127D
:102F130014F914A5011214F957A5011214F9A0A567
:102F2300011214F9F0A5011214F95DA6011214F9A6
:102F3300C9A6011214F9E5A6011214F914A7011286
:102F430014F953A7011214F93BA8011214F9EAA8C2
:102F5300011214F961AB011214F993AC011214F9C3
:102F630062AD011214F9E4AD011214F930B2011289
:102F730014F95FB2011214F9BAB2011214F9EDB2E5
:102F8300011214F948B3011214F964B3011214F9CC
:102F9300C5B3011214F915B4011214F9C4B4011222
:102FA30014F987B5011214F94FB6011214F99BB83D
:102FB300011214F927BA011214F97EBB011214F994
:102FC3009ABC011214F99DBC011214F9CCBC011274
:102FD30014F9BBBE011214F984BF011214F9C5BF61
:102FE300011214F91BC1011214F991C1011214F950
:102FF300C4C1011214F928C2011214F949C40112FF
:1030030014F9A8C4011214F97EC5011214F992C56A
:10301300011214F9A6C5011214F9D3C5011214F94A
:1030230003C6011214F9A7C7011214F9A4C80112A7
:1030330014F9F2C8011214F919C9011214F9F4C9E7
:10304300011214F99ACA011214F920CC011214F9CD
:1030530067CC011214F9D4CC011214F929CE011250
:1030630014F9D2CE011214F906CF011214F91ECFAE
:10307300011214F9C1CF011214F93DD2011214F94E
:10308300E5D3011214F909D4011214F927D401125A
:1030930014F9F3D4011214F941D8011214F9008080
:1030A300021214F93280021214F9B284021214F9D2
:1030B3000185021214F94785021214F9EA850212F6
:1030C30014F94F86021214F99386021214F9FA873F
:1030D300021214F92689021214F9238D021214F92B
:1030E300A28D021214F9C88E021214F92B8F021248
:1030F30014F97790021214F90F93021214F99C93A6
:10310300021214F9A693021214F9CE93021214F9BF
:103113009694021214F92B95021214F95495021283
:1031230014F98195021214F9D697021214F9A3988F
:10313300021214F9E298021214F96499021214F9B2
:103143000F9A021214F9419A021214F98C9A02127C
:1031530014F9C59A021214F9149B021214F9709B04
:10316300021214F9F29B021214F9579C021214F979
:10317300CF9C021214F9789E021214F9709F021266
:1031830014F9B1A0021214F905A4021214F961A6EC
:10319300021214F91AA7021214F962A7021214F9FF
:1031A30043A9021214F97EA9021214F987A9021283
:1031B30014F990A9021214F99BA9021214F9BAA9DD
:1031C300021214F96DAA021214F9CAAA021214F90E
:1031D300D4AA021214F9DEAA021214F92AAB0212BB
:1031E30014F972AB021214F976AC021214F90FAD92
:1031F300021214F9D6AD021214F900AF021214F937
:103203002BB0021214F921B1021214F939B10212CE
:1032130014F96DB1021214F98BB1021214F9D3B17E
:10322300021214F90CB2021214F9C3B2021214F905
:1032330084B3021214F9F7B3021214F973B402122D
:1032430014F90FB5021214F935B6021214F9F1B6D6
:10325300021214F991B7021214F97EB8021214F98A
:10326300D6B8021214F99CB9021214F9BFB90212AA
:1032730014F9D4BA021214F91FBB021214F97BBB5E
:10328300021214F9E3BB021214F907BC021214F977
:103293002FBC021214F974BC021214F998BC021266
:1032A30014F91CBD021214F905BE021214F94ABE28
:1032B300021214F973BE021214F911BF021214F9A7
:1032C3007CBF021214F98ABF021214F9B6BF0212AC
:1032D30014F997C0021214F967F5031214F99FF554
:1032E300031214F9C0F5031214F902F6031214F9C8
:1032F30066F6031214F970F6031214F980F603123A
:1033030014F9B7F6031214F960FA031214F928FC3E
:10331300031214F90CFE031214F9AEFE031214F98E
:1033230038FF031214F987C2021214F9EBC2021216
:1033330014F949C3021214F994C3021214F9AFC366
:10334300021214F9D6C3021214F9F3C3021214F9C8
:10335300FFC3021214F990C5021214F9A9C502128F
:1033630014F925C6021214F938C6021214F948C614
:10337300021214F9ECC6021214F958C8021214F915
:103383006BC9021214F90BCA021214F915CA0212FC
:1033930014F994CA021214F9A5CA021214F9E4CA60
:1033A300021214F912CB021214F9DFCB021214F930
:1033B30036CC021214F96FCC021214F9C5CC0212E6
:1033C30014F9E3CC021214F931CD021214F9FCCD35
:1033D300021214F94ACE021214F997CE021214F90A
:1033E3001ACF021214F944CF021214F97ACF02123F
:1033F30014F989CF021214F9E8CF021214F960D03C
:10340300021214F9A1D0021214F9F1D0021214F924
:103413001CD1021214F936D1021214F950D102123E
:1034230014F925D2021214F92FD2021214F96AD216
:10343300021214F97AD2021214F983D2021214F985
:10344300D4D2021214F9E8D2021214F90AD40212E5
:1034530014F91FD4021214F9B2D4021214F926D5A6
:10346300021214F9CBD5021214F9D6D5021214F9AB
:1034730036D7021214F952D7021214F99ED7021248
:1034830014F90CD8021214F93ED8021214F958D8C0
:10349300021214F99AD8021214F9EDDA021214F98D
:1034A30085DB021214F9FCDB021214F959DE021255
:1034B30014F971DE021214F974DE021214F980DEBB
:1034C300021214F994DE021214F99CDE021214F9AA
:1034D300D3DE021214F9C7DF021214F951E002120B
:1034E30014F9D3E0021214F953E1021214F92AE297
:1034F300021214F94CE2021214F9E5E2021214F971
:1035030042E3021214F945E3021214F9B4E302127E
:1035130014F900E5021214F913E6021214F99EE6F7
:10352300021214F9B1E7021214F976E8021214F93F
:10353300A7E8021214F9CDE8021214F9D6E8021230
:1035430014F905E9021214F9B5E9021214F965EA4E
:10355300021214F9D8EA021214F97BEB021214F9DD
:10356300EEEB021214F92DEC021214F976EC0212AE
:1035730014F918B8031214F9CBB7031214F949B7A5
:10358300031214F9CEB6031214F94EB6031214F94A
:1035930004B6031214F9A8B5031214F957B50312AC
:1035A30014F91AB5031214F9D4B4031214F999B423
:1035B300031214F98FB4031214F9F3C7051214F9A3
:1035C300BCC6051214F972B4031214F99AB30312A8
:1035D30014F9BDC5051214F974C5051214F91EB307
:1035E300031214F9B98A061214F98388061214F91E
:1035F300D287061214F9CA86061214F975C9041281
:1036030014F99BC8041214F9D1C7041214F940C663
:10361300041214F909C6041214F9DBC5041214F9CF
:103623008FC5041214F9F8C4041214F968C40412FF
:1036330014F942C4041214F9F7C3041214F9C1C3F0
:10364300041214F944C3041214F9DFC2041214F966
:103653008EC2041214F9B6C1041214F926C104125D
:1036630014F9DAC0041214F955C0041214F910C085
:10367300041214F9F4BF041214F9EBC3051214F97C
:103683009CBE041214F949CA031214F91EC703128B
:1036930014F9A6C4031214F994C2031214F958C2FC
:1036A300031214F952C1031214F9FABE031214F9E6
:1036B30086BE031214F96EBE041214F93BBE041243
:1036C30014F9BFBD041214F902BE061214F94BBD5E
:1036D300031214F95DBC061214F96BBB061214F93C
:1036E300B0BA061214F96A8A051214F90ABD031254
:1036F30014F9118A051214F9934F001214F9DC8995
:10370300051214F9A789051214F97389051214F91E
:103713000689051214F9EE88051214F9C9880512F1
:1037230014F99A85051214F96D83051214F96D8144
:10373300051214F9F380051214F9A480051214F983
:103743005E80051214F90080051214F9FBB8051206
:1037530014F994B8051214F961B7051214F9A8B94C
:10376300031214F9D6B5051214F968B3051214F946
:10377300F3B1051214F997B1051214F988B10512C2
:1037830014F983D70400000080FB0000000020012F
:103793003087000001002001308700000200200173
:1037A30031870000030020012F870000040042013D
:1037B3006D800000050042017E800000060042018A
:1037C300A080000007002001AB8000001000420130
:1037D3008F80000011002001B90A0000004042015F
:1037E300A080000000804201D28106000000101179
:1037F30000000700000030330000070010003033E2
:10380300000007000140203300000700024020337E
:10381300000008000000203300000A000000E2332B
:1038230000000A000100183300000C005500393372
:1038330000000C001C00423300001100040042335E
:103843000000110043002333000011005100101148
:10385300000011005500101100001100670018113D
:10386300000011006F001811000012005500210123
:10387300000014000E004222000000040000210496
:1038830000000204000029040000030400002904CE
:10389300000005040000290400000C0400003904A2
:1038A30000000D040000390400002A04000039045C
:1038B30000000207000029040000020700021805A7
:1038C3002D870207000330050000020701032205CC
:1038D30049860207020322054D86020703031801E6
:1038E3002B870207060318010000040B00001B05C9
:1038F3003186040B000129050000040B030129058F
:103903000000040B060129040000040B000221053A
:103913001B87040B010221051F87040B02022105EB
:103923001B87040B030221052187040B04022105D5
:103933001B87040B050221051187040B00032104D7
:103943000000040B000421051B87040B010421055F
:103953001D87040B050521050000040B080521053F
:103963000000040B0B0529040000040B10052804B8
:103973000000040B000621051B87040B010621052B
:103983001F87040B020621051B87040B0306210571
:103993002187040B040621051B87040B050621055B
:1039A300238700000000000001204C3700010220A3
:1039B3004C37000103204C37010004204C37000131
:1039C30005001E20000006000000000007008E19FD
:1039D30000000800622400000000000000000A004C
:1039E300000000000B20562410000C02E4350000F8
:1039F3000D00000000000E204C3710010F204C3743
:103A030010000000000000000000000000000000A3
:103A130000000000130076250000000000000000F5
:103A230015004A1E410016004A1E50001701762554
:103A330000001801D41850001900C82400001A000F
:103A4300C82400001B00582510001C014A1B00015C
:103A53001D014A1B00011E00F22410031F01C8367A
:103A630008002000F02600002100CA1900002200EF
:103A73009E1E10002300E43500000000000000003B
:103A83000000000000002601F623100027113E2746
:103A930010002809E423000029009C2610002A6056
:103AA300D21A00032B22562410002C00D226100019
:103AB3002D02D22610002E01B21900042F000A197C
:103AC3000008300010251000310100000000320012
:103AD300000000003300000000003400000000007C
:103AE3003500000000003600000000003700000031
:103AF300000038000000000039014A1B00013A00B1
:103B0300902600003B00322413003C00000000001C
:103B13003D00000000008F000100AA16870001008D
:103B2300021935000400C71825000200CB1826002F
:103B33000200CD1827000200CF1828000100D91871
:103B430029000100DA1884000400DB188600010054
:103B5300DF182A000100E0182B000100E1182C00F7
:103B63000100E5182D0008008D162E000100E6184F
:103B73002F000100E71830000100E81831000100B0
:103B8300E91832000100951633000100961634003F
:103B93000100EA1836000100971638000100EB18FF
:103BA30039000100E41883000200001963000100DA
:103BB300A71664000100E21865000100E3186D0018
:103BC3000100A81671000800851666000100FF18A1
:103BD30043000100F01844000200F1184500010001
:103BE300F31846000200F418470008009F16480027
:103BF3000100F6184B000100F71804000100031937
:103C0300A100010006193700010005198800010011
:103C130004193C00010098163D000100EC1849000E
:103C23000200F81867000100A9164D000200FA18F7
:103C33004E000100FC184F000200FD183E00010079
:103C43009E1651000100ED1852000100EE185300BA
:103C53000100EF1854000100991600000000000055
:103C630000013636010100010201000103010001D8
:103C73000401060605020000070100340801000FD5
:103C8300090401010D0100FF0E08000017020000E6
:103C9300190100FF1A0100011B0100FE1C010008AD
:103CA3001D0200001F01000120010001210200008C
:103CB3002301000F24020000260100012701000850
:103CC300280200FF2A0100072B0102402C010000FB
:103CD3002D0100012E0100012F0100FF30010B1DFA
:103CE300310800003A0100083B01000F3C010001CC
:103CF3003D0100FF3E0400004204000046040000B2
:103D03004A0400004E040000520400005604000060
:103D13005A040000002020202020202020202828D2
:103D23002828282020202020202020202020202078
:103D330020202020208810101010101010101010B8
:103D430010101010100404040404040404040410E8
:103D53001010101010104141414141410101010176
:103D63000101010101010101010101010101010140
:103D7300101010101010424242424242020202024C
:103D83000202020202020202020202020202020210
:103D930010101010206A0078001E2624262A266C94
:103DA30000F000CA25D025D6256B00F000E225E8F7
:103DB300252A266600F000E225E8252A2667001456
:103DC30000F425FA25002669001400062612260CA5
:103DD30026EE22E8038E25AC25A62564000100000B
:103DE300000000C4256300010000000000C4256238
:103DF30000010000000000C4256100010000000074
:103E030000C4257000010000000000C425010371F7
:103E1300030103010301030103010322030203015D
:103E23000310030003000300030003000300030067
:103E330003420300032403060300030003040312E5
:103E430003250323032503230304030403000300BF
:103E5300030003440300030003230300036503215A
:103E6300003503810300030503000300030003007F
:103E73000325032303030071003001600011007068
:103E83000031022003500480001000610000001480
:103E93000063007300720062004300000013000619
:103EA30000000000000400120000000000000000F9
:103EB3000004000400370037003C02440000000007
:103EC30000000000006500000035008100000005CF
:103ED3000000008300000003027102300160021140
:103EE3000270020102020202028002100261023A1F
:103EF3000041006302730272026202430200021372
:103F03000238000002000204021202000200020052
:103F130002000204020402370037003C024402009C
:103F2300023900000200026502000235028102002C
:103F330002050282028302000201017101010101F3
:103F43000111010101310101010101800110016130
:103F5300013B00140063017301720162014301001C
:103F630001130106013D01350004011201000100A6
:103F7300010001000104010401330133013C014448
:103F830001320136000001000165010001350081A5
:103F930001000105018201830100013600010006D1
:103FA3000000000F000000000000000000000000FF
:103FB3000003FFFF00000403FFFF0000FFFF0FF4F7
:103FC300010005C4040320000100000B00000000F1
:103FD3000000000003010F000000000000000000CB
:103FE30000000000000000000000000000000000CE
:103FF300000000000000000000342870283A286206
:104003002740287628402882284628622740287699
:10401300284C28622752286227582862275E286284
:1040230027642862276A2862270000000000000036
:10403300000000000000000000000000000000007D
:10404300000000000000000000000000000000006D
:1040530000000000000A000000020000000400004D
:1040630000080000001000000020000000400000D5
:1040730000800000000001000000020000000400B6
:1040830000000800000010000000200000004000B5
:10409300000000C82A1300982A0100C82A02003E23
:1040A3002A0300442A04004A2A0500502A06005C19
:1040B3002A3000742A3300802A3400862A11008CA7
:1040C3002A1400922A15006E2AFFFF0000510010E7
:1040D3000000550010000067001800006F00180072
:1040E300000400420000430023000007ECFDFDFD37
:1040F300ECDCDCCCBCACAC9C9C8C7C7C6C6C5C5CED
:104103005C4C4C3C3C2C2C1C1C0A103102E030054E
:10411300F23007E6300CC8300DD430FF0000001633
:104123000F00000B150B020002220F3300000E5A82
:104133006967426565416C6C69616E63653039011D
:10414300030507090B0D0F00020406080A0C0D14E2
:104153000AE5D5C5B5A5A59585857565000119162B
:104163001816161823030000393D3F373C3C362C04
:10417300442D00034A49434E181A250502303016D0
:10418300181920231A1C1E30303017181921301B20
:104193001D1F300C0E020B040B0A0708000F02044C
:1041A30002010101010902E803000000BE040AE85C
:1041B30003FA0652410E00EE400903030A100408F5
:1041C300280C0405080400FF1E0CFF1EC082C083D8
:1041D300E9901571F00243DE74F4120E508A088BD5
:1041E30009EB5480604D800EEEFAEFFB1236F8EEC9
:1041F300FAEFFB122240901571E0F91222528A0A5B
:104203008B0BAE0AAF0BEE4F60208E828F83E06480
:104213001A60D5EEFAEFFB12275CE9F974FF6960C7
:10422300CEEEFAEFFB12224680CCAA08E5096480A1
:10423300FB80047A007B0002457074F7120E507AFB
:10424300FF0255BF74F6120E50E9FEEAFF7A047BB3
:10425300001248C6A808A909EA496034EF8A828B8C
:1042630083A3A3A3F0EE8A828B83A31242CBE4F051
:10427300A3F090157E1248EB700990157EE8F0A329
:10428300E9803FE0FB8A828B83A3A3A3E06F7004E2
:1042930079008031EAFCEBFD8A828B831248EB7054
:1042A300E474FF6F700C8C828D831242D2E4F0A30E
:1042B300801090157E125D5090157E1242D2EAF066
:1042C300A3EBF079010256B7A3F08A828B83221203
:1042D30068A48882898322C082C083EA126B373B39
:1042E300F583E0FA90157E800488828983125B7FD0
:1042F300601C88828983A3A3A3E0FBEA6B60057437
:10430300FF6B70E588828983A3A3E0F9800279FFBC
:104313000243DE74F4120E50EAFEEBFF8A82F58349
:10432300125D5012275CE9F50874FF6970030243BC
:10433300CD7A197B0012223AEA4B70030243CD8AED
:10434300828B8374341258E8A3A3EA2402FCE43B6F
:10435300FD74061214528E828F83124F7C12687F73
:104363008A828B83A3A3A3A3A3A3A3A3ECF0A3EDAC
:10437300124F8CA3A3A3A3A3EA240AFCE43BFD747A
:104383000C1214528E828F83125DEAC8126B373877
:10439300F583E0C0E0EA2416F582E43BF583D0E040
:1043A300F0EE240CF8E43FF98882F583126883EA7F
:1043B3002417F582E43BF583ECF0A3EDF0888289C2
:1043C30083E4F0A3F0A9081222467901024570C0E4
:1043D30082C08390157C125D508000D083D082020E
:1043E30014F674F4120E508A088B09ECFEEDFF7A72
:1043F300081244837004791080351244B5A3124423
:104403009F740C1218A3126E8AA3A3A3A3126F7C2A
:104413009015761248EB90157660111248CE800302
:10442300EAFCEB1248E670F88C828D831244930207
:10443300457074F4120E5089088A09ECFEEDFF7A78
:104443000A1244837004791080331244AAE4F0A35F
:10445300124499E509124499A3EEF0A3EFF09015E5
:10446300781248EB90157860111248CE8003EAFC6D
:10447300EB1248E670F88C828D83124493024570E8
:104483007B001222EE8A0A8B0BA80AA90BEA4922A7
:104493001268A47900221255B0A3A322E50912558C
:1044A300B5EEF0A3EFF0221244B58A828B83A3A367
:1044B300A3228A828B83E4F01242CBA3A3E508F004
:1044C3002274F2120E50EAFEEBFF8C088D091227BC
:1044D300C28B0DA90DEA4960198A828B83A3A3A31A
:1044E300EEF0A3EF1255ACE508F0A3E509F079006F
:1044F30080027901025D4674F4120E5074F71216AD
:104503000CE9FE8518828519837401F0EC7006EDC1
:10451300C39406404D74036A4B604774011215C679
:10452300880A890B780A1215167C127D007A007BA3
:1045330000EE124575121544E9601CE4F50AF50B0B
:10454300780A12151674031215D674021215CE12B8
:10455300280A7402121544851882851983E06401C0
:10456300700479018002790074091215447F0402F2
:104573001206F91227C874022274E8120E5074FA54
:1045830012160C89128A168B178C088D091237168E
:104593008A148B15EA4B7005790202470BAA08AB04
:1045A30009A9121227E0E9F50FA2E6401C90157C39
:1045B300125B7F6014E82419F582E439F583E06423
:1045C300017006E50FD2E6F50F7C067D007900AA9F
:1045D30018AB19122228741F1218A3124F846009F2
:1045E300E054FCF0E044018003E054FC126F6212DB
:1045F3005B7F602B741E1218A3E0FE88828983A35D
:1046030012130DEEFD74021218A3E05403FCAA0862
:10461300AB09A9121227807402121544E9700579B7
:104623000102470B74221218A3125B7F60128518D4
:1046330082851983E04404F074021218A31268A05F
:1046430074201218A3124F846005E044088003E02D
:1046530054F7F074211218A3124F846005E044103C
:104663008003E054EFF074241218A3E0C0E0740454
:104673001218A3D0E0F074051218A3EEF0780385A6
:104683001882851983E05404600278057425121892
:10469300A3124D18E82510FEE43511FF1249BC6042
:1046A30063AC0AAD0BAA18AB191227BC74271218F6
:1046B300A3125CD6121512AC10AD11125F3E121587
:1046C30044750C1E780C12151A750C74750D15783B
:1046D3000C121516780A1215168E0C8F0D780C1203
:1046E30015167808121516A90FAC14AD15AA16AB3A
:1046F300171237227409121544E9FEAA0AAB0B12EA
:1047030022F480027E10EEF974068004EEF974023E
:104713001215447F10021206EEFCEFFDAA10AB1136
:10472300A90A122786740B2274EA120E5074FE1221
:10473300160C890B8A148B158C0E8D0F7E007F004F
:10474300750A0074181218A3124D1880111248DC50
:104753001228168B09EE2AFEEF3509FF050A1268A7
:1047630087502EE50A75F006124CCF2403FEE43F72
:10477300FFA3A3E070E60EEE70010F88828983A386
:10478300A3A3A31248EB8882898360C1125AF080E5
:10479300C2EEFAEFFB1248C68A0C8B0DEA4B70038C
:1047A3000248BB750A008030A818A919881289131A
:1047B300781212151678081215168A828B831248FE
:1047C300DC12281C7404121544126E7AE50828F5CD
:1047D30008E50939F509050A1268875077E50A756E
:1047E300F006A4F8A9F0E51028F582E51112686334
:1047F3001248D38A828B83A312551BF0125584125D
:104803005516F0E5082403F5085002050988828946
:1048130083E070C2EA2403081255881248D3A385A3
:1048230082088583098A828B83A3A3A3A31248CE1C
:104833008C82F583E582458370030247ABAC08ADF8
:1048430009AA82AB8388828983E0F91227EC8A085C
:104853008B098082780C1215168E088F097808123E
:10486300151674201218A3124D0E12151AE4F5082A
:10487300F509780812151674221218A3124D0E1298
:10488300151A74221218A3124D0E12151A75080068
:10489300780812151A750801780812151AAC0EADAE
:1048A3000FAA14AB15A90B124725121544E9FEAA4A
:1048B3000CAB0D1222F480027E10EEF97402121575
:1048C30044802F1222EE8A088B0922E0FCA3E02207
:1048D300E0850882850983F022126F50AA0EAB0F80
:1048E300A90B22FD8C828D83125D54EA4B22AA12FE
:1048F300AB137F0E021206EEF90248F574EC120EAA
:1049030050890A8A108B11ECFEEDFF74141218A360
:10491300124B1270030249A2A808A9097C00800D5A
:10492300124AF550010B124B255001090C850C82DC
:10493300850D83E0FAECC39A40E674016A700AA31A
:10494300E07006750E01750F007808121516780EC3
:10495300121516741C1218A3124AEF12151AE4F555
:104963000CF50D780C121516741E1218A3124AEFCB
:1049730012151A741E1218A3124AEF12151A750B88
:1049830000780B12151A750B04780B12151A1247BF
:104993001B121544E9FEAA08AB091222F480027E19
:1049A30010024ADCAA0EAB0F7F0C021206850A82A4
:1049B300850B83E0F91227FE22EEFAEFFB1222EEBB
:1049C3008A0A8B0BEA4B22F8E4350DF98882F583CA
:1049D300124CFEA322851082851183E0F8E508C3FB
:1049E300982274EC120E50890A8A108B11ECFEED9A
:1049F300FF74141218A3124AE1F508750900740232
:104A0300780812174B85080E85090FAA0EAB0F12F3
:104A1300687B7003024ADA7900804AE9F51275135C
:104A2300007402781212174BE50C2512FCE50D35C4
:104A330013FD8C82F583A31258E38C828D83A3121A
:104A4300602DF0EC2403FC50010DF5828D83126080
:104A53002EA3F08C828D8312602DA3A3F0EA24048D
:104A6300FA50010B09850C82850D83E0F8E9C398A0
:104A730040A9740168700AA3E07006750E01750FF2
:104A8300007808121516780E121516741C1218A346
:104A9300124AEF12151AE4F50CF50D780C121516DF
:104AA300741E1218A3124AEF12151A741E1218A3B9
:104AB300124AEF12151A750B00780B12151A750BA3
:104AC30007780B12151A12471B121544E9FEAA08A0
:104AD300AB091222F480027E10EEF90249AB124AAE
:104AE300E5221253EA850C82F583E022E0F50B7888
:104AF3000B22EC75F003A4FAABF0E50C2AFAE50DF2
:104B03003BFB8A82F583124D2BF0EA2402FA221230
:104B13004AE575F003A4F50EE5F0F50FAA0E126E43
:104B2300E722F5828B83124EE0124D24A3A3F0E813
:104B33002403F82274E8120E5074FE12160C124D60
:104B4300721218A3124D188009EE2402FEE43FFFEF
:104B530005081249D8502FE50875F00D124CCF24E3
:104B630004FEE43FFFE070E8A3E070DDEE2405FE01
:104B7300E43FFFE82404F50AE439124CEA60D11259
:104B830049B0EE2980C61249BC7003024CCA8A0E92
:104B93008B0F7508008018E50C2409FAE4350DFB2A
:104BA3008A82124CF8124D20F08C0E8D0F050812DC
:104BB30049D84003024C67E50875F00D124D32AA3F
:104BC30082AB831249D3F0E50C24021249CA124D79
:104BD30047A3F0E50E2404F50E5002050F850C8261
:104BE300850D83E070C7E50E2402FCE4350FFD85D7
:104BF3000E82850F83A3A882A9838A828B83E070A8
:104C030096E50C2404F512E4350DF5138512821292
:104C13004CF8F0E50C2405F516E4350DF51785166B
:104C230082126258124D5C2407F8E4350DF988822C
:104C3300124CF8124D6AF0E50E2405F50E500205EC
:104C43000F851282851383124CF17003024BB0ACB3
:104C53000EAD0FE50C240BF582E4350DF583124DF3
:104C630006024BB0780A1215168E0C8F0D780C12B3
:104C7300151674221218A3124D0E12151AE4F50C10
:104C8300F50D780C12151674241218A3124D0E127A
:104C9300151A74241218A3124D0E12151A75080052
:104CA300780812151A750809780812151AAC14AD8C
:104CB30015740B1218A3124CDF121544E9FEAA0A4D
:104CC300AB0B1222F480027E1002470FA4F8A9F066
:104CD300E51028F582E511124E7CEE22125D54A9EF
:104CE30009122786740B22F50B850A82F583E0F9F6
:104CF3001227F2E922F583124CFE22E0850E82850B
:104D03000F8322124EE58A0E8B0F22E0F5087808F6
:104D1300228E828F83E0F510A3E0F51122124D2439
:104D2300221242CC124D2B22A3E0888289832212C5
:104D33006A1585820C85830D124CFEF0850C8285E5
:104D43000D83A322124D4B22A3F088828983A3E013
:104D5300850E82850F83A3A322F085168285178390
:104D6300125599F0E50C22A3A3124D4BA3A3228560
:104D73001882851983EAF0A3EBF089098C148D1549
:104D83007E007F00750800741A2274EA120E50899F
:104D93000B8A108B118C0E8D0F7E007F00750A001D
:104DA30074161218A31253E68003124E49850C821F
:104DB300850D8312688D40F2126877607EA808A97A
:104DC30009750A008003124E85850C82850D83E0E8
:104DD300FAE50AC39A40EF78081215168E0C8F0D68
:104DE300780C121516741E1218A3124E4312151ABC
:104DF300E4F50CF50D780C12151674201218A31295
:104E03004E4312151A74201218A3124E4312151A88
:104E1300750A00780A12151A750A0A780A12151A01
:104E2300AC0EAD0FAA10AB11A90B124725121544F6
:104E3300E9FEAA08AB091222F480027E100248FAA6
:104E4300E0F50A780A22E50A75F005A4F8A9F0E569
:104E53000C28F582E50D124E7CA3A3A3126E8EA33C
:104E6300A3E0F91228048B09EA2403F8E43509F9CD
:104E7300EE28FEEF39FF050A2239F583A3A882A99C
:104E83008322E50A75F005A4FAABF0124ED48582AD
:104E930014858315124D2C126F68124EE0F0E51441
:104EA3002402FAE435158A12F5138A82F583124E29
:104EB300E0A3F0E82403FCE439FD8514828515831F
:104EC300A3A3A3124EE58A128B13A812A913050AF2
:104ED30022E50C2AF582E50D3BF583A322124D2C26
:104EE300A322E0FAA3E0FB851282851383E0F91283
:104EF30027EC2274F6120E5074FE12160CE9FE749F
:104F03000C1218A3124F7C124F84124F8CE0C0E096
:104F130074011218A3D0E0F0A818A9198808890908
:104F23007808121516750802750900780812151607
:104F330074161218A3124D0E12151A74151218A313
:104F430012130D74161218A3124D0E12151A74169D
:104F53001218A3124D0E12151A75080078081215AF
:104F63001A75080B780812151AEEF912472512154F
:104F73004474021215440256B7126E858882F58373
:104F830022E085188285198322F088828983A322EF
:104F930074F1120E5074EB12160CEAFEEBFFC20012
:104FA300EA2420F8E43F8808F5098882F583C3E002
:104FB3009403A3E09400500579010253C790157C34
:104FC300126F7E74021218A3126F7E740E1218A34E
:104FD300E4F0A3F0740A1218A3E4F0A3F0740C1223
:104FE30018A3E4F0A3F0EA2422F8E43F880AF50BBF
:104FF3008882F58312688374041218A3AA82AB8390
:105003001227B68A0C8B0DA80CA90D740A1218A3CB
:10501300126F7E850882850983125D50EAC398F872
:10502300EB99F9850A82850B83E028F8A3E039F927
:10503300740C1218A31268A074081218A3E0901538
:1050430075F0EE2414F508E43FF509850882F5832D
:10505300E0F91237168A828B83E5824583700C90C0
:10506300157CE4F0A3F079020253C712541A602BA3
:10507300EE2404F50AE43FF50BA312130D740B128F
:1050830018A3E0FD74061218A3E05403FC1254297C
:105093001227807402121544E9700C90157CE4F019
:1050A300A3F079030253C71254291227E0E9F50E3E
:1050B300850A82850B83125D50EAFCEBFD90157621
:1050C300800488828983125B7F70030251BA8882CD
:1050D3008983A3A31253E6C3EA950CEB950D40E233
:1050E30088828983A3A3A3A3C3E09CA3E09D40D2AA
:1050F300E8FCE9FD74041218A3E05407700D740969
:105103001218A3E0640B70030251BEE50EA2E64041
:10511300030251BEEE2419F582E43FF583E06003F8
:105123000251BE74021218A31253F2707E7402125B
:1051330018A3125B7A70747C00850882850983E06A
:10514300F91227E674011218A37401F074091218F6
:10515300A31253CF1218A3E0F50C780C12151A748E
:10516300071218A312130D750C01780C12151A747B
:10517300081218A3126A35F50C780C12151A740567
:105183001215C6880C890D780C121516740912189D
:10519300A31254111218A31253DA1218A3125400B3
:1051A3001215447C011254291227E690157CE4F071
:1051B300A3F079050253C77C007D0074041218A381
:1051C300E0F8540360030252E2E8540460057E846D
:1051D30002532174091218A3E0F8C3941740030281
:1051E30052DEE8F50A750B007402780A12174B7445
:1051F300FC250AF582743F350BF583E493F87401BB
:1052030093F9E84970030252DE850882850983E039
:10521300C0E074101218A3D0E0F0740C1218A3129B
:105223005D5074111218A3126F7E740A1218A31220
:105233005D5074131218A3126F7E74101215CE886A
:105243008289831210858B09A909740E1218A3127F
:105253006F7EEA49604B74091218A3E0F5087509DB
:10526300007402780812174B74FE2508F582743F08
:105273003509F583E493F87401938882F583E58215
:105283004583601274021215CE121085740E121823
:10529300A3125B7F600B740E1218A3125D501222CF
:1052A300F474091218A3E0F86054740268604F7430
:1052B3000368604A74066860457408686040740C4B
:1052C30068603B74116860367413686031741568E4
:1052D300602C740B6860277E0080437E82803FECE5
:1052E3004D602B8C828D83A3A3A312541A601F7469
:1052F300021215CE121085E9FE74FF6E700B901525
:105303007CE4F0A3F0F90253C774016E70107404C7
:105313001218A3E0540460047E8380027E81740229
:105323001218A31253F2707574021218A3125B7A47
:10533300706B74041218A3E0FA54107060740112B5
:1053430018A3EEF074091218A31253CF1218A31264
:105353004D0E12151A74071218A312130D750801B6
:10536300780812151AEA131313541F64015401F534
:1053730008780812151A74051215C6880889097861
:105383000812151674091218A31254111218A31235
:1053930053DA1218A3125400121544D20090157C4C
:1053A300E4F0A3F0EE70047900801974846EA20017
:1053B300700A50047907800C790680085004790933
:1053C300800279087415121544025AEAE08518829E
:1053D300851983F0740822E02406FAA3E03400FB65
:1053E3007409221253EA22E0F50CA3E0F50D221210
:1053F3005DEAC82415F582E438F583E022A3E0C80A
:10540300126B3B38F583E0F91227AA740722126E58
:105413002C126F4C740922A3A3A3125DEA8882F5B0
:1054230083E582458322850A82850B83125D548539
:105433000882850983E0F92274F4120E508A088BDE
:1054430009ECFEEDFF7C067D007900122228850819
:1054530082850983E054FCF8A3E0F98E828F83E010
:105463005403FAE84A850882850983F0A3E91255B3
:1054730024A2E25004D2F08002C2F085088285099A
:1054830083E054FBF0A2F0E433F50A750B007402D9
:10549300780A12174BE0450A125524A2E3850882C5
:1054A300850983E050044408800254F7125524A26E
:1054B300E45004D2F08002C2F0850882850983E0BB
:1054C30054EFF0A2F0E433F50A7404780A12174B90
:1054D300E0450A125F44850882850983E05404602D
:1054E300108E828F83E0FAA3E0F9EA1264D25001AE
:1054F3000F8E828F83125516A3A31264B28508827E
:10550300850983A3A3A3A3A3F0EE2402FAE43FFB3C
:1055130002457012551BA322E0850882850983A3E7
:10552300221258ECE02274F7120E508A828B83E029
:1055330054038C828D831255A754041255A054082A
:105543001255A05410F88C828D83E048F0A3AC82EE
:10555300AD838A828B83E054046010125584125504
:105563009A124F8C125590FC50010D8A828B83A3A3
:10557300A3A31255991255AC125590FAE43DFB8042
:105583003EEA2402F8E43BF98882F5832212559A15
:10559300A3F0EC240222A3E08C828D8322F88C8278
:1055A3008D83E0481242CCE0221255B0221255B549
:1055B300A322F08A828B83A3A3A3A3221227567F5D
:1055C30001021206C082C08390157880048A828B00
:1055D300831248EB60138A828B83A3A3E0F8E96804
:1055E300600B74FF6870E680047A007B000243DE80
:1055F30074F0120E508A088B09ECFEEDFF1227C2DD
:105603008A0C8B0DEA4B60787C0080010C850C8240
:10561300850D83A3A3A3A3A3A3A3E0F8ECC398508E
:105623005FECF50E750F007403780E12174B850CA3
:1056330082850D83A3A3A3A3A3A3A3A3E0250EF8AD
:10564300A3E0350FF98882F583E493FA740193FBA1
:10565300E5086A7003E5096B70B2A3A3E493FA74D7
:105663000193FBEE6A7002EF6B70A174101218A322
:1056730012688389838882740812140E7901800268
:10568300790080031215447F0802120674F6120E85
:10569300501256BC6005125D4D80047A007B008079
:1056A3001374F6120E501256BC6005125D4B800443
:1056B3007A007B007F020212061227C28A828B8342
:1056C300E58245832274F7120E50E9FFEAFCEBFDF5
:1056D30090157A800488828983125B7F6046888272
:1056E3008983A3A3E06F70ED7E0080010E88828919
:1056F30083A3A3A3E0FAEEC39A50DAEE75F003A4F2
:10570300FA85F008AB0888828983A3A3A3A3E02AC0
:10571300FAA3E03BFB8A82F583E06C7003A3E06DA0
:1057230070CA80047A007B000255C274F6120E50D0
:105733001227DA8A828B83E58245836006A3A3E07E
:10574300F9800279000256B774F6120E50ECFF127C
:1057530027DA8B09A909EA496015EA2402F582E4EC
:1057630039F583EF6005E0D2E68003E0C2E6F0029C
:1057730056B774F1120E50EAFEEBFFECFAEDFBEEB6
:105783004F70030258E0EC2402F50CE43BF50D8C5A
:10579300828D83A3AC82AD838E088F09750A00E9DD
:1057A3001213BE044142AD584344BF58E0E2785857
:1057B300E8E92B5821081D58092B580A3A580B7849
:1057C30058101D58181D58192B581A3A581B785839
:1057D300201D58212B58223A5823785824895825BC
:1057E3009258269B5827A458281D58292B582A3AE3
:1057F300582B78582C89582D92582E9B582FA458E3
:10580300301D58312B58382B583978583AA458EA58
:105813007858F0A458F1D158E0588E828F831258EB
:10582300E3ECFAEDFB0258E01264AB8C828D83F05B
:105833000A0AAB0D0258E08E828F8378081218345F
:105843008A828B83E5081258E87808121834E50930
:105853008C828D831258E8780812183474107808F3
:105863001215AD850C82850D83E508F0EA2403FA51
:10587300506B0B80688E828F831213091222A674D9
:1058830004121544805778081215127C0580467857
:10589300081215127C06803D78081215127C0780C9
:1058A3003478081215127C08802B78081215128E92
:1058B300828F83E02401FCE43400800F7808121502
:1058C300128E828F83125A7EFCE439FD8009780898
:1058D3001215127C107D00125F3E121544025AEA23
:1058E300126033F0221258EC22F08E828F8322C092
:1058F30082C083E91213BE03202F0A59383A0A598A
:10590300E0E20A59000E597901800279000243DE70
:1059130074F2120E5074FE12160CEAFEEBFF8C08A2
:105923008D091228048518828519837401F0A3E474
:10593300F0851882851983E0600C750C01750D00E4
:10594300780079008038750CFF750DFFEA24FFF8A5
:10595300EB34FF8028850882850983E0C0E0EE28C8
:10596300F582EF39F583D0E0F0850882850983A3BA
:10597300858208858309E8250CF8E9350DF9EAFCE9
:10598300EBFDEC24FF1AED34FFFBEC4D70C7740202
:10599300121544025D46E924F860781460791460B6
:1059A3007A14607B24FB606B24F8606714606814CE
:1059B300606914606A24FB605A14605B14605C14B1
:1059C300605D14605E14605F146060146061146055
:1059D30042146043146044146045146046146047E5
:1059E30014604814604914602A14602B24F960275A
:1059F30014602C146039245A602514602214601F2B
:105A030024FA601314601014601524FA60211460E2
:105A1300228024790180227902801E7903801A79F9
:105A2300048016790580127906800E7907800A7939
:105A33000880067910800279000214F674F7120EBA
:105A430050E9FE74446E600574436E700C8A828B59
:105A530083125A7EFAE439801574426E60057441EC
:105A63006E700E8A828B83E02401FAE43400FB809B
:105A7300071227FEE9FA7B000255C21248CEF9EC61
:105A830024022274F1120E50EAFEEBFFEC2406F816
:105A9300E43D8808F5098882F5831248EB700479A0
:105AA3000180448C828D83125AEF8A0A8B0B8508FE
:105AB30082850983E0F508A3E085080CF50D750ED2
:105AC30000780C121512AC0AAD0BEEFAEFFB125F65
:105AD3003E121544740F1218A312541D6007E50AF1
:105AE300F0A3E50BF079007F07021206A3A3A3A39B
:105AF300E0F91228042274F0120E5074F812160CF6
:105B0300890A8A088B09ECFEEDFFA818A919880CED
