:020000040000FA
:06000000020F8A02060750
:03002B00020D4281
:0300530002053C67
:1000830002059B0100F0FF0700080000FFFF0000CE
:10009300070400000003000147726F757000FF043E
:1000A30000100020FD000200009614000000000074
:1000B30000F61400000000000072140000000000AD
:1000C30000000000007E140000000000000000009B
:1000D30000000006FFFF1E017A1800009E180000B2
:1000E300000000000000000000000000000000000D
:1000F300102020202020202020202020202020200D
:100103002001010401000100052981012682010467
:1001130000001618000000E8030000FFFF9018011C
:1001230088130000E803000064006400B801A0BB6A
:100133000D00A0BB0D0002020207040101051E020F
:10014300051E020A0A0101010809080103B80B028E
:10015300803E0102FEFFE8030A050001FFFF010ADA
:100163001401E00105030101FF0F10FEFF0300036B
:100173000003000300030003000300030003000562
:10018300000A00140028004F009E000000F3300016
:10019300000000652F00000000FF000000FF0012B8
:1001A3000F9A601D120FA97005191919801A120EE2
:1001B3003E701F120E52C37003E6673319191940BC
:1001C300071818182208080874FFF618F618F61806
:1001D300F622120E526017121037702192F012108D
:1001E300407019501720F014080808090909E7F6A8
:1001F3001819E7F61819E7F61819E7F6221210404E
:1002030060E6E869701F0808E62480F608E436F61D
:1002130018547FB47F0CE654806007F6E418F61890
:10022300F622181822E9C6CC08C6CD08C6CE08C6E1
:10023300CFC0E0E8C0E0EAC0E0EBC0E009E9F809BC
:10024300E7FA09E7FBE6F918E6F8C3EC98ED99EE4F
:100253009AEBC2E7F5F0EFC2E795F0500E600CEBB6
:10026300CFFBEACEFAE9CDF9E8CCF8EAA2E7D2E788
:10027300FAEB33FB13F5F0EEA2E7D2E7FEEF33FF21
:10028300C5F013A2E730E601B313C5F0C3C0E0C065
:10029300F07F00C39BFB605E9418600F401D1460E9
:1002A3001AD0E023F9D0E0F80203838AF0E948602A
:1002B30003D2F0E4AFF0FAF9F8803BEB30E40D89B8
:1002C300F0EA6003D2F0E4AFF0F9CAF8EB30E30DE3
:1002D30088F0EF6002D2F0AFF0E4CAC9F8EB54073C
:1002E3006014FBC3EA13FAE913F9E813F8EF1350A8
:1002F30002D2E0FFDBEDD0E0C0E030E739C3E49F9A
:10030300FFF5F0EC98FC42F0ED99FD42F0EE9AFE19
:1003130042F0D0E0F9D0E0F8E5F0607AE923F9EEB5
:1003230020E742D8028067C3EF33FFEC33FCED33A1
:10033300FDEE33FE80EAEC28FCED39FDEE3AFED00B
:10034300E023F9D0E0F84002801BC3EE13FEED1367
:10035300FDEC13FCEF135002D2E0FF08B800067F58
:100363007F74FF802EEF3350178CF020F002601063
:100373000CBC000C0DBD00080EBE000408E860DFD5
:10038300E933E813FFEE2313FE4F4D4C8008E95485
:1003930080FFE4FEFDFCEE33EF33F47004FCFD7EDE
:1003A30080D0E0FBD0E0FAD0E0F8D0E0CFC618CEA2
:1003B300C618CDC618CCC6F92200120F9A604F1288
:1003C3000FA96012E7548066F6120E3E70111210E8
:1003D30037703B090909F4F618F618F618F62212D5
:1003E3000E52701512104008080860EAE6447FF6C2
:1003F30018768018E4F618F62212104060161210D0
:10040300377012E4F608F608F608E65480F6090990
:100413000918181822EAC0E0EBC0E0ECC0E0EDC018
:10042300E0E687F0A4FBACF008E687F0A42CFCE43C
:1004330035F0FA1809E687F0A42C4B60027401CA60
:1004430035F0FCE433FB09E687F0D2F7A42CCB3577
:10045300F0FC1908E687F0A42BCC35F0FBE433FD60
:100463000819E687F0D2E7A42C4ACB35F0CD340047
:10047300FC09E687F0D2E7A42DCC35F0FDE433FA8E
:100483000918E687F0D2F7A42CCD35F0CA3400FC66
:1004930008E687F0D2E7D2F7A42ACC35F07A7E209B
:1004A300E70B0ACB33CBCD33CDCC33CC33CB33506B
:1004B300147004ED30E00ED2F1E4CD3DCDCC3CCC54
:1004C3003B5005DA05C2F1EB547FC63308E633929D
:1004D300F0FBE73309E733C39A502D2B70190C0D4A
:1004E3004C4D70151806E608C333700D20F10AA2AF
:1004F300F013F6E418800B4024E4F630F002768023
:1005030018F618F618F68024D33B14501074FFA283
:10051300F013F6187680E418F618F6800FA2F0139D
:10052300F618E63303F618ECF618EDF6D0E0FDD036
:10053300E0FCD0E0FBD0E0FA22C0E074F11208AD99
:10054300A2AFE433F509D2AF85A708AFA1EF5508F1
:10055300FE74105E600612120275A1EF74085E60ED
:100563000812120875A1F78024EFA2E092F0E508C3
:10057300A2E082F05017906198E0F890049AE0C3EB
:1005830098A2D265D0335002E8F075A1FEE509A226
:10059300E092AF7F02020969C0E074F21208ADA2D3
:1005A300AFE433FED2AF9061A4E0F8759B00E59110
:1005B30058540860087591F71212568023E5915834
:1005C300541060087591EF12125C8014E591A2E05B
:1005D30092F0E8A2E082F05007E0C2E0F01213A626
:1005E3009061A3E0F8E5E9585404600E12137C759A
:1005F300E9FB906193E0A2E640F2EEA2E092AF7FC6
:1006030001020969C0E074F21208ADA2AFE433FE3F
:10061300D2AF9061A5E0F8E5BF585404600675BFFA
:10062300FB1213BE80D4C3E498F8E499F912066A66
:100633008026C3E49AFAE49BFBE920E7E912066A01
:10064300E498F8E499F922C3E498F8E499F91206D6
:100653006AE498F8E499F9C3E49AFAE49BFB22EB81
:1006630020E7CFE920E7E0B90010BB0008E88AF0F3
:1006730084F8AAF022E4FBC8FA22EB70227B10C8AC
:1006830033C8C933C9335007C39AC3DBF280069A10
:1006930050012ADBEAC833F4C8C933F4C9FA227516
:1006A300F008E4C833C8C933C933C99AC99B500495
:1006B300C92AC93BD5F0ECFBC833F4C8E4C9FA2214
:1006C30012070320F01430E72B74FFFCFBFA747F4E
:1006D3008022E4FCFBFA7480801AB48008BC00F228
:1006E300BB00EF800F50EBF9E4C39AFAE49BFBE401
:1006F3009CFCE499C6CC18C6CB18C6CA18C6F92206
:10070300E4C9C608CAC608CBC6D3330308CCC6336C
:1007130092F0C3947F402E94184019C9B90704CAB4
:10072300CBCC225025C309CA33CACB33CBCC33CC71
:1007330033D9F422F4600DC9CCC313CB13CBCA1342
:10074300CAD9F6CC22E4FCFBFA2214FCFBFA2208F9
:100753000808EAC0E0EBC0E086F0E7A4FA180986CF
:10076300F0E7A42AFA180986F0E7A42AFA180986FA
:10077300F0E7A42AFA1986F0E7A4FBE5F02AFA19B0
:100783000886F0E7A42BFBE5F03AFA190886F0E7B0
:10079300A42BFBE5F03AFA18180986F0E7A4C5F094
:1007A3002BFBE43AFA1908E7C5F0C6A426F6E5F0F0
:1007B3003BFBE43AFA1886F0E7A4F6E5F00826F6E0
:1007C300E43B08F6E43A08F6D0E0FBD0E0FA22E492
:1007D300CFC0E0E4CEC0E0E4CDC0E0E4CCC0E0753F
:1007E300F020E626F608E633F608E633F608E633A5
:1007F300F6181818EC33FCED33FDEE33FEEF33FF40
:10080300C3EC9709ED9709EE9709EF97191919406A
:100813000FFFEC97FC09ED97FD09EE97FE191906FA
:10082300D5F0BFECF709EDF709EEF709EFF7191962
:1008330019D0E0FCD0E0FDD0E0FED0E0FF22251887
:10084300C582C0E0E51934FFC583C0E0E518C39550
:100853008224F810AF088583198582188008858360
:1008630019858218D2AFCEF0A3E520F0A37808E66D
:1008730008F0A3DEFAEFF0A3E58124FAF8E608F026
:10088300A3E608F0A3E608F0A30808E608F0A3E649
:1008930008F0A315811581D0E0FED0E0F81581158D
:1008A300811581E8C0E0EEC0E022C0D02518C582E2
:1008B300C0E0E51934FFC583C0E0E518C395822481
:1008C300F310AF08858319858218800885831985FD
:1008D3008218D2AFC8F0A3E9F0A3EAF0A3EBF0A328
:1008E3007908E709F0A3D8FAECF0A3EDF0A3EEF052
:1008F300A3EFF0A3D0E0F0A3D0E0F0A3D0E0F0A307
:10090300E520F0A3E5F0F0A322E9799EC608CAC664
:1009130008CBC608CCC6C370207996CACBCC701955
:10092300798ECBCC70137986CC700EF9802ACA33BA
:10093300CACB33CBCC33CC331930E7F2CCCBCA336D
:1009430050147004EA30E00DE4CA3ACACB3BCBCC76
:100953003CCC500209C3E913C6CC182313C6CB18E9
:10096300C6CA18C6F922851983851882E0C0E0A398
:10097300E0F9A3E0FAA3E0FBA37808E0F608A3DF1D
:10098300FAE0FCA3E0FDA3E0FEA3E0FFA3E0C0E0E8
:10099300A3E0C0E0A3E0F5D0A3E0F520A3E0A3F536
:1009A300F010AF088583198582188008858319851F
:1009B3008218D2AFD082D083D0E0F8D0E0321210C8
:1009C30022B90003020A00E4900401788D791880AB
:1009D30002F0A3D8FCD9FA7A8D7B1B900086781D90
:1009E30079028015E493A3AD82AE838A828B83F070
:1009F300A3AA82AB838D828E83D8E9D9E77582EA75
:100A03007583FD7404120CD37582C075832C740036
:100A1300120CD3E47375F0108E1A8F1B85821F8519
:100A2300831E851882851983E0CEA3E0CF851F82BC
:100A3300851E83EBC9EAC8EDCBECCAC3E833C8E92A
:100A430033C9EA33CAEB33CBC3EA9EF51DEB9FF5FB
:100A53001CB35004AB1CAA1DEC33CCED33CDD5F045
:100A6300DAAE1AAF1B22D083D082ECC0E0EDC0E037
:100A7300E493A3FCE493A3FDED4C600D120B41EC56
:100A830024FFFCED34FFFD80EFE493A3FCE493A388
:100A9300FDED4C600D120BDEEC24FFFCED34FFFD8D
:100AA30080EFD0E0FDD0E0FCE493A3C0E0E493C08A
:100AB300E022851983851882E0A3FEE0A3F5207860
:100AC30008E0A3F608DFFAE0A3FFE0A3C0E0E0A399
:100AD300C0E0E0A3C0E0E0A3C0E0E0A3C0E010AF4B
:100AE300088582188583198008858218858319D221
:100AF300AFD083D082020CD9D083D082E9C0E0E4A6
:100B030093A3C386F0C5F095F0F908E493A386F0A8
:100B1300C5F095F0700BE493A3C3994005E90480F5
:100B230002A3E475F002A42582F582E5F03583F58E
:100B330083D0E0F9E493A3C0E0E493C0E022C0E0F3
:100B4300C3E49396087401939618400FE493667078
:100B53000808740193661870007019A3A3C3E49383
:100B630096087401939618A3A3400DD0E0D0E0D06B
:100B7300E0020AA5A3A3A3A3A3A3D0E02274048045
:100B83000474028000CCC0E0EDC0E0E518C39CCC47
:100B9300AD1950011D10AF068C188D1980068C18E5
:100BA3008D19D2AF120C55D0E0FDD0E0FC227402B7
:100BB3008000CCC0E0EDC0E0E518C39CCCAD19507B
:100BC300011D10AF068C188D1980068C188D19D253
:100BD300AF120C33D0E0FDD0E0FC22C0E0C0F088BF
:100BE300F0E4936670080874019366187000A8F027
:100BF300A3A3700BD0F0D0E0D0E0D0E0020AA5A30D
:100C0300A3D0F0D0E022D083D082CCC0E0E493A381
:100C13006006120CB41470FAE493A36006120DBFBD
:100C23001470FAD0E0FCE493A3C0E0E493C0E022A4
:100C3300CAC0E0E493A3C582CCC582C583CDC58376
:100C4300F0A3C582CCC582C583CDC583DAE5D0E0E8
:100C5300CA22CAC0E0E0A3C582CCC582C583CDC584
:100C630083F0A3C582CCC582C583CDC583DAE6D024
:100C7300E0CA22C008C3E096F50808A3E09642083C
:100C830008A3E096420808A3E09645087001D3D074
:100C930008227009080808226016181818C6C333FA
:100CA300C608C633C608C633C608C633C6D5E0EA87
:100CB30022C0E0E493A3D39C5010E493A3C39C40CD
:100CC3000AD0E0D0E0D0E0020C26A3A3A3D0E02218
:100CD300C09FF59FE473D09F22D083D082C09FE44E
:100CE30093C0E0740193C0E0740293F59F227404EF
:100CF300800A74038006740280027401C0E0F40465
:100D0300120D0CD0E0120FE5222518F58210AF0862
:100D1300F518400C15198008F51840021519D2AFC3
:100D23008519832200C0D0251810AF08F518500C80
:100D330005198008F51850020519D2AFD0D022C08A
:100D4300E0C0D0E8C0E0A8A8D2AFC2C7E8A2E7924B
:100D5300AFD0E0F8D0D0D0E032BB0102E722C082AE
:100D6300C08389828A83BB0003E08002E493D0833B
:100D7300D082226016080808C6C313C618C613C655
:100D830018C613C618C613C6D5E0EA22C3E0C69632
:100D9300F608A3E0C696F608A3E0C696F608A3E015
:100DA300C696F6222518F8E43519F9222518FAE42F
:100DB3003519FB222518FCE43519FD22C0E0E49324
:100DC300A36C7009D0E0D0E0D0E0020C26A3A3D03E
:100DD300E022251810AF08F518400C15198008F506
:100DE3001840021519D2AF22E76670100809E766AA
:100DF300700A0809E76670040809E76622C3E096EB
:100E030008A3E09608A3E09608A3E096A2D265D0D3
:100E13003322E066701008A3E066700A08A3E06658
:100E2300700408A3E06622C3E096F008A3E096F0FE
:100E330008A3E096F008A3E096F022181818E60835
:100E430046087009E626087005E633F422082219DD
:100E53001919E70947097009E727097005E733F40A
:100E6300220922C3E49396087401939608740293AB
:100E730096087403939622C3E697F60809E697F655
:100E83000809E697F60809E697F622E026F608A38E
:100E9300E036F608A3E036F608A3E036F622E4933C
:100EA300F608740193F608740293F608740393F634
:100EB30022700422600D18C6C333C608C633C6D5D4
:100EC300E0F41822E657F60809E657F60809E6574C
:100ED300F60809E657F622E056F608A3E056F608A8
:100EE300A3E056F608A3E056F622E056F008A3E086
:100EF30056F008A3E056F008A3E056F022E627F6E2
:100F03000809E637F60809E637F60809E637F62250
:100F1300E026F008A3E036F008A3E036F008A3E0EB
:100F230036F022E647F60809E647F60809E647F6EB
:100F33000809E647F622E4C396F608E496F608E4C1
:100F430096F608E496F622600D08C6A2E713C618C3
:100F5300C613C6D5E0F322C6F4C608C6F4C608C64F
:100F6300F4C608C6F4C622C3E7960809E79608093B
:100F7300E7960809E79622C3E09608A3E09608A33C
:100F8300E09608A3E0962275D00075813F7518019D
:100F9300751904000209C1E6084608C3134608335D
:100FA3006002E633F422E7094709C31347093360B4
:100FB30002E733F422600C08C6C313C618C613C66F
:100FC300D5E0F422E6F008A3E6F008A3E6F008A3D0
:100FD300E6F022E0F608A3E0F608A3E0F608A3E0B3
:100FE300F622CAC0E0E6F0A308DAFAD0E0FA22E07B
:100FF300FAA3E0FBA3E0FCA3E0FD22EAF0A3EBF0FD
:10100300A3ECF0A3EDF022E0F8A3E0F9A3E0FAA348
:10101300E0FB22E8F0A3E9F0A3EAF0A3EBF022E57A
:10102300C754F84401F5C77901222518F582E43540
:1010330019F58322E72719471947194722E6261886
:10104300461846184622C2AF75D69F0200002212E8
:101053000CDCA2E005120CDCD6E005120CDC8A6E77
:1010630000120CDC066F00120CDC396F00120CDC72
:10107300676F00120CDC8B7100120CDCA77100127D
:101083000CDCEC7100120CDC717200120CDCBD7212
:1010930000120CDC4D7300120CDC267400120CDC05
:1010A300777400120CDCDC7400120CDC4F75001238
:1010B3000CDC937500120CDCEB7500120CDC0D7666
:1010C30000120CDC9D7600120CDC2E7700120CDC77
:1010D3007A7700120CDCA67700120CDCE77700129B
:1010E3000CDC887900120CDC6A7A00120CDC467B7B
:1010F30000120CDCADAB06120CDCC8AB06120CDC28
:10110300FAAB06120CDC27AC06120CDC4CAC061254
:101113000CDC77AC06120CDCA2AC06120CDCD2ACF5
:1011230006120CDC5CBC06120CDC6DBC06120CDC7B
:101133000BBD06120CDC25BD06120CDCF67F00127B
:101143000CDCE3FF04120CDCD4BD06120CDCE4BDA2
:1011530006120CDCF6BD06120CDC3FBE06120CDCDC
:101163007EB806120CDC02B906120CDC6AB9061250
:101173000CDCF07F00120CDC14A306120CDC22A39F
:1011830006120CDC9BA306120CDC70A406120CDC0A
:1011930042A606120CDCC0BF06120CDC1E87061228
:1011A3000CDC4A8706120CDCE18906120CDC218A6E
:1011B30006120CDC5D8A06120CDC718A06120CDC4A
:1011C3008A8A06120CDC7B8B06120CDC2D8C061231
:1011D3000CDC418C06120CDC48B206120CDC6CB23F
:1011E30006120CDC85B206120CDCC3B206120CDC50
:1011F300F3B206120CDC20B306120CDC86B3061223
:101203000CDC89B306120CDC93B306120CDCA0B31E
:1012130006120CDCB1A606120CDCD1A606120CDCFD
:1012230010A706120CDC2EA706120CDC49A7061227
:101233000CDCAFA706120CDCBBA706120CDC18A84B
:1012430006120CDC27A806120CDC4BA806120CDCD9
:101253000CA906120CDC19A906120CDC2AA9061229
:101263000CDC7BFF01120CDCC3FF01120CDCEFFF73
:1012730001120CDC3A9606120CDC969706120CDC73
:10128300A49706120CDCB79706120CDCCC97061257
:101293000CDCE19706120CDCF49706120CDC709858
:1012A30006120CDCD59806120CDC6B9906120CDCCA
:1012B300449A06120CDC549A06120CDC639A06124A
:1012C3000CDC3BBD06120CDC5FBD06120CDC87BDDB
:1012D30006120CDCAFBD06120CDC58A906120CDC9E
:1012E3007FA906120CDC9DA906120CDC0CAA0612BF
:1012F3000CDCB2FC01120CDCCBFC01120CDCD7FCC5
:1013030001120CDCEBFC01120CDC09FD01120CDCFC
:1013130013FD01120CDC1DFD01120CDC30FD01126A
:101323000CDCB6FD01120CDC2BFE01120CDC5AFEA8
:1013330001120CDCA8FE01120CDCF7FE01120CDC1E
:1013430012FF01120CDC1CFF01120CDC2DFF011239
:101353000CDC70FF01120CDCA4BE06120CDC82EB69
:1013630005120CDCAEEB05120CDCCBEB05120CDC2E
:10137300DEEB05120CDCF9EB05120CDC53EC051269
:101383000CDC81EC05120CDC91F005120CDCEFF1A6
:1013930005120CDC21F205120CDC84F205120CDCC4
:1013A300F0F305120CDC18F405120CDC2DF4051215
:1013B3000CDC3DF405120CDC7DF405120CDCBFF4EF
:1013C30005120CDCCFF405120CDC34B606120CDC6F
:1013D3004EB606120CDC76B606120CDC8FB606127D
:1013E3000CDCB3B606120CDCD1B606120CDCE8B684
:1013F30006120CDC16B706120CDC31B706120CDC35
:101403003FBF06120CDC75FC03120CDC85FC0312D7
:101413000CDC8AFD03120CDCBCFD03120CDCECFDBE
:1014230003120CDC0FFE03120CDC26FE03120CDC91
:1014330060FE03120CDCC5FE03120CDC07FF031273
:101443000CDC4EFF03120CDC7BFF03120CDCA6FF4B
:1014530003120CDCEFB406120CDC0DB506120CDC27
:101463006FB506120CDC09B606120CDC71BB061252
:101473000CDC64B706120CDCACB706120CDC34AF20
:1014830006120CDC95B006120CDCAAB306120CDCB7
:10149300CFB406120CDC1CE105120CDCA6E4051229
:1014A3000CDCA2E605120CDCD4E705120CDCADE87B
:1014B30005120CDC3DEA05120CDC09EB05120CDC11
:1014C3005DEB05120CDC72AD06120CDC93AD06125B
:1014D3000CDCCDAE06120CDCF7AE06120CDC85BFBD
:1014E30006120CDC95BF06120CDC9FBF06120CDC47
:1014F300C5B905120CDCC8B905120CDCA4C1051270
:101503000CDCF6C205120CDC57C405120CDC2EC52C
:1015130005120CDC07C605120CDCF0C605120CDC48
:10152300E4C705120CDC9CC805120CDCCCC8051200
:101533000CDC7CCA05120CDCE4B006120CDC04B132
:1015430006120CDC18B206120CDC1BB206120CDC01
:1015530083BA06120CDCB9BA06120CDCD1BA061235
:101563000CDC13BB06120CDC23BB06120CDC67BBC2
:1015730006120CDC008006120CDC3A8006120CDC2E
:10158300A38006120CDCC28006120CDCDB80061280
:101593000CDC7D8106120CDC868106120CDCD78103
:1015A30006120CDC008206120CDC0D8206120CDC27
:1015B3007E8206120CDC0C8306120CDC5A830612A4
:1015C3000CDC908306120CDCF18306120CDC1A840B
:1015D30006120CDC918406120CDCED8406120CDC82
:1015E3002A8506120CDC618506120CDC7385061253
:1015F3000CDC858506120CDCA48506120CDCAD859B
:1016030006120CDC688606120CDCB48606120CDCAF
:10161300F28606120CDC558C06120CDC958D061234
:101623000CDCB88D06120CDCC98D06120CDCE88FBD
:1016330006120CDC089006120CDC42BE06120CDC0F
:10164300C2FD02120CDCF8FD02120CDC40FE021299
:101653000CDC99FF02120CDCABE904120CDCDCEAB3
:1016630004120CDC18EB04120CDCD2EC04120CDCBC
:10167300FCEC04120CDC75EF04120CDCB5EF041265
:101683000CDC49F104120CDCE8F104120CDC40F22E
:1016930004120CDCD3F204120CDC0DF304120CDC88
:1016A3004FF304120CDCC2F404120CDC42F60412F5
:1016B3000CDC7FF804120CDCADF804120CDCD9F856
:1016C30004120CDCE2F804120CDC3FF904120CDC0B
:1016D300CFF904120CDC0BFD04120CDC8DFD04129B
:1016E3000CDC4FC006120CDC65C006120CDC0F9F2D
:1016F30006120CDC259F06120CDCC99F06120CDCBB
:1017030008A006120CDC25A006120CDC56A006125B
:101713000CDCA3A006120CDCD7A006120CDC12A171
:1017230006120CDC07A306120CDC83B906120CDCD0
:10173300E2B906120CDC20BA06120CDC61BA0612FE
:101743000CDC008004120CDC0C8004120CDC6E80B8
:1017530004120CDC788004120CDC058104120CDC0E
:10176300418104120CDC048204120CDC1782041283
:101773000CDC858204120CDCED8204120CDC7C830D
:1017830004120CDCFA8304120CDC9F8504120CDCBB
:10179300588704120CDC9E8804120CDC1B8A04128A
:1017A3000CDCC28A04120CDC908F04120CDC8790D0
:1017B30004120CDC169104120CDC3B9104120CDCB9
:1017C300D89104120CDCF59104120CDC159204126E
:1017D3000CDC869204120CDCA39204120CDCD19272
:1017E30004120CDC699404120CDC8A9404120CDCE1
:1017F300309504120CDC789504120CDCEA95041283
:101803000CDC6D9604120CDCD29604120CDC2F97C0
:1018130004120CDCCE9704120CDC429804120CDC8C
:101823007E9804120CDCEB9804120CDC559A04121B
:101833000CDCD69B04120CDC859C04120CDCE79EAA
:1018430004120CDC499F04120CDC779F04120CDC9D
:101853008FA104120CDC1FA404120CDC22A50412B9
:101863000CDC949A06120CDC5B9B06120CDCC79C06
:1018730006120CDCE79C06120CDCEA9C06120CDC5C
:10188300F39C06120CDC159D06120CDC3E9D061221
:101893000CDC829D06120CDC999D06120CDCD79D94
:1018A30006120CDC179E06120CDC739E06120CDC6F
:1018B30024C006120CDC9FCB04120CDC3ECC0412B9
:1018C3000CDCBACC04120CDCA9CD04120CDCA7CEC0
:1018D30004120CDC26CF04120CDC68D004120CDCDE
:1018E30009D104120CDCC9D204120CDCD0D30412CB
:1018F3000CDCEDD304120CDC18D504120CDC55D629
:1019030004120CDCFFD604120CDC69DA04120CDCC2
:1019130071DC04120CDCFADC04120CDC54DD04125E
:101923000CDCA2DD04120CDC1DDE04120CDC9FDED9
:1019330004120CDCDBDE04120CDC7FE504120CDC8D
:10194300DAE704120CDCB6E804120CDC349D051251
:101953000CDC669D05120CDCEA9D05120CDC4D9F28
:1019630005120CDC3BA005120CDC03A205120CDCF7
:1019730028A205120CDC7AA205120CDC0CA30512BA
:101983000CDC58A305120CDC6BA305120CDCC8A3FA
:1019930005120CDC37A405120CDC04A505120CDCC3
:1019A30072A505120CDCA9A505120CDCF2A5051223
:1019B3000CDC9AA705120CDC79A805120CDCC7A96C
:1019C30005120CDCAAAA05120CDC36AB05120CDCE2
:1019D3006FAB05120CDC8EAB05120CDCD9AB051218
:1019E3000CDCF9AB05120CDCB6AC05120CDCC3AD98
:1019F30005120CDCD7AD05120CDC2BAE05120CDC8A
:101A030086AE05120CDCD3AE05120CDCDBAF05127F
:101A13000CDC60B205120CDC86B205120CDC01B3DF
:101A230005120CDC26B305120CDCADB305120CDC7D
:101A330089B405120CDCC7B405120CDC4BB50512D6
:101A43000CDC36B605120CDC39B605120CDC43B6D9
:101A530005120CDC4DB605120CDC69B605120CDC64
:101A6300E5B605120CDC1EB705120CDC3AB70512FD
:101A73000CDC66B705120CDC8DB705120CDCB1B7B4
:101A830005120CDCECB705120CDC5FB805120CDC9C
:101A930093B805120CDC9DB805120CDCD9B80512FD
:101AA3000CDCF3B805120CDC1AB905120CDC49B9CD
:101AB30005120CDC68B905120CDC80B905120CDCCC
:101AC30092B905120CDCEFBE06120CDC07BF06123E
:101AD3000CDCF37F00120CDCFFF405120CDC4EF57A
:101AE30005120CDC0CF705120CDCC6F805120CDC35
:101AF30004F905120CDCF9F905120CDC04FB0512E0
:101B03000CDC26FB05120CDC70FB05120CDCF1FB74
:101B130005120CDC2AA904120CDC4DA904120CDCFE
:101B2300ABAA04120CDCF4AA04120CDC52AB0412B0
:101B33000CDCB8AB04120CDCBBAB04120CDC0CAC3D
:101B430004120CDC86AC04120CDC14AD04120CDCA5
:101B530017AD04120CDC9FAD04120CDCE2AD0412D1
:101B63000CDC52B204120CDCF0B304120CDC2AB409
:101B730004120CDC70B404120CDCD0B704120CDCBD
:101B830055B804120CDCEDB904120CDCFCBA0412D7
:101B93000CDC29BC04120CDC89BC04120CDC65BD12
:101BA30004120CDCEFBD04120CDCF2BD04120CDCDD
:101BB300D7BE04120CDC1DC004120CDCD1C104120C
:101BC3000CDCA4C304120CDC36C404120CDCCBC43E
:101BD30004120CDCBDC504120CDC7DC704120CDC42
:101BE30093C804120CDC02CA04120CDC47CA0412A8
:101BF3000CDCF2CA04120CDC008005120CDC9B80A6
:101C030005120CDC0E8105120CDC298105120CDC9B
:101C1300CA8105120CDC118205120CDC3483051217
:101C23000CDC778305120CDCF38305120CDC468491
:101C330005120CDCA58405120CDCB28505120CDC44
:101C4300CF8805120CDC058A05120CDC8E8A05127E
:101C53000CDC928C05120CDC368D05120CDCD58D58
:101C630005120CDC368E05120CDCA58E05120CDC7D
:101C7300FE8F05120CDCE89005120CDC2391051293
:101C83000CDC439105120CDCF49105120CDC31924F
:101C930005120CDCBA9205120CDC359405120CDC2F
:101CA300009605120CDC5B9705120CDCD09805122C
:101CB3000CDCDF9905120CDC6C9A05120CDCD59A4E
:101CC30005120CDCE19B05120CDCCBD903120CDCF6
:101CD3002EDA03120CDC76DA03120CDCB4DA03120C
:101CE3000CDC0FDB03120CDC6CDB03120CDCA7DB5C
:101CF30003120CDC29DC03120CDC83DC03120CDC86
:101D0300F7DD03120CDC75DE03120CDC8DDF03122E
:101D13000CDCB5DF03120CDC04E103120CDC15E16F
:101D230003120CDC2DE103120CDC42E203120CDC87
:101D33001FE303120CDC1CE403120CDC40E403126B
:101D43000CDC57E403120CDC78E403120CDC9AE499
:101D530003120CDCB9E403120CDC8DE503120CDC7A
:101D6300E7E503120CDC88E803120CDCE1E803125C
:101D73000CDC00E903120CDCEBE903120CDC21EAB6
:101D830003120CDC5BEB03120CDCDAEB03120CDC4E
:101D930011EC03120CDC4BEC03120CDCBAEC031257
:101DA3000CDC7BED03120CDC54EF03120CDC7CFC2B
:101DB30002120CDCCCF103120CDCCCF303120CDCAE
:101DC30047F603120CDC21F803120CDCE2F80312D1
:101DD3000CDC5AF903120CDC71F903120CDC6BFAFC
:101DE30003120CDC63FB03120CDCD2FB03120CDCCE
:101DF300207C00120CDCD07D00120CDC8F7E0012E4
:101E03000CDCF77E00120CDC6B7F00120CDC21FC77
:101E130005120CDC3FFC05120CDC83FC05120CDC08
:101E2300A9FC05120CDCD0FC05120CDC4BE00512FE
:101E33000CDC00FD05120CDCA2FD05120CDCE4FD3C
:101E430005120CDC06FF05120CDC0FFF05120CDC7F
:101E530018FF05120CDC21FF05120CDC2BFF051209
:101E63000CDC4A9106120CDC7E9506120CDC8C9578
:101E730006120CDC919506120CDC70FE04120CDCCD
:101E8300F8BF06120CDC008003120CDC3280031254
:101E93000CDC9E8003120CDC398103120CDCD8812C
:101EA30003120CDC1D8203120CDC3F8203120CDCD8
:101EB300588203120CDC7E8203120CDCA082031214
:101EC3000CDCDE8203120CDC228303120CDC448361
:101ED30003120CDCA68303120CDC6D8403120CDCEE
:101EE300248503120CDC968503120CDC688603122E
:101EF3000CDCB28603120CDC058703120CDC6B8747
:101F030003120CDCA58703120CDCF78703120CDC2D
:101F1300138803120CDC3E8803120CDC458A03127F
:101F23000CDC998B03120CDCBB8B03120CDCEF8BE8
:101F330003120CDC108C03120CDC1F8C03120CDC60
:101F43002A8C03120CDCDA8C03120CDC438D031293
:101F53000CDCF08D03120CDC288E03120CDCEE8EED
:101F630003120CDCFB8F03120CDC459003120CDC18
:101F7300D49003120CDC389103120CDC739103121E
:101F83000CDCDF9303120CDC339503120CDC6C982E
:101F930003120CDC399903120CDCC79903120CDC15
:101FA300F09903120CDC629A03120CDCF69A03120A
:101FB3000CDC549B03120CDC469C03120CDC689C67
:101FC30003120CDCC49D03120CDCDD9D03120CDC3C
:101FD300F09D03120CDC4D9E03120CDC5C9E03127D
:101FE3000CDCEF9E03120CDCFB9F03120CDC08A03D
:101FF30003120CDC11A003120CDCE9A103120CDCAC
:102003000FA303120CDC1FA303120CDC21A4031285
:102013000CDC98A403120CDCC7A403120CDCCDA5C2
:1020230003120CDC13A603120CDCDFA703120CDC77
:10203300B7AB03120CDCC1AB03120CDCD5AB031240
:102043000CDCDFAB03120CDCE9AB03120CDCF3ABEF
:1020530003120CDC0CAC03120CDC16AC03120CDC0C
:102063008AAC03120CDC95AC03120CDCBAAC031281
:102073000CDCC5AC03120CDC13AD03120CDC1DAD80
:1020830003120CDC28AD03120CDC4CAD03120CDC88
:1020930070AD03120CDCCCAD03120CDC12AE0312D8
:1020A3000CDC2FAE03120CDCACAE03120CDCE3AE83
:1020B30003120CDC22AF03120CDC6FAF03120CDC37
:1020C300F1AF03120CDC8AB003120CDC5AB2031218
:1020D3000CDCB8B203120CDCD4B303120CDCFAB37D
:1020E30003120CDC39B503120CDC5FB803120CDCF1
:1020F300A0BA03120CDC7CBC03120CDC12BD03126D
:102103000CDC39BF03120CDCE5BF03120CDC1AC074
:1021130003120CDC7FC003120CDC89C003120CDC3D
:10212300B3C203120CDCDAC303120CDC1AC40312AD
:102133000CDCC0C403120CDC51C603120CDCDAC77E
:1021430003120CDCFAC703120CDC53C803120CDCB9
:1021530055C903120CDC9FC903120CDCEFC903122F
:102163000CDCD9CA03120CDC4ECB03120CDC68CC9A
:1021730003120CDCE3CC03120CDCE8CD03120CDC01
:1021830093D003120CDCB2D003120CDC13D2031273
:102193000CDCD5D303120CDC29D403120CDCE1D400
:1021A30003120CDC90D503120CDCE6D503120CDC15
:1021B3009CD603120CDC31D703120CDC9DD703121F
:1021C3000CDCD7D703120CDC08D803120CDC64D95F
:1021D30003120CDC008002120CDC328002120CDCD5
:1021E300698002120CDC528202120CDC358302126B
:1021F3000CDC8D8302120CDCC88402120CDC148507
:1022030002120CDC3C8802120CDC9E8B02120CDCEA
:10221300EB8C02120CDC818D02120CDC8D8D021210
:102223000CDCBF8D02120CDC418F02120CDC4F90D0
:1022330002120CDC799002120CDCD09002120CDC3E
:10224300299102120CDC959102120CDCAC93021260
:102253000CDC3B9502120CDC059602120CDC439756
:1022630002120CDC739902120CDC439C02120CDC8C
:10227300509C02120CDCD79C02120CDC7F9D0212D4
:102283000CDCC29D02120CDC0B9E02120CDC5F9E66
:1022930002120CDCC49E02120CDC2C9F02120CDC1A
:1022A300499F02120CDC799F02120CDCAE9F0212D2
:1022B3000CDC7EA002120CDC27A102120CDCABA307
:1022C30002120CDCCBA402120CDCB4A502120CDC4F
:1022D30036A602120CDC58AA02120CDC95AA0212D2
:1022E3000CDCEDAA02120CDC20AB02120CDCA1AB5D
:1022F30002120CDCEEAB02120CDC79AC02120CDC29
:10230300CBAC02120CDCA2AD02120CDC5BAE0212EF
:102313000CDCF6AE02120CDC0FB202120CDC2FB393
:1023230002120CDCE0B602120CDCFEB702120CDC6B
:1023330001B802120CDC30B802120CDC36BA0212FD
:102343000CDC0FBB02120CDC44BB02120CDC4CBCD9
:1023530002120CDC02BD02120CDCA3BE02120CDC66
:10236300C8BE02120CDC07BF02120CDC79BF0212DA
:102373000CDC5DC002120CDC2AC102120CDC60C34F
:1023830002120CDCD1C302120CDC11C402120CDCED
:102393004AC402120CDCDEC402120CDC27C6021291
:1023A3000CDCEAC902120CDCD9CA02120CDCC0CB69
:1023B30002120CDC38CC02120CDCFACC02120CDC5C
:1023C300F8CE02120CDC10CF02120CDC24CF021266
:1023D3000CDC5CCF02120CDC8ACF02120CDC11D1B4
:1023E30002120CDC1CD202120CDC6ED202120CDCC8
:1023F300D6D202120CDC88D302120CDCB8D3021240
:102403000CDC9CD402120CDC4DD502120CDC3CD744
:1024130002120CDC71D702120CDCD9D702120CDCCD
:1024230008D902120CDCBAD902120CDCEBD9021265
:102433000CDC03DA02120CDC92DA02120CDC46DD4D
:1024430002120CDC1EDF02120CDC3ADF02120CDC7F
:1024530056DF02120CDC24E002120CDC08E4021248
:102463000CDC2C8201120CDC648201120CDC42872E
:1024730001120CDC888701120CDCD58801120CDCFC
:10248300408901120CDCC98A01120CDCD98D0112BE
:102493000CDCF48E01120CDC069901120CDC999908
:1024A30001120CDCEB9C01120CDCE79D01120CDC2D
:1024B300429E01120CDC8C9F01120CDC7AA00112EB
:1024C3000CDC16A301120CDC8AA401120CDC0DA592
:1024D30001120CDC10A501120CDC85A501120CDC29
:1024E3008FA501120CDC9CA501120CDCC7A50112FF
:1024F3000CDC77A601120CDC70A701120CDC1BA804
:1025030001120CDC39A801120CDC52A801120CDCFC
:102513007BA801120CDC9DA801120CDCF2AA0112AB
:102523000CDCB7AB01120CDCFCAB01120CDC7BAC9A
:1025330001120CDC27AD01120CDC59AD01120CDCCD
:10254300ADAD01120CDCE8AD01120CDC2FAE0112B3
:102553000CDC7FAE01120CDC84AE01120CDCD8AEB5
:1025630001120CDC04AF01120CDCEDAF01120CDC28
:102573003EB001120CDC9EB001120CDCF8B001126B
:102583000CDC93B101120CDCD2B401120CDCE4B507
:1025930001120CDC5EB701120CDC6EBA01120CDC0A
:1025A3000CBB01120CDC02BE01120CDCC1BE011219
:1025B3000CDC05BF01120CDCB0C001120CDCC4C082
:1025C30001120CDCCEC001120CDCD8C001120CDCF1
:1025D300E4C001120CDC09C101120CDCE2C20112DD
:1025E3000CDC37C301120CDC41C301120CDC4BC3FE
:1025F30001120CDCC0C301120CDC0FC401120CDC91
:1026030020C501120CDC6DC501120CDC7AC6011267
:102613000CDCBEC601120CDC64C701120CDC57C80B
:1026230001120CDC1DC901120CDC40CA01120CDCC6
:102633005ECB01120CDC46CC01120CDC5ECC011229
:102643000CDCB5CC01120CDCBFCC01120CDCC9CC08
:1026530001120CDCD4CC01120CDCF2CC01120CDC28
:102663003ACD01120CDC9CCD01120CDCC3CD01125E
:102673000CDCD5CD01120CDC70CE01120CDCA5CE26
:1026830001120CDC8CCF01120CDCD1CF01120CDC5B
:10269300B7D001120CDCDED001120CDC61D10112C7
:1026A3000CDCD2D101120CDC5BD301120CDC87D41D
:1026B30001120CDC4AD501120CDC12D601120CDC1F
:1026C3009CD601120CDCC4D701120CDC66D80112B3
:1026D3000CDCE1D801120CDC9DD901120CDCE7D92A
:1026E30001120CDC41DA01120CDC19DB01120CDCE7
:1026F3003CDB01120CDCEFDB01120CDC11DC011200
:102703000CDC7ADC01120CDC90DE01120CDC88DFBD
:1027130001120CDC4CE001120CDC7EE201120CDC39
:10272300C8E201120CDC18E301120CDC7CE3011299
:102733000CDCDEE301120CDC0CE401120CDC30E4F3
:1027430001120CDC65E401120CDC96E401120CDCD2
:10275300C9E401120CDC19E501120CDC6CE5011271
:102763000CDC91E601120CDC31E801120CDC8CE884
:1027730001120CDCB5E801120CDC42E901120CDC9D
:10278300B0E901120CDCBEE901120CDCE2E9011232
:102793000CDC37EA01120CDC52EA01120CDC04EB0C
:1027A30001120CDC3CEB01120CDC7FEB01120CDCA4
:1027B300E2EB01120CDCE4ED01120CDC0EEE011273
:1027C3000CDC05EF01120CDC0FF001120CDCBFF086
:1027D30001120CDC9DF101120CDCD5F101120CDCB1
:1027E300F6F101120CDC38F201120CDC9AF2011240
:1027F3000CDCA4F201120CDCB4F201120CDCEFF2DB
:1028030001120CDCCFF601120CDCBCF801120CDC5B
:10281300A2FA01120CDC39FB01120CDCDBFB011206
:102823000CDC7B3400120CDC263500120CDCD435B6
:1028330000120CDCDA3600120CDCFA3600120CDC67
:10284300233800120CDCDE3900120CDC513A001282
:102853000CDCF53A00120CDC013C00120CDC6C3C85
:1028630000120CDCA83C00120CDCEB3C00120CDC6C
:10287300263D00120CDC683D00120CDCFD3D00120D
:102883000CDC793E00120CDC433F00120CDC2040D0
:1028930000120CDCB84000120CDCD24000120CDC3D
:1028A300024100120CDC334100120CDCF94100122E
:1028B3000CDC094200120CDC584200120CDC6542AD
:1028C30000120CDC6E4200120CDCEC4200120CDC39
:1028D300484300120CDC934300120CDCAE4300129D
:1028E3000CDCD94300120CDCF64300120CDC02446E
:1028F30000120CDC994500120CDCB24500120CDC12
:10290300374600120CDC4A4600120CDC6946001202
:102913000CDC0D4700120CDC8E4800120CDC414A23
:1029230000120CDCD74A00120CDCDA4A00120CDC71
:102933004A4B00120CDC684B00120CDCFF4B0012FC
:102943000CDC474C00120CDC4A4C00120CDC104D22
:1029530000120CDC7D4D00120CDCA34D00120CDCCC
:102963002E4E00120CDC4C4E00120CDC924E001268
:102973000CDC464F00120CDC904F00120CDCBF4FF6
:1029830000120CDC1C5000120CDC515000120CDC49
:102993007D5000120CDC8B5000120CDCD85000125E
:1029A3000CDC485100120CDC915100120CDCDD519F
:1029B30000120CDC095200120CDC145200120CDC65
:1029C300325200120CDC1D5300120CDC2753001290
:1029D3000CDC625300120CDC725300120CDCC65385
:1029E30000120CDCDA5300120CDC095500120CDC6B
:1029F3001E5500120CDCAC5500120CDCF155001214
:102A03000CDC7D5600120CDC885600120CDCCA5715
:102A130000120CDCE55700120CDC315800120CDC00
:102A2300A05800120CDCD95800120CDCF358001229
:102A33000CDC535900120CDCF25900120CDC3D5A29
:102A430000120CDC0D5D00120CDCBF5D00120CDC0F
:102A53002C5E00120CDC6C6000120CDC8460001233
:102A63000CDC876000120CDC936000120CDCA760A6
:102A730000120CDCAF6000120CDCE26000120CDC14
:102A8300E56100120CDC726200120CDCE2620012DF
:102A93000CDC646300120CDC256400120CDC44645F
:102AA30000120CDCE56400120CDC426500120CDC45
:102AB300456500120CDCB96500120CDC08670012D6
:102AC3000CDC0E6800120CDC996800120CDCB46993
:102AD30000120CDC7C6A00120CDCAD6A00120CDC08
:102AE300D06A00120CDCD96A00120CDC086B0012ED
:102AF3000CDC986B00120CDC4E6C00120CDCC36C0B
:102B030000120CDC6A6D00120CDCDF6D00120CDCB1
:102B1300166E00120CDC546E00120CDC19FC02124F
:102B23000CDCEFFB02120CDCDBFB02120CDCD1FB36
:102B330002120CDC64FB02120CDC95F902120CDCB1
:102B430053F902120CDC69F802120CDC3DF8021294
:102B53000CDCF4F702120CDCEDDE05120CDC3FDEBC
:102B630005120CDC31F702120CDC00F402120CDC4F
:102B7300A2DD05120CDC98DD05120CDCA2F10212B9
:102B83000CDC72F102120CDC22F102120CDCBCF040
:102B930002120CDC7BF002120CDC5BF002120CDC88
:102BA3008DEF02120CDC27EF02120CDCC6EE0212D0
:102BB3000CDC66EE02120CDC04ED02120CDC98EC69
:102BC30002120CDCECEB02120CDCE7EB02120CDC65
:102BD300D0EB02120CDC9BEB02120CDC35E8021288
:102BE3000CDC32E802120CDC2DDD05120CDC19E8DA
:102BF30002120CDC12DD05120CDC62DC05120CDCAB
:102C030068DB05120CDC8EDA05120CDCE4D7051246
:102C13000CDCF6D605120CDC0EE802120CDCDDE748
:102C230002120CDC04E602120CDC8BE502120CDC53
:102C330088D605120CDC22E502120CDC95E40212A4
:102C43000CDC51E402120CDC2AE402120CDC33FD2E
:102C530002120CDC33D605120CDCE8FC05120CDC8A
:102C6300DED505120CDCB1D505120CDC7ED50512C0
:102C73000CDC56D505120CDCF7D405120CDCD7D4CA
:102C830005120CDCA2D405120CDC66D105120CDC97
:102C93003BCF05120CDC2BCD05120CDCA8CC0512A6
:102CA3000CDC5CCC05120CDC10CC05120CDC6ACB02
:102CB30005120CDCE8FC02120CDC5BF003000000E4
:102CC30080FB87000100681C350004002E1C2500D2
:102CD3000200321C26000200341C27000200361CAE
:102CE30028000100401C29000100411C840004004D
:102CF3001D19860001009B1B2A000100421C2B00AA
:102D03000100431C2C000100481C2D0008002B1956
:102D13002E000100491C2F0001004A1C3000010055
:102D23004B1C310001004C1C3200010033193300ED
:102D330001003419340001004D1C3600010035191F
:102D4300380001004E1C39000100471C83000200BB
:102D5300661C63000100401964000100441C650007
:102D63000100451C6D000100411971000800231981
:102D730066000100651C43000100561C440002006C
:102D8300571C45000100591C460002005A1C47000D
:102D930008003819480001005C1C4B0001005D1C51
:102DA30004000100691CA10001006C1C3700010034
:102DB3006B1C880001006A1C3C00010036193D00B1
:102DC30001004F1C490002005E1C6700010042190C
:102DD3004D000200601C4E000100621C4F00020007
:102DE300631C3E000100551C51000100511C5200A0
:102DF3000100521C53000100541C540001003719F8
:102E0300000000000000000136360101000102014C
:102E13000001030100010401060605020000070189
:102E230000340801000F090401010D0100FF0E0821
:102E3300000017020000190100FF1A0100011B0125
:102E430000FE1C0100081D0200001F0100012001FB
:102E53000001210200002301000F240200002601CB
:102E6300000127010008280200FF2A0100072B01A7
:102E730002402C0100002D0100012E0100012F0151
:102E830000FF30010B1D310800003A0100083B012F
:102E9300000F3C0100013D0100FF3E04000042041D
:102EA3000000460400004A0400004E0400005204DF
:102EB3000000560400005A04000000000300200133
:102EC3002A820000000020012B8200000100200163
:102ED3002B820000020020012B82000000404201EF
:102EE30033810000040042017481000005004201A7
:102EF3001F810000060042013381000007003001FA
:102F03002982000010004203FA1B00001100300365
:102F1300D9170000120010030B1C0300000021034B
:102F2300DA170000FDFF210124820300FDFF2101C8
:102F33002482060000001001C9170600FDFF21814D
:102F43002482020400002905CA1702040100290192
:102F530020820204020029011E820204FDFF2101D6
:102F6300248201037103010301030103010301032C
:102F73002203020301031003000300030003000301
:102F830000030003000342030003240306030003BA
:102F9300000304031203250323032503230304036C
:102FA300040300030003000344030003000323039B
:102FB30000036503210035038103000305030003B8
:102FC30000030003000325032303030271023001FE
:102FD3006002110270020102020202028002100268
:102FE30061023A0041006302730272026202430209
:102FF300000213023800000200020402120200025F
:1030030000020002000204020402370037003C02FF
:103013004402000239000002000265020002350288
:103023008102000205028202830200020101710192
:1030330001010101110101013101010101018001BE
:10304300100161013B00140063017301720162010D
:1030530043010001130106013D0135000401120182
:1030630000010001000100010401040133013301E7
:103073003C014401320136000001000165010001F9
:103083003500810100010501820183010001030470
:1030930071040204600411047004020402040104B4
:1030A300020410046104000414046304730472042E
:1030B300620443040004130406040004000404042B
:1030C300120400040004000400045104640000041A
:1030D3000004000444040004000400040004650424
:1030E300000435048104640005040004830400041F
:1030F30003007100300160001100700031022003F1
:10310300500480001000610000001400630073008D
:10311300720062004300000013000600000000007C
:10312300040012000000000000000000040004007E
:10313300370037003C02440000000000000000009C
:1031430065000000350081000000050000008300D9
:10315300000036000100060000000F000000000020
:10316300000000000000000003FFFF00000403FF55
:10317300FF0000FFFF0FF4010005C404032000015A
:1031830000000B000000000000000003010F00001E
:10319300000000000000000000000000000000002C
:1031A300000000000000000000000000000000001C
:1031B30020184A18261860172C1850182C185C1859
:1031C300321860172C1850183818601700000000C8
:1031D3003E1860170000000000000000441860174C
:1031E30000000000000000000000000000000000DC
:1031F30000000000000000000000000000000000CC
:103203000000000000000000000000001300B61BD7
:103213001F00BC1B1F80C21B00003A1C01003A1C8C
:103223000200381B0280321B03003E1B0400441BB8
:1032330004804A1B0500501B06005C1B30007A1BF0
:103243003100741B3200861B33008C1B3500921B2C
:103253003400981B36009E1B1100AA1B1400B01BE0
:1032630015006E1BFFFF00000A00000002000000B3
:10327300040000000800000010000000200000000F
:103283004000000080000000000100000002000078
:1032930000040000000800000010000000200000EF
:1032A30000400000019E2406CE2408C8240BEC2411
:1032B30010862102A42405BC2407AA240C86240D0D
:1032C3009224646A1FFF0000030003000400080047
:1032D30010001F003E007B00F600EC01D703AF0790
:1032E3005D0FB91E713D000007ECFDFDFDECDCDC5C
:1032F300CCBCACAC9C9C8C7C7C6C6C5C5C5C4C4CAB
:103303003C3C2C2C1C1C03EAF5E5D5D5C5B5A5958D
:10331300958585757565655555454535352525155A
:10332300150500160F00000B150B020002220F33C8
:1033330000000E0F5A6967426565416C6C69616EE6
:103343006365303900000000000000000000000049
:1033530000000000D0D1D2D3D4D5D6D7D8D9DADB68
:10336300DCDDDEDF00034D4C4651181A2505023023
:103373003016181920231A1C1E30003C40423A3FD5
:103383003F392F473000011916181616182303006A
:10339300303017181921301B1D1F300C0E020B047F
:1033A3000B0A0708000F02040201010101090200D0
:1033B300BE040AE8030000E8030000010003007FE5
:1033C3000000000E00000404080405030A0C101595
:1033D30008091E0C28FF03100209033C0C050815FD
:1033E300001EE4F0A3F0A3F0A3221233E5F0229031
:1033F3001A8D1249F112288E2212340022E0F508A8
:10340300E4F509F50AF50B22E824FBF582E934FF1C
:10341300F58322E82411F582E439F583E022F5836C
:1034230012342722E0F508A3E0F50922122B0A74CF
:1034330004120D277F08020AB57401F09004B2E06C
:10344300640F227409120D277F04020AB5EA2413BC
:10345300FAE43FFB122A38E9227905122A4474065A
:1034630022A3A3E024F5C3941322122B169004D2B3
:103473001269AF7A147B0022C082C083901A6C74E5
:1034830082F0A37428F0A37494F0A37428F0901A24
:1034930070746AF0A37428F0A37464F0A37428F022
:1034A300A374A0F0A37428F0A374A6F0A37428F067
:1034B300A3749AF0A37428F0A37452F0A37428F0B1
:1034C300901A7C7476F0A37428F0A3747CF0A37430
:1034D30028F0A37470F0A37428F0A374ACF0A37461
:1034E30028F0901A8D1253C06009901A8D1249ED7D
:1034F300121652901A8A124D07740812605CA3F0D8
:10350300901B36F0901A8FF07C0BFDF97A907B1AA2
:103513001215807C0B7D0079007A9B7B1A12158033
:10352300024B6174F712084174F7120DD5EAFEEBF2
:10353300FF1235B97405124E257403F01236D012FA
:103543004E072430FCE43FFD8C821235B11235C5A1
:103553006008123DDE74FFF0A3F0EE242EE43F1C5E
:103563001CFD8C82F583A3E0C0E08A828B83124A20
:10357300B9D0E01235C5888289831252F42403F04E
:10358300EE123DE812102D7403F09004C7120B8461
:103593007402120DB71239B2120D27E9F50870073C
:1035A300EEFAEFFB12291EA9087409023DF7F58311
:1035B300E08882898322EA1235BE221255033FF541
:1035C30083221262DC124E13E8F0A3E91265B3E022
:1035D3002274F0120841EAFEEBFF8C0C8D0D890B6F
:1035E3001236D0F583124E1B741012102DE0F5081D
:1035F300A31235B3F0E824FFF582E91239C4E508D4
:10360300F0E824FEF582E91239C4E50BF09004CC0E
:10361300E0C0E0E824FDF582E91239C4D0E0F0907F
:1036230004CBE0C0E0E824FCF582E91239C4D0E021
:10363300F0741212102D12342312340BE509F0E842
:1036430024FAF8E934FFF98882F583E508F0EE24DB
:1036530004FCE43FFD88088A828B83E0F50E8C82AC
:103663008D83E0250EC395081262DC124C41850C54
:1036730082850D83A3A3A3A3A3A3A3A3E0640370E1
:1036830009EE124DF5F0A3E480031239C91239D1C2
:103693007409F075089075091A750A007808120CF8
:1036A300F5125DA6120D277508FF7509FF7808123C
:1036B3000CF9AC0CAD0D1239B2120D27E9F50870F7
:1036C30007EEFAEFFB12291EA908023437EA240297
:1036D300FAE43FFB8A8222C082C083901AACE0C323
:1036E3009408400474078001E08A828B83F03333AB
:1036F3003354F8F9024B6174F01208418A088B09BC
:10370300890A8C0E8D0F750C00A2AFE433F50BC242
:10371300AF901AA680451237FC503D123816640349
:103723007036E50824F9F508E50934FFF5098E82BA
:103733008F83A3A3E02405FCA3E03400FDAA08AB18
:103743000912173CE50824FFF508E50934FFF509DC
:103753007410250CF50C150A123BEB126D64E50A87
:103763006004EE4F70B0E50BA2E092AFA2AFE4337A
:10377300F50BC2AF901AA6803E1252CD8882F58314
:10378300124541850882850983F08A82898312382C
:103793000DA3A3E0C0E0E50824FFF582E509123993
:1037A300C4D0E0F0E50824FEF508E50934FFF50987
:1037B300050C150A123BEB123A3F602112381664CE
:1037C3000270F11237FCEE40B0124F3CA2E550E418
:1037D300850E82850F837401F0E50A70D7E50BA28D
:1037E300E092AF850882850983E50CF0E50824FFA4
:1037F300FAE50934FFFB023437123802A2E622EE5F
:103803002411F582E43FF583E0221238112212538A
:1038130012A3228E828F83A3A3124ABD1259E922D7
:1038230074F012084174F3120DD5740312102DE9CC
:10383300F0740212102DEAF08B0B85188285198320
:10384300E4F004120DAF122834E9F89004B1E02932
:103853002437F508FA7B001215988A0C8B0DAE0CF1
:10386300AF0DEA4F70030239A9EA2402F50EE43FD3
:10387300F50FA808EA28F8E43BF9850E82850F8343
:1038830012433D9004B1E0F9FAC3E49AFA95E0FBE0
:10389300850E82850F83E02AF50CA3E03BF50D909E
:1038A30004AF123423750A007808120CF5E9FC7D85
:1038B30000AA0CAB0D124D77120D27AC18AD19747D
:1038C3000112102DE0F9E50C24FFFAE50D34FFFB9E
:1038D30012283A8A828B83E4F0E50BC454F0F99002
:1038E3001B37E0C4333354C0F89004ABE0A2E0E4E8
:1038F3003313134849440FC0E0EA24FFF582EB1267
:1039030039C4D0E0F0EA24FEF50CEB34FFF50D7476
:103913000312102DE0F8740212102DE0C454F04885
:10392300850C82850D83F0A80C850E82850F83128A
:1039330060292AC3988E828F83A3A3A3A3F0850E45
:1039430082850F83E8F0A3E50DF01239C91239D14E
:10395300E4F0740C12102DE4F075089B75091A78C5
:1039630008120CF5125DA6120D278518828519839E
:10397300E06009EE240E124F3E4408F0122A26E9B5
:10398300F9E4F508F5097808120CF97406120DB775
:103993001239B4120D27E97006EEFAEFFB800BEE35
:1039A300FAEFFB12159E7A007B00740D0234347912
:1039B30003EEFAEFFB122A3E740222EE24FFF58295
:1039C300EF34FFF58322EE1235BEE4F0A322F012AA
:1039D30039D622EE125CC93FF5832274F2120841F4
:1039E3008A0C8B0DA2AFE433F50AC2AF75080075DC
:1039F3000900901AA6802C123BFB5024850C82856B
:103A03000D83A3A3125DB98E828F83A3A31249ED05
:103A1300122A2CE9600A123BF6C2E6F08E088F09DF
:103A2300123BEB123A3F70CFE50845096006123AA4
:103A3300D8D2E6F0E50AA2E092AF800DE0FEA3E063
:103A4300FFEE4F227402120D277F06020AB574F0AF
:103A53001208418A0E8B0F8C0C8D0D750A00A2AFD4
:103A6300E433F50BC2AF7E007F00901AA68010AE40
:103A730008AF09123AD0124F3CD2E7F01249CB12E9
:103A830049DF6034123AD8A2E750F18508828509EC
:103A930083A3A3120B84AC0CAD0DAA0EAB0F122A99
:103AA300327402120D27E960D3EE4F60C2123E72E8
:103AB3007006123AEAD2E4F0E50BA2E092AFEE4FC1
:103AC3006006122918750A01A90A0234371238024E
:103AD300D2E4F0EE22E508125CE33509F583E02237
:103AE300AA82AB8312173C8E828F83A3A3124ABD93
:103AF300E02274F212084174FE120DD5750C0075A4
:103B03000D00851882851983E4F0A3F0A2AF33F585
:103B13000AC2AF901AA6126D64802BEE24FBF582C5
:103B2300EF34FF123421780C120CF9123BD9120D29
:103B330027EEFCEFFDAA18AB191215BCAE08AF09AE
:103B4300901AACE014F0EE4F602B123BFB501DEECD
:103B5300240BF8E43FF98882F583E024FFF0A3E027
:103B630034FFF0888289831253C060AF8E0C8F0DAF
:103B7300123BEB80A1E50AA2E092AF901AACE060A1
:103B83002C9004B2E0640F6006901B36E0701E7A3E
:103B9300847B1A122B1690821A120B807A847B1A5A
:103BA300124BE9120D27800574F0124ACAAA18AB0A
:103BB300191215C28A088B09AE08AF09EA4F6013C0
:103BC300122846123BF6A2E28E828F83A350D97449
:103BD300E980D7023A47EEFCEFFD7AA67B1A12156D
:103BE300CE7402228E0A8F0BEE24FBF582EF34FF94
:103BF300F58322EE12380322123802A2E72274F769
:103C0300120841EAFEEBFF122846124AB6120A16C0
:103C1300E964019004CE700AE02401F8A3E03400C3
:103C23008003124A3CF912513E124C41901AACE007
:103C3300701F9004B2E0640F70177A847B1A122B02
:103C43001690821A120B807A847B1A124BE9120D9A
:103C530027A8A8C2AF901AACE004F0E8A2E780045A
:103C6300E508A2E092AF02504C74F7120841EAFE55
:103C7300EBFFEA123CA2F0122846EEFCEFFD7AA617
:103C83007B1A1215C8A8A8C2AF901AAC124590901F
:103C930004B2E0640F700579081229DE02504C1259
:103CA3003803C2E42274F712084174EA120DD5EA0C
:103CB300FEEBFF9004ABE0602A85188285198374BC
:103CC30001F012102DE4123D5D12102D123AE3C0E3
:103CD300E0740A12102DD0E0126049740B12102DFB
:103CE3001252A97416023DF774F7120841EAFEEB6B
:103CF300FF122828E9F974DC69601E74DD69601914
:103D030074E469601474F369600F74DE69600A74A3
:103D1300DF69600574DB697007EEFAEFFB1229E4D3
:103D230002504C74F712084174EB120DD5EAFEEB06
:103D3300FF8518828519837406123D5D12102DAA22
:103D430082AB8312173CEE2408FCE43FFD740A1295
:103D5300102D1252A97415023DF7F0EA2413FCE466
:103D63003FFD74022274F712084174F7120DD5EA6D
:103D7300FEEBFFEA2430124F3E605DEA123DE8128B
:103D8300102D7403F09004C7120B84123DDE120B46
:103D9300849004DAE0F97404120DB7EEFAEFFB1223
:103DA300282E7404120D27E9F974DC69602374DD8D
:103DB30069601E74E469601974F369601474DE69E0
:103DC300600F74DF69600A74E869600574DB697009
:103DD30007EEFAEFFB1229E40235ACEE242EF5824E
:103DE300E43FF583221261BAAA18AB1912173C7487
:103DF30008227403120D2702504C74F21208418AF0
:103E03000C8B0D750A00750B007508E7A2AFE43340
:103E1300F509C2AF901AA68003123BE7123A3F603E
:103E230025123BFB50F3123E7270EEEE2432124029
:103E330009E06870E4780A120CF9123BD9120D27D5
:103E4300901AACE014F0E509A2E092AFEE4F6013D4
:103E5300EEFAEFFB12284679F0EEFAEFFB1229E4B3
:103E6300750800A908AA0CAB0D1229E4023A4C12FA
:103E730039D6E064012274F412084174F7120DD5A7
:103E8300EAFEEBFF8A82F583A3E064F37003023F4B
:103E9300178A828B83A3E064DF60798A828B83A392
:103EA300E064E8606F8A828B83A3E064DB60651261
:103EB3002888E9F5087055EE240E124F3E604D1226
:103EC3003F216048740812102D123F30120B847585
:103ED30008FF7509FF7808120CF98E828F83A3A35C
:103EE300A3A3A3A3A3A3E0F97404120DB712282E6E
:103EF3007404120D27E9F50874F369600F74DF6920
:103F0300600A74E869600574DB69700F8E828F83C1
:103F1300A3E508F0EEFAEFFB122894023446EE24F0
:103F23000FFAE43FFB79091228CAEA4B2274021202
:103F330057AF74FFF0A3123F3D221252FDA3A322F9
:103F430074F1120841EAFEEBFF7508008A82F583DB
:103F5300A3A3A3A3A3A312346440037508E88A822E
:103F63008B83A3A3A3A3A3A3A3A3A3A3E0C394109B
:103F730040057508E880138A828B83A3A3A3A3A3B8
:103F8300A3A3A3A3A3E0640F600B901B13E0540847
:103F930070037508E8EA240B124009A3A3A3A3A3A3
:103FA300A3A3A3E0C398500DEA240B124F3E640F62
:103FB30060037508E89004CBE0F47003A3E0F470A9
:103FC300037508EC7A237B0012164C8B0BA90B901C
:103FD3001A8D12401860278E828F83A3A3A982AA09
:103FE30083890C8A0D750E00780C120CF57C237DE9
:103FF30000901A8DE0FA124D77120D278003750891
:104003001AA908025DA1F582E43FF583E0F88A82EC
:104013008B83A3A322EAF0A3EBF0EA492274F512FF
:104023000841EAFEEBFF8A82F583A3A3A3A3A3A31C
:10403300A3A3E09004B21240B0E09004CDF0EA24D0
:104043000B124F3E9004AD1240B0A3E0901B37F02B
:10405300F9121304901B37E0600BEE2404124F3067
:1040630024061240A6901B3612343C60047401806F
:10407300027400901A8F1266F4120CF57C0B7D000B
:104083007A907B1A124D77120D27EE2418F508E467
:104093003FF5097808120CF57C0B7D007A9B7B1A9F
:1040A300024D64FAE43FFB79E11212EC221266DE60
:1040B300A3A3A3A32274F7120841EAFEEBFF8A82AB
:1040C300F583A3E070031233F212626502504C745D
:1040D300F7120841EAFEEBFF901A8D1253C06010ED
:1040E300901A8D1249ED901A8DE4F0A3F012165236
:1040F3008E828F837408124AD1121E6202504C744E
:10410300F6120841901B36E06010901A8FE0700A97
:10411300124120EA4B600312291E02635F9004AD33
:10412300E0FB9004CDE0FA9004B2E0F912284022BB
:1041330074F412084174E7120DD5EAFEEBFF750B18
:10414300018A82F583A3A3A3A3A3A3A3E0A2E250BE
:1041530069EA242BF582E43F125DB7EA2413FAE4FB
:104163003FFB12284CE97052908172E064017005A4
:10417300750B0080451241F2120CF57C0B7D007427
:1041830011120DAF124D77120D27122A26E9FA7478
:104193000E120DA7880889097808120CF9750830E2
:1041A3007509007808120CF9EE126012120B8412D2
:1041B30061AC790112345E120D278518828519834B
:1041C3007410F01261AC740212102DAA82AB831228
:1041D3001730EE242B1269A5740B12102D124C41CB
:1041E300740D12102DE50B12641E7419023448EE7F
:1041F30024081266FC22C082C083901B37E0600350
:10420300122A98024B61C082C083901B2E746CF0FB
:10421300A3741AF0A37470F0A3741AF0A3747CF05F
:10422300A3741AF0901C9F7491F0A37430F0901B48
:10423300187422F0A37428F0901AB17458F0A37480
:1042430028F0901AB3745EF0A37428F0901B13E067
:104253004402024665C082C083EAFCEBFD79030297
:10426300536CC082C08379080264DFC082C0837448
:10427300FE120DD5901AB97406F0A37429F0901AA2
:10428300BB7400F0A37429F080077AA67B1A12424C
:10429300CA901AA61253C070F1901AA81253C060A4
:1042A300097AA87B1A1242CA80EF901AA6E4F0A3F7
:1042B300F0901AACF0A3F0A3F0901AC77442F0A3E5
:1042C3007429F07402801C1215C285188285198323
:1042D300EAF0A3EB1242DE122A1422F0AA18AB1959
:1042E300227411120D27024B6174F6120841E9FF83
:1042F300747D29F582E43433F583E493FEFA7B007D
:10430300121598EA4B6007EA2E12433A80267A0286
:104313007B00121598EA4B601774932FF582E434EF
:1043230033F583E4938A828B83F0A3741A124703D1
:104333007A007B0002635F124C30E81262D9A3A3B8
:10434300A3A3E4F022E9FC740629F8EAA2E0501ED4
:10435300E875F00A84E5F0F96014740A28C399F843
:10436300E9C394054004740A28F8740B28F8ECC3D5
:1043730094134004791480027906E829790024090A
:10438300F85001097A0A7B00120662E8F9020CD997
:10439300C082C083901B13E05402600A121E68E9B6
:1043A3006004790180027900024B61C082C083906E
:1043B3001B13E054026014901AACE0700A1253BD50
:1043C30060091243D35004790180027900024B61E2
:1043D300123416A2E722C082C08390816FE0F89066
:1043E3001AAEE0C398500512159880047A007B003A
:1043F300024B61C082C083122A147900024B61C050
:1044030082C08374FE120DD5851882851983EAF064
:10441300A3EB12456CA3A3A3A3A3E0600A14605704
:1044230024FE605A0244DC9004B2E0640F6012126E
:1044330029EAE9700C1249E7901AB5124AB9120A2F
:10444300169004DAE0C0E08518828519831252E0E1
:10445300D0E012456C7414125CFDFCA3E0FD7AA855
:104463007B1A1215BCA8A8C2AF901AAE1245907958
:10447300201229DE0242C612483A741580D9124826
:104483003AA3A3A3A3E0605112483A123AEEC0E064
:10449300851882851983E02406F582E43BF583D0F1
:1044A300E0125CFD2402F8A3E03400F98882F5836E
:1044B300E02401FAA3E03400FB88828983EAF0A3B5
:1044C300EB125CFD12487A851882851983601312FA
:1044D300454160051245534048AA18AB19122A14E6
:1044E300809212454160F21245535021124560FA01
:1044F300851882851983A3E0C82406124836F87408
:10450300A81254F53433F583E4936A601485188252
:10451300851983124541640870BF124560640870B1
:10452300B812456014124574240AC0E085188285C8
:104533001983124AB9D0E01245740402445A124551
:104543004522124A3CC82406F582E438F583E0226A
:10455300851882851983124545C3940A22851882DA
:10456300851983123811A3E02212457EF5838882D0
:104573002212457EC8240612486422F085188285DB
:104583001983124A3C22A8A8C2AF901AADE004F0E6
:10459300E8A2E792AF22C082C083901ABD1253C033
:1045A3006008124841120A1680027900024B6174B6
:1045B300F7120841EAFEEBFFEA1239D77401124BF6
:1045C300EFF8A3E0F91235B9124C41EA2435124F42
:1045D3003EC0E0EA2413F582E43FF583D0E0F0EA3D
:1045E3002436124F3EC0E0EA2414F582E43FF583FB
:1045F300D0E0F0EA2438124F3EC0E0EA2418F582F6
:10460300E43FF583D0E0F0EA242FF582E43FF5831D
:10461300120B841261B9EA2431124F3EF91239B8F0
:10462300120D27E9F5087007EEFAEFFB12291EA910
:104633000802504CC082C0831229EAE96004792041
:1046430080027901024B61C082C083EA24111246C1
:104653005BD2E0800DEA240DF582E43BF583E02292
:10466300F0A3F0024B61C082C0831246586401700C
:10467300111246FD400C8A828B83A3E0F91229E4D0
:1046830080661246EEA2E650128A828B83A3E0F97B
:10469300901AB7124AB9120A16804D12465864018D
:1046A300700D1246FD50088A828B83743080368ADF
:1046B300828B83A3E0641B8A828B837004742280C1
:1046C30024A3E0700D124658F874721254F5343373
:1046D300800B124658F874931254F53433F583E47F
:1046E300938A828B83124703024B611246F222EABA
:1046F3002410F582E43BF583E0221246F2A2E32282
:10470300F0901B0EE0F91215A42274F7120841E988
:10471300FE1253BD7003024833EE6014741B6E70B7
:104723001AE8125CC939F583E06405700302480B8B
:10473300901AB0124841A3E402481274E96E7068FB
:10474300E82412F582E439F583E0700B121E6EE95A
:104753006005124884606179EE12126E901AAF12EE
:10476300485B901AAF603A124887901AAF700B12E9
:10477300485B14F0121424024833124879C2E7123A
:104783004A22240D12483664037009124854124910
:10479300D8D2E2F079ED12126E12486C120A16802A
:1047A3007812484774E9806774E16E703E121E6E9A
:1047B300E9605512488470509004D4E0C0E0124878
:1047C300542412F582E438F583D0E0F09004C3E07A
:1047D300C0E0901AAF124850124850D0E0F0900455
:1047E300C3E004F0790112140C8045741C6E701838
:1047F300901AAF1249ED901ABF124AB9120A1690D5
:104803001AAFE4F0A3F08028901AAF124847EEF0F5
:10481300901AAF1249ED12290C124A03E05480603A
:10482300031264CE901AAFE4F0A3F079101229DEDC
:1048330002504C12486422851882851983A3E0F53F
:104843008388822212484B22124AC1A32212530E9A
:1048530022901AAF1252EF221252EF24121248641E
:1048630022F582E438F583E022901AAF1249F190E1
:104873001AB3124ABD22E0F8A3E0C8241012486418
:1048830022901AAF124A0AE054042274F412084127
:10489300750A00750B00A2AFE433FEC2AF1253BD1D
:1048A3006003024981124AB6120A16E94410F890CD
:1048B3001AA6800985080A85090B1249CB1249DF1C
:1048C3007003024981123AD8586870E8780A120CCA
:1048D300F9AC08AD09123BDD120D27901AAFE508BC
:1048E300F0A3E509124A221249D8A2E7500302496C
:1048F30088901AADE014F0EEA2E092AF901AAFE008
:10490300240EF8A3E03400F9E8FEE9FF8882F5837A
:104913001249ED901AAF124566F91228D0E9901AA0
:10492300AA12605C8E828F83E05480601812485410
:104933002413124836F91213281248542414124827
:1049430036F912131C124A03A3E05401605F901A54
:10495300AA1253C06045124A196040124A19F879E5
:1049630000901AAA1249ED12066AE8C0E01249F74C
:10497300D0E0124A27C3941340117402800FEEA2B1
:10498300E092AF8037901AAC0248F77400C0E09011
:104993001AB0E0C81249C2D0E0800D1249F7740181
:1049A300124A221249C27401F07903800C901AAFA3
:1049B300124879A2E1B3E433F912140C02344B2404
:1049C3001AF582E438F58322E50824FBF582E5092C
:1049D30034FFF58322125CE312486722123427E581
:1049E300084509228518828519831249F122E0FAC4
:1049F300A3E0FB221252EC2419F582E438F583225A
:104A0300901AAF124A0A22124A3CC8124A122212C0
:104A1300550338F583221252EC24181248642212EB
:104A23004A34C822124A34F5838882A3A3A3A3E09D
:104A330022F0901AAF124A3C22E0F8A3E02274F766
:104A4300120841EAFEEBFF122A0E124F3BA2E3408B
:104A53000A123E72700590816D800390816EE0F9B9
:104A6300EEFCEFFD7AA67B1A1215D4E96038EEFA54
:104A7300EFFB901AB9124AB9120A16EE240E124F1E
:104A83003E54047012124589EE1235BAA3E0540164
:104A9300701E1229188019EEFAEFFB901AB1124A10
:104AA300B9120A16800A8E828F83A374F1124ACA3E
:104AB30002504C901ABB124ABD22124AC122E0F89E
:104AC300A3E0F583888222124AD112290C22F0EE48
:104AD300FAEFFB22024B5A74F7120841EAFEEBFF8E
:104AE3007900901B13E05402700CEA2433124F3EFA
:104AF3005404600279E8901B13E05460700CEA24BC
:104B030033124F3E5402600279E88A828B83A3A357
:104B1300A3A3E0F8908173E0C398500279E8EA24F4
:104B230031124F3E700CEA242E124F3E700479F579
:104B3300800BE970051228FAE9F9E96007EEFAEF4C
:104B4300FB1229E402504CC082C0838A828B837497
:104B53000DF0121E628007C082C083122918D08311
:104B6300D082020CD974F4120841EAFEEBFF8A8268
:104B7300F583E4F0A3124BEF540490816D7012E0BF
:104B8300F8901AADE0C398401279F11229E4023487
:104B93004BE0F8901AACE0C39850EE124BF5A3E04B
:104BA30054016037EA2437124F3EC394054033EA79
:104BB3002433124F3E540570297AC17B1A122B16E7
:104BC300EE2437F582E43FF5831233FC7808120CA8
:104BD300F17AC17B1A124BE9120D27EEFA1255E650
:104BE30080AC79E880A5122B0A740422F0124BF5ED
:104BF300E022EA2433F582E43FF5832274F61208B7
:104C030041E9FE2451FAE43400FB121598EA4B60A3
:104C130015EE8A828B83A3A3A3A3F0EA2451124C3B
:104C230030124C4180047A007B0002635FF8E43B5E
:104C3300F98A828B83A3A3221269AF901B8BE8F0BE
:104C4300A3E9F022024B5AC082C083901ACA746C43
:104C5300F0A37429F0A3749CF0A37429F0A37472D5
:104C6300F0A37429F0A37478F0A37429F0A37496C5
:104C7300F0A37429F0A3748AF0A37429F0A37484B5
:104C8300F0A37429F0A374A2F0A37429F0A374A869
:104C9300F0A37429F0A374AEF0A37429F0A374BA3B
:104CA300F0A37429F0A3747EF0A37429F0A37466AF
:104CB300F0A37429F0A37460F0A37429F0901AE6AA
:104CC3007490F0A37429F0A374B4F0A37429F0A32F
:104CD30074CEF0A3742AF0A374C0F0A37429F0A3D4
:104CE30074C6F0A37429F0901B0AE4F0901B0DF036
:104CF300901AF6124D077402F0901AFF124D0774C2
:104D03000102466574DEF0A37429F0A32274F51240
:104D1300084174F1120DD58518828519837402F048
:104D2300740112102DE9F060047AFF7BFF74021204
:104D3300102D1257A475080275091B750A0078080F
:104D4300120CF57C0B7D00740712102DAA82AB8325
:104D5300124D77120D27AA18AB19121E62740F8019
:104D630003124D77120D277F03020AB57C0B7D00DA
:104D73007A027B1B12157474032274F712084174B0
:104D8300FD120DD5851882851983740AF0740112FA
:104D9300102DE9F0740212102DEA12641E023DF583
:104DA30074F612084174F7120DD5EAFEEBFFEA120E
:104DB3004DF5124E257402F0EA2428FCE43FFDAAC7
:104DC30018AB19121730EE2431124DFB2433125E47
:104DD3001D120CF97402120DB779831A1A1239B61F
:104DE300120D27E9F5087007EEFAEFFB12291E02F0
:104DF30063581235BE740122F582E43FF583123401
:104E0300271252C5F583124E13E8F0A3E9F0EE2200
:104E1300124E1B8A828B8322E024FFF8A3E034FF27
:104E2300F922F0A3E4F0EA1239D72274F012084110
:104E330012688D120FD67808790C1207527808126F
:104E43000CF17AF97B1A02342F74F412084174C6F8
:104E5300120DD59004B2E0640F600D851882851998
:104E630083742E1257C380227AF07B1A12346D1288
:104E7300066A88088909E4F50AF50B7808120CF12B
:104E83007AF07B1A124BE9120D27743A02344874F4
:104E9300F5120841EAFEEBFF8A82F583A3E0F8707E
:104EA30078EA2430124F3E64026007E06403600234
:104EB30078E8EA2426F582E43FF583123466400459
:104EC30078E88058E87052EA24261240A6EE24318E
:104ED300124F302430124F3E6402700EEE2428121B
:104EE30069A59004C1124C4180179004C174FEF06F
:104EF300A304F0EE2428FCE43FFD7AB87B041217E8
:104F03003CEE241B1241F5120CF5124D6F120D27C6
:104F1300EEFAEFFB12295AE9F8E8600EE88E828F69
:104F230083A31261C1741712626B024D6AFAE43FE4
:104F3300FB79501212ECEE22EE2410F582E43FF5D9
:104F430083E02274F612084174F7120DD5901B0DFD
:104F5300E070377401F0F91213D6AA18AB19122AAC
:104F63002075080275091B7808120CF9750801757C
:104F730009007808120CF99004C7120B8474061206
:104F83000DB77A0312345C120D2702635A74F712B9
:104F9300084112516C7004A374EBF0901B0DE0A256
:104FA300E25003C2E2F0E0A2E1500512517D800914
:104FB3008E828F83742A12626B02504C74F412082F
:104FC3004174FE120DD51250721252B8EC8518823C
:104FD300851983125307E0F50B7015AA18AB1979DD
:104FE300531212ECEE2413FAE43FFB794A1212EC4B
:104FF3001241F2120CF5124D6F120D271249E7A957
:105003000B12294E901B0DE0A2E150031251849024
:105013001B0DE4F0740202344874F7120841EAFEEF
:10502300EBFF8A82F583A374EBF0901B0DE0A2E102
:1050330050077A0079EB122954EEFAEFFB12298A12
:105043008007EEFAEFFB122A8C7F01020AB574F790
:10505300120841125072901B0AE4F0901B0DF07A73
:10506300FF7BFF8E828F83A3E0F912294E80DA1231
:1050730051BD7AF97B1A122B162274F7120841EAF2
:10508300FEEBFF12298480BA74F71208411251FA19
:10509300A3A3A3E060047400800274EB1250CB500E
:1050A30003C2E2F0E0A2E150051251CE8011A2E06A
:1050B300500D8E828F83742AF0A374EB12626BEE11
:1050C300FAEFFB12293080818E828F83A3F0901B2D
:1050D3000DE0A2E22274F6120841EAFEEBFF901BF8
:1050E3000DE0D2E1F079011213D68E828F83A3E013
:1050F3007038122A26E9FAEE240DF508E43FF50983
:105103007808120CF97508017509007808120CF972
:1051130012513E120B84EE2402FCE43FFD12345C78
:10512300120D27E98E828F83A3F08E828F83A3E0F3
:1051330060067A00F912295402635FEE240BF582AC
:10514300E43FF5832274F712084112516C7004A3F3
:1051530074EBF0901B0DE0A2E25003C2E2F0E0A278
:10516300E1500312517D02504CEAFEEBFF7901122C
:1051730013DC8E828F83E0642022C2E1F01251841B
:10518300227A008E828F83A3E0F91229542274F7C6
:105193001208411251BD8E828F83A3A3A3A3E060A3
:1051A300047400800274EB1250CB5003C2E2F0E0AF
:1051B300A2E150031251CE0250C2EAFEEBFF790185
:1051C3001213DC7AF07B1A122B1622C2E11266EF5D
:1051D300E0A2E4E433FA1251862274F71208411272
:1051E30051FA74EB1250D05003C2E2F0E0A2E15046
:1051F3000312517D02504CEAFEEBFF79011213DCDE
:105203008E828F83A32274F712084112521F025019
:105213004574F712084112521F02504CEAFEEBFF8D
:105223007AF07B1A122B16EEFAEFFB1229AE2274D8
:10523300F712084174EF120DD5EAFEEBFFEA126193
:10524300AD7AB87B0412172AE9605685188285194E
:10525300837409F0740112102D74EFF01252B874B4
:105263000212102DEC125307A3A3E0C0E074041242
:10527300102DD0E01252F4640870158E828F83A330
:10528300A31252E0E0C0E0740512102DD0E08006B6
:10529300740512102DE4126049740612102D125277
:1052A300A97411023DF7AA82AB83122A56AA18AB3E
:1052B30019121E62221252C5F5831252D7FCA3E0C3
:1052C300F922EE1252CDFB8882222402F8E43FF940
:1052D300E8FAE922124A3C8882F583E0221252EF6F
:1052E3002407F582E438F58322901AAF124A3CC8AA
:1052F300221252F8221252FDE022F08E828F83A3F3
:10530300A3A3A3221262D912530E2212531222E034
:10531300F8A3E0F5838882A3A322C082C083122A64
:1053230098024B61C082C083901B2A74CAF0A37495
:105333001AF0A374E6F0A3741AF0901C99742FF07A
:10534300A37430F0A374CDF0A3742FF0901B1674E4
:1053530048F0A37429F0901B13E04401024665C092
:1053630082C083EAFCEBFD79021229FC024B6174D3
:10537300F612084174FE120DD5901B0F1253C06034
:10538300077A0F7B1B122A14901B15E4F0900B84F1
:105393001253C060208007AA18AB19122A14901B5D
:1053A3000EE0F91215B08B09A909851882851983B6
:1053B30012401870E2740202635C901AAF1269AF74
:1053C300E8492274F7120841E9FA7B00901B0EE0CA
:1053D300F91215DA02504C74F712084174F0120DE9
:1053E300D5EAFCEBFDE9FE8A828B83E0F8749E121A
:1053F30054F53433F583E493C0E0740112102DD0D7
:10540300E0F0640B700DE98A828B83A3F0122A7A91
:105413000254F0E070030254F0640C60030254E1A0
:10542300741A6E700B740412102DE4F0A30254E08E
:10543300740412102D1257A4EA2432125CADC0E09A
:10544300740312102DD0E01266DA12100A740612D9
:10545300102D1210168C828D83A3A3A3A3A3A3A341
:10546300A3A31269AB740A12102DE8F0A3E9125436
:10547300FAE054106009851882851983E48013ECDF
:105483002412125CADF89004D4E0C3988518828589
:105493001983F0E0C0E0740C12102DD0E0F0EC247E
:1054A30015125CADC0E0740D12102DD0E0F0EC24A9
:1054B30016125CADC0E0740E12102DD0E0F0EC2497
:1054C30017125CADC0E0740F12102DD0E01254FA25
:1054D300A3E054016008740112102D7411F07402DA
:1054E30012102DEEF07401120DAF121E6274100231
:1054F3003DF728F582E422F0EC1255033DF58322B3
:10550300240EF582E422C082C083901B15E064035D
:105513007004790180027900024B6174F71208412B
:10552300901B15E0125599749728F582741C39F570
:1055330083125A2BC2E7F01255A0A3E493FE25E091
:10554300FCE433FD74972CF582741C3D125DB7ECBB
:105553004D6005EE901B15F08A828B83E025E0FCFD
:10556300E433FDE82CF582E93DF583E493FCC45470
:105573000F25E0F874241254F5341BF5831253C03D
:105583007005122A68800CEC540F1255A0124AB908
:10559300120A1602504C25E0F8E433F92225E0FC08
:1055A300E82CF582E439F5832274F212084174FE83
:1055B300120DD5890B8A088B0912564B12563C6083
:1055C3001A126056F50A7808120CF512565824027E
:1055D300125DAD120D271255E4800312566A023A8A
:1055E30047AA0CEFFB901B0EE0F91215A42274F0EE
:1055F30012084174FE120DD5890B8A0E8B0F1256B9
:105603004BF50812563C6027126056A808EA281288
:10561300433A850E08850F09F50A7808120CF5122E
:105623005658125DAB120D271255E479008005120E
:10563300566A791A7402023434FA7B001215988A76
:105643000C8B0DAF0DEA4F22746729F582E43433D6
:10565300F583E49322A80B74881254F53433F5834D
:10566300E493FC7D00EA22851882851983E50BF01B
:10567300791AAA18AB191229E422C082C083E990CF
:105683001B0E02466574F612084174FE120DD5EA2C
:10569300FEEBFFEA542070308039A8A8C2AF901AFD
:1056A300AEE0141245928A828B83125791901B119C
:1056B3001257A41229F0851882851983E0641560B6
:1056C300077A117B1B122A147AA87B1A1215C2EAD5
:1056D3004B70C7EF5480700C8016901B11EAF0A337
:1056E300EB1257B7901B0EE0F91215B0EA4B70EAB4
:1056F300EE5410600B851882851983742D1257C3DD
:10570300EEA2E0500B85188285198374241257C3C7
:10571300EE5402600B85188285198374251257C3D2
:10572300EE5404600B85188285198374261257C3BF
:10573300EE5408600B85188285198374281257C3A9
:10574300EE5440600D740112102D1257AA742C12DE
:1057530057C3EE5480600D740112102D1257AA74B2
:105763002F1257C3901B0F1253C0601BA8A8C2AFC0
:10577300901B0F1249ED901B0FE4F0A3124592A367
:10578300EAF0A3E91257B77A007B000253B8125725
:105793009522E0851882851983F022A3A3A3A3A3EE
:1057A300A3EAF0A3EBF022E41257AF22F0851882AC
:1057B30085198322F01229F07A117B1B122A1422F5
:1057C3001242DE1229F022C082C083901B111264A0
:1057D30019687002EB697007901B11E4F0A3F002E3
:1057E3004B6174F7120841EAFEEBFFEA4F700312B4
:1057F300113CA2AFE433F508C2AF8E828F831253FC
:10580300C06028E824FBFAE934FFFB901B11125D0A
:10581300B9E86C7002E96D7007901B11E4F0A3F016
:105823008E828F83E4F0A3F0121652023C63C0828F
:10583300C083901B38745CF0A3742AF0A3746EF0D9
:10584300A3742AF0A37474F0A3742AF0A3742AF047
:10585300A37429F0A3747AF0A3742AF0A37424F038
:10586300A37429F0A37430F0A37429F0901B467439
:10587300AAF0A3742AF0A37480F0A3742AF0A3748B
:1058830086F0A3742AF0A37492F0A3742AF0A3748D
:105893008CF0A3742AF0901B37E4024665C082C0E3
:1058A300839004C1E064FE7003A3E0F470097CB844
:1058B3007D04121730801C8A828B83A3A3A3A3A326
:1058C300A3A3A37402F09004C11269AB8A828B83F1
:1058D300124C41024B61C082C0839004CBC3E0945D
:1058E300FEA3E094FF4004790380027902024B6136
:1058F300C082C083125A348C828D831259E9687036
:1059030039740268701C8A828B83125942E0687072
:10591300298A828B83A3125942A3E068701C790100
:10592300801A7403687013EC2405FC50010DEA24FB
:1059330005FA50010B12173680027900024B61A35E
:10594300A3A3A3A3E0F88C828D83A3A3A3A3A32281
:1059530074F61208417E00740A12102DE01259DD0C
:10596300FF8A828B83A3A3A3A3A3A3A3A3E06F7044
:105973006474026F704E8A828B83C082C083888274
:105983008983A3A3A3A3A3E0F50888828983A3A3A0
:10599300A3A3A3A3E0FBAA08D083D082E06A700389
:1059A300A3E06B703088828983A3A3A3E0FA888283
:1059B3008983A3A3A3A3E0F9EA6C7002E96D7015D0
:1059C3007E01801174036F700CE82405FCE439FD3B
:1059D300121736E9FEEEF902635FF8A3E0F9888255
:1059E300F5831259E922A3E01313543F540322C051
:1059F30082C0838A828B83A3A3A3A3A3A3A3A3E0CD
:105A0300640270169004C1125A2B687003A3E069F4
:105A130070047901800F7900800BEAFCEBFD7AB802
:105A23007B0412172A024B611269AF8A828B83E0CF
:105A3300228A828B831259E9F82274F01208417486
:105A4300FC120DD5E9851882851983F074021210B2
:105A53002DECF0A3EDF08A0A8B0B7508007402128B
:105A6300102DE02408125CADC0E0740112102DD09B
:105A7300E0125CFDA2E75008750EFF750FFF800A68
:105A83009004C7E0F50EA3E0F50F8518828519830E
:105A9300E0C2E7125D0254206007125CCF740880F5
:105AA30004125CCFE4125D0254046007125CDA74E2
:105AB300808005125CDA7410125D025410600612C5
:105AC3005CB5E4800B9004D4E0C0E0125CB5D0E098
:105AD300125D02A2E050037508205408600674109A
:105AE3004508F5088A828B83A3A3E024FFFEA3E085
:105AF30034FFFFEA125CC0C39402E0400F640B6002
:105B030009E0148E828F83125CF374034508F50851
:105B13007509009004E7E0640170118A828B83A306
:105B2300A3A3A3E0C3946740037509108518828576
:105B33001983E0F50C750D00740E780C120EB4E5A4
