:020000040000FA
:1000000002004A7582C5758322740012005C7A0072
:100010007B0290007A783479148015E493A3AD8242
:10002000AE838A828B83F0A3AA82AB838D828E8378
:10003000D8E9D9E77582AA758320740012005C752F
:1000400082E9758322740012005C75D0007581BF4F
:10005000751000751102759F0002000EC09FF59F7C
:10006000E473D09F22D083D082C09FE493C0E07419
:100070000193C0E0740293F59F220000000000008D
:100080000000000000000000000000101010101020
:100090001010101000001010000000006C6C2424E0
:1000A000000000000100000000000024242424FEC1
:1000B00048484848FC909090900000103C54929022
:1000C000503814121292547810000000225C94A848
:1000D000481010242A52548800000000304848502C
:1000E000206E54948C888A74000000003030101008
:1000F00000000000000000000000000408101020B4
:100100002020202020101008040000804020201013
:10011000101010101020204080000000000010542B
:1001200038103854100000000000000000101010BB
:1001300010FE101010100000000000000000000071
:10014000000000000000101020000000000000006F
:1001500000FE0000000000000000000000000000A1
:100160000000000000001010000000000404080857
:10017000101020204040808000000000384482821F
:100180008282828282824438000000001070101047
:10019000101010101010107C0000000038448282F3
:1001A00004081020408284FC0000000038448202D1
:1001B000043804020282443800000000040C1414C5
:1001C00024244444FE04040E00000000FC808080CF
:1001D000B8C4820202828478000000003C4282801F
:1001E000B8C4828282824438000000007E428204C9
:1001F0000408080810101010000000003844828223
:1002000044384482828244380000000038448282AC
:100210008282463A0282443800000000000010103A
:10022000000000001010000000000000000010108E
:100230000000000000101020000000000000061860
:100240006080601806000000000000000000000050
:10025000FE0000FE00000000000000000000C030B2
:100260000C020C30C0000000000000384482820202
:100270000408101010001010000000003844829A8A
:10028000AAAAAAAAAA9680423C0000001010102830
:10029000282844447C4444EE00000000FC424242D2
:1002A000427C4242424242FC000000003C448280C8
:1002B000808080808282443800000000F8444242FE
:1002C00042424242424244F800000000FC444240A4
:1002D000447C4440404244FC00000000FC44424056
:1002E000447C4440404040F000000000344C828098
:1002F00080808E8484844C3400000000EE444444AA
:10030000447C4444444444EE000000007C1010103F
:10031000101010101010107C000000003E0808089B
:10032000080808080888887000000000EE44484863
:1003300050605048484444EE00000000E040404017
:1003400040404040404244FC00000000C6446C6C09
:100350006C545454444444EE00000000CE446464A1
:100360006454544C4C4C44E40000000038448282F5
:10037000828282828282443800000000F844424235
:1003800042447840404040E000000000384482820F
:100390008282828282BA443C02000000F0484444D7
:1003A00044487048444444E6000000003C448280D5
:1003B00040300C0202824478000000007C5492100D
:1003C000101010101010103800000000EE444444CB
:1003D000444444444444443800000000EE4444444F
:1003E000442828282810101000000000EE4454541F
:1003F000545454542828282800000000EE4444286F
:1004000028101028284444EE00000000EE44442840
:100410002828101010101038000000007E448408B6
:1004200008102020408284FC0000001C10101010D6
:1004300010101010101010101C000000EE44545446
:10044000FE54545428282828000000701010101062
:1004500010101010101010107000003048840000B0
:10046000000000000000000000000000000000008C
:100470000000000000000000FE000040200000001E
:10048000000000000000000000000000000000006C
:100490007884047C84848C7600000000C040404056
:1004A00058644242424264580000000000000000CC
:1004B0003844808080804438000000000C0404042C
:1004C000344C848484844C3600000000000000001A
:1004D000788484FC80808478000000001824202028
:1004E000F8202020202020700000000000000000E4
:1004F0003A444478807C82827C000000C0404040C6
:1005000058644444444444EE0000000010100000CD
:1005100030101010101010380000000010100000F3
:10052000301010101010109060000000C0404040CB
:100530005C485060504844EE00000000301010103D
:100540001011101010101039000000000000000001
:10055000ACD29292929292D600000000000000006D
:1005600058E44444444444EE00000000000000000D
:10057000384482828282443800000000000000007B
:10058000D864424242645840E0000000000000008D
:10059000364C8484844C34040E00000000000000BB
:1005A0006C3020202020207000000000000000009F
:1005B000788884601884447800000000002020209F
:1005C000F820202020202418000000000000000057
:1005D000C64242424242463A00000000000000008B
:1005E000EE444428282810100000000000000000FD
:1005F000EE44445454282828000000000000000065
:10060000EE442810102844EE000000000000000016
:10061000EE444428281010A0C00000000000000094
:100620007E448810204284FC0000000C1010101042
:1006300010601010101010100C000010101010108E
:100640001010101010101010100000C020202020DA
:100650002018202020202020C000000000000000E2
:1006600000728C00000000000000BDF101000100DC
:1006700002800440082012102108C10600001FF06B
:10068000001000200020004000800100CCEC0000A1
:100690003FF80100010001000100FFFE010002809F
:1006A000028004400440082010102008C006C6F84C
:1006B000100010003FFC20004FF080003FF00010C1
:1006C0000010001000100010000A000A00060002CE
:1006D000CEC2000023F81208120883F8420842082C
:1006E00013F8100027FCE4A424A424A424A42FFEBF
:1006F0000000BDF1CCEC3A20323031382F312F33AD
:100700003100C6F8CEC2285420262048293A005489
:10071000656D70657261747572653A203235004896
:10072000756D69646974793A2033302500FFFFFFE5
:10073000FFFFFFDFFFFFFFFFFFFEF7FEFFFEFFFEF5
:10074000F7FEF7FEF7FFF7FFF7FFF7FFF7FDF7FEFE
:10075000F7FEF7FFF7FFF7FFF7FEF7FEF7FEFFFEE6
:10076000FFFEFFFEFFFEFFFEFFFEFFFEFFFEF7FFA8
:10077000FFDFFFDFFFDFFFDFFFFFFFFFFFDFFFFF29
:10078000FFFFFFFEF7FEF75AD7F4A5518D308530F5
:10079000853085308530853085308530852F8530B2
:1007A00085308530853085308530853085308530A1
:1007B00085308530853085308530853085D39DF80E
:1007C000C6FDEFFFF7FFFFFFFFDFFFFFFFBFFFFFEC
:1007D000FFDDEF7AD76C64621A8212A10AA10AA126
:1007E00002A102A102C002C002C002C002A10AA16D
:1007F0000AA00AC00AA00AA00AA10AA10AC102C04E
:1008000002C002C002C102C102C102C10A82124278
:10081000128843D7BEFEEFFEF7FFFFDFFFFFFFDECC
:10082000EF5AD72633A10AE10A0003E002000300D1
:1008300003000300030003000300030003000300A0
:100840000300030003000300030003E002000300B1
:1008500003000300030003000300030003E002C0E1
:100860000AA10A831A54A6FDEFFFFFBFFFFFF7DDC1
:10087000E78843A212E0020003200320032003E0E4
:1008800002E102E202A202C302A302A302C202E147
:1008900002E002E00200030003E002E002E002E006
:1008A00002E002E002E002E002E002E002000300F7
:1008B00003E002C10AA31A5ACFFEF7DFFFFEF77664
:1008C000B6210AC10A00030003E002E002A10AC245
:1008D0000AA40A08230D44B05C336D336D10652CF7
:1008E0004C682BA4128202A202E10AC002C002C01C
:1008F00002C002C002C002C002C002C00200030067
:10090000030003E002810ACE6CFEEFFFFFFDEF6CF7
:1009100064A212C0020003E002E10A820A85122DDD
:1009200054168EFCB63EBF3EC7FEBEDDBEFDBEFD0C
:10093000BEDCB65A9EB15CC71AA40AA202C002C0AD
:1009400002C002C002C002C002C002C002E0020037
:10095000030003E002C10AE52AFDEFBEF7FDEF67E1
:100960003BA10AE00AE002C102620A893B389E3DCF
:10097000BF3EC7FFBEFFC6FFC6FEC6FEC69FBEBFC8
:10098000BE9FB69FAEBDA69A9E2D44A40AC102E0AA
:1009900002E002E002E002E002E002E002E102E046
:1009A000020003E002C10A831A7BDFDEF7FEF7468E
:1009B00033E0020003C20A65120D4C3BB7FEBE3F96
:1009C000C71FC7FEC6FFC6FFC6DFBEDFBEBFB6DF9E
:1009D000BEBFB67FB67FB69EAE7CA6D36CA512C254
:1009E0000AC00200030003E002E002E002E002E0CD
:1009F00002E002E002E002610A59CFFFFFFEF74782
:100A000033E102E002620AED4B3CBF1CBF3EC7FE71
:100A1000C61ECF3FCFFEC6DFC6DFBEDFB6DFB6BE27
:100A2000B6BDB6DEBE7EB67EAE3CA69CA6D164A5A3
:100A300012C102E002E002E002E002E002E002E0B5
:100A400002E002E002E002610A59CFFFFFFEF74632
:100A500033E10AC1022723FBB6DDBE1EC71EC7DD78
:100A6000BE905BCD423BAEDEBEFFBEDFBEDEBE9DB6
:100A7000B6AF53AC3AB9957EAE5DA65C9E7C9EEE59
:100A8000438302E102E002E002E002E002E002E071
:100A900002E002E002E002610A59CFFFFFFEF747E1
:100AA00033C20AA302937DDDBEFFC6DEC6DDBEB43F
:100AB0007C26112611CD42FEC6BEBEBEB69EB6B580
:100AC0007C460946098C327EAE3EA61E9EFD95F9F7
:100AD00085C712C202E002E002E002E002E002E0AA
:100AE00002E002E002E002610A59CFFFFFFDF727B2
:100AF00033C30A271BFBAEDEBEBFC6DFC6DEBE1693
:100B0000858819A9197053DEBEBEBE9EB67FB6F8A1
:100B100084C919A8190F435EAE3EA6FE9DDE8D3C2A
:100B200096ED3BA30AC102E102E002E002E002E02E
:100B300002E002E002E002610A59CFFFFFFDF72761
:100B40003B830A4D441DB79FBEBFBEBEBEDEBEFE88
:100B5000BEF684346C5CAE7DB6BEB67EAE7FAE7E35
:100B6000B6B67C1364FCA5FDA5FDA5FD9DBD95DA7B
:100B70008DF26C440A830AC30AC102C102E002E09A
:100B800002E002E002E002610A59CFFFFFFDF72711
:100B90003B840A1165DDAE7EB69FB6DEB6BEB69E5C
:100BA000B69EB69EB65DAE5DAE7EAE5EA65FAE3D57
:100BB000A63CAE3CAE1DAEBBA5BA9D1BAE7DBE9C99
:100BC000BEDBC6F59D1075683B8312810AE002E02A
:100BD00002E002E002E002610A59CFFFFFFDF707E1
:100BE0003B840A115D9CA67FB67EAEBDAEBFB69EAD
:100BF000AE9EB67EAE5EAE7FAE3EA67FA65EA65D24
:100C0000A65CAEDBA5BBA5FECEBFDFFFEFBFF7BF87
:100C1000F7BEEFDEEFDEEFDDE7D7B62A54C10AC13B
:100C200002E002E002E002610A59CFFFFFFFF7286D
:100C300033A312CF5C9DA63FAE7FAE9DA67FAE5E76
:100C4000AE5EAE5EAE5EA65EA63FA63FA63FA63DEA
:100C5000A61AA67BBEBFEFBFEFDFEFDFEFDFF7BF68
:100C6000F7DFFFBFF7BFF79EEF9EEFBEEFD49DA566
:100C70001AC20AE102E002620A39CFFFFFFFEF2742
:100C800033A30AEB337CA63FAE1FA67EAE5FA65E03
:100C9000A65EA65EA63EA61EA61EA61EA61EA6DBD7
:100CA0009DBCBEDFEFBFEFFFF7BFEFFFF7DFFFFF3A
:100CB000FFDFFFDFFFDFF7BFF79FEFBFEFBEE77696
:100CC000AEA312E102E102821259CFFFFFFEEF67ED
:100CD0003BE20A061339961EA61FA61EA61E9E1EDE
:100CE0009E1D9E1D9EFD9DFD9DFE9DDE9DBB955CFA
:100CF000B6DFEFBFEFDFF7BFF7DBDE9ACEDFFFBF78
:100D0000F7FFFFBFF77EEF19C69EEFBFF7BFEF9C5F
:100D1000DF717DC20A020BA21259CFFFFFFDEF86E1
:100D20003B220BC202B0541C9E1FA6DE9DFD9DFD02
:100D300095FD95FD95DD95DD95DD95BD959A9D9F7C
:100D4000DFBFEFDFF7BFF7FCE6A731A63159CEDFF3
:100D5000FFDFFFDFFFD07B66296E6BBFF77FEF9E63
:100D6000E7BCD7672B020BC21259CFFFFFFDEFA6DE
:100D70003B410B42034613D785FC95FE95FD95DD5F
:100D800095BD8DBD8DBD8DBD8D9C8D9C8DFBA5DFD5
:100D9000E7BFEFBEF7BFF7DCDE2942484259CEDF9E
:100DA000FFFFFFBFF710844942AF73BFF79FEF7F8C
:100DB000EF9EDF5075020BE21279CFFFFFFDEFC708
:100DC0003B810BA0034203AA2BD77D1B8EDC8DBC7D
:100DD0008D9C8D9D8D9D8D9D8D7C855B859DBEBFE4
:100DE000E7BEEFBEF7BFFFDFFFDBDE9AD6DFFFDF38
:100DF000FFFFFFDFFF9EF739C67EEFBFEF9EE77F65
:100E0000EF7EDF96A6020B221379CFDFFFFDF7C737
:100E10003BC10B0004E103630BCB2B966DDC8DBC57
:100E20008D9C857D857D857C857C853A7DFDC6BFD5
:100E3000E7BEEFBFF7BFFFBFFFDFF7FFF7DFFFDF63
:100E4000FFDFFFDFFFBFF7BFF7BFF79EEFBEE77F14
:100E5000E73EDFF8B6020B421379CFDFFFFEF7E87B
:100E60003BE10B20042004E20B66138C23BB859C22
:100E7000857C857C7D7C7D7C7D9C853A7DBCBEBFF0
:100E8000E7BEEFDFF7BFF7BFFFDFF7FFF7FFFFDFDB
:100E9000F7BFF7BFF7BFF7BFF79FEF9EE79DDF7F75
:100EA000E73EDFB7A6220B631399CFDFFFFCF747BE
:100EB0003C410440044004210406140E347C859C0B
:100EC00085186D376DB875B97D9A857A8559AEBF2D
:100ED000E79FEF9FF79FFFBFFFBFFFDFF7DEEFDE6C
:100EE000EFBEEFBEEF9EEFBEE79EE79DDF7DDF5ECC
:100EF000E75DD7F285630BA31B79C7FFFFFDF7877B
:100F00003C810481046004810CE4039155B56D0EAD
:100F1000346913670BA713E9230C2CEC33ED53FE54
:100F2000E79DE79FEF9FF79FF7BFEFDFEF9FEF9FF3
:100F3000F77FF77FF77FEF7FEF7FE75EE77EE75E84
:100F4000DF9CCF28340314E31B99CFFFFFFDEF870D
:100F50003CA10CC004E10CC004830CEA2CE4034463
:100F60000C830CA20CC20C820C630C4414E62B7490
:100F700096BCD79EE79FF79FF7BEEFDEE79FEF9FF8
:100F8000EF7FEF7FEF7FEF7FEF5FE75EE75EE79D4D
:100F9000DF9496A20BA2142314B9C7DFFFFDEFC79D
:100FA0003CE10C000500052005E1048414E20CE09E
:100FB0000420054005200520050005E004A3148653
:100FC0002C77AFBDDF7FEF7FEF7FEF9FEF9FE79E37
:100FD000E79EE79EE79EE79EE77EDF7EDF5EDF1906
:100FE000BFE51BC20C0005821CB9C7DFFFFEEF087E
:100FF00045210D4005400560054005020D41056095
:101000000560056005600560056005600540050236
:1010100015A73416A7BDDF5FE75FEF5FEF7FE77FC0
:10102000E77EE79EE75DDF5EDF7FE75EDFFABEA774
:101030002B831440056005A31CB8CFFFFFFEEF28EB
:1010400045600D8005A005C005A005810D810581C5
:101050000580058005800581058105A005C0058006
:1010600005031586241076DBCF9CD77DDF5FE73F35
:10107000E75EDF7EE75EDF5EDF3EDF5EDF6833A7D1
:101080002C420DE0058005C324B8CFFFFFFEEF48DA
:1010900045A115C00DC00500060006C005E005E02D
:1010A00005C005C005C005C005C005E005E005E0B8
:1010B00005C10D8315E414A6248C55D38E59B79A17
:1010C000C7B9BF77AF94969075D6A6DBC76C552588
:1010D00025C10D0006C00DE42CB8CFFEFFFEE76869
:1010E00045E115000E0106200640062006200620D8
:1010F00006000600060006000620062006000E0078
:1011000006400620060106A20D631DC31463146386
:10111000148214820CA214E41C8314A83DAD662230
:101120000D00064006E1150535B8CFFEF7FCE7EAED
:101130005D011660068006600E600680066006602F
:1011400006600661066106610660066006400640AC
:1011500006600660064006410E410E410E210E213A
:101160000E210E210E4216410E210E010E410DE1FF
:101170000D6006800602164635FAD7FFF7FCEFAE83
:101180007E221EC00EA006810E800EA006A006A024
:1011900006A006A006A006A006A006A006A006A01F
:1011A00006A006A006A006A006A006A006A006A00F
:1011B00006A006A006A006A006A006A00E62166164
:1011C0000EA006A006421EE845FAD7FEF7FEF77409
:1011D000A7042E800EC006C006C006C006C006C00A
:1011E00006C006C006C006C006C006C006C006C0CF
:1011F00006C006C006C006C006C006C006C006C0BF
:1012000006C006C006C006C006C006C006A106E0AD
:1012100006E006C10E4326CD76FBDFFEF7DFFFFAC0
:10122000D78A56831EE00E000720072007E006E05D
:101230000EE00EE00EE00EE00EE00EE00EE00EE03E
:101240000EE00EE00EE00EE00EE00EE00E000700F5
:1012500007000700070007000700070007400720F6
:1012600007000783160636D6BFFDEFDFFF9FFFFEA0
:10127000EFB5AF8746A31E010F4007400740074068
:101280000740074007400740074007400740074026
:101290000740074007400740074007400740074016
:1012A0000740074007400740074007400740074105
:1012B0000FC31E4636718FFCE7DFFF9FFFBFFFFFA6
:1012C000FFFCE7D5B7CB5E6536A426E326221722BE
:1012D0001722172217221722172217221722172246
:1012E00017221722170117011701170117211721BC
:1012F00017211721172117211721170217C3266558
:101300002E694E939FFCDFFEF7BFFF9FFFFFFFFF9D
:10131000FFFFFFFEF7FBDF95AF30878D6EAB66AB4F
:101320005EAB5EAB5EAB5EAB5EAB5EAB5EAB5EAB75
:101330005EAB5EAB5ECC66CC66CC66AC66AB66ABD9
:1013400066AB66AB66AB66AB66AB66AB66EF7E74F0
:10135000A7D9CFFDEFFFF7FFFFFFFFFFFFFDF7FF6F
:10136000FFBFFF9FFFBFFFFFF7FEEFFDEFFEF7FEA2
:10137000F7FEF7FEF7FEF7FEF7FEF7FEF7FEF7FEC5
:10138000F7FEF7FEF7FEF7FEF7FEF7FEF7FEF7FEB5
:10139000F7FEF7FEF7FEF7FEF7FEF7FEF7FDEFFEAE
:1013A000F7FFFFBFFFBFFFDFFFFEF7FDEF12006596
:1013B00084220012006510220012006535220012FE
:1013C00000654C2200120065632200120065511571
:1013D00000120065791500120065F615001200650F
:1013E0003317001200658F1800120065BB18001239
:1013F00000658B1A001200658F1C00120065B51C79
:1014000000120065001D001200652B1E0012006511
:10141000F72200120065030000CAC0E0E6F0A3084E
:10142000DAFAD0E0FA22600D08C6A2E713C618C6A1
:1014300013C6D5E0F322251010AF08F510400C15A7
:10144000118008F51040021511D2AF2200C0D0253E
:101450001010AF08F510500C05118008F51050025F
:101460000511D2AFD0D0222510F58210AF08F510AB
:10147000400C15118008F51040021511D2AF8511EE
:1014800083222510F582E43511F583222510C582CB
:10149000C0E0E51134FFC583C0E0E510C3958224A8
:1014A000F810AF0885831185821080088583118527
:1014B0008210D2AFCEF0A3E520F0A37808E608F0C2
:1014C000A3DEFAEFF0A3E58124FAF8E608F0A3E63C
:1014D00008F0A3E608F0A30808E608F0A3E608F081
:1014E000A315811581D0E0FED0E0F8158115811596
:1014F00081E8C0E0EEC0E022851183851082E0A380
:10150000FEE0A3F5207808E0A3F608DFFAE0A3FFE9
:10151000E0A3C0E0E0A3C0E0E0A3C0E0E0A3C0E03F
:10152000E0A3C0E010AF0885821085831180088594
:101530008210858311D2AFD083D082020062740200
:1015400080027401C0E0F404121467D0E012141990
:101550002274F712148CEAFEEBFF1213B37978129F
:1015600013E97C007D007A007B001213F5EEFAEFA0
:10157000FB1213D17F010214F874F412148CEAFEEA
:10158000EBFF75084F750900780812153E75089F26
:10159000750900780812153E7C007D007A007B00FA
:1015A00079781213EF740412144C750A00750B004D
:1015B000802CEEF8EFF9E4C9F8E8F91213BFEEF960
:1015C0001213BF0508E50870020509C3E508945029
:1015D000E509940040DC050AE50A7002050BC3E545
:1015E0000A94A0E50B940050087508007509008066
:1015F000DA7F040214F874F012148C74FE1214369C
:10160000851082851183ECF0A3EDF08A0A8B0B74B0
:1016100016121482E0F50EA3E0F50FE50E450F70EB
:1016200003021729851082851183E0F8A3E0F9856C
:101630001082851183E8F0A3E9F07412121482E09D
:10164000F508A3E0F5097414121482E0FEA3E0FF8C
:1016500080458E0C8F0D780C12153E780812153EC1
:10166000850E82850F83E0F97404121482E0FCA3D6
:10167000E0FDAA0AAB0B121401740412144CE50A23
:101680002408F50AE50B3400F50B850E82850F83DF
:10169000A385820E85830F850E82850F83E07003FC
:1016A000021729850E82850F83E0C394805014E5CC
:1016B0000A2408F8E4350BF9C3E894A1E994004042
:1016C000918066E50A2410F8E4350BF9C3E894A18B
:1016D000E994005054850E82850F83A3E0F50C78C1
:1016E0000C1215428E0C8F0D780C12153E780812D4
:1016F000153E850E82850F83E0F97405121482E091
:10170000FCA3E0FDAA0AAB0B121407740512144CDB
:10171000E50A2410F50AE50B3400F50BE50E24026A
:10172000F50E5002050F021697740212144C7F0832
:101730000214F874F012148C74FE121436890B8A99
:10174000088B0A8C097412121482E0F50EA3E0F5DE
:101750000FE50AF87900E509F50C750D00E8850C30
:10176000F0A4C8AAF0850DF0A42AFA850CF0E9A42B
:101770002AF9851082851183E8F0A3E9F0E50E458A
:101780000F603CE50BFA7B00E50AF87900EA28F8DF
:10179000EB39F9C3E894A1E99400A2D265D03350A3
:1017A0001EE508FA7B00E509F87900EA28F8EB392C
:1017B000F9C3E89451E99400A2D265D03340030202
:1017C0001885E508FA7B00E509F87900EA28F8EBC6
:1017D00039F9E824FFF50CE934FFF50D780C121502
:1017E0003EE50BFA7B00E50AF87900EA28F8EB39C8
:1017F000F9E824FFF50CE934FFF50D780C12153EDD
:10180000E508FC7D00E50BFA7B0079781213EF7494
:101810000412144C7E007F008059EEF8EFF9E87551
:10182000F002A4C8AAF075F000A42AFA75F002E943
:10183000A42AF9E50E28F582E50F39F583E0F50CC9
:10184000EEF8EFF9E875F002A4C8AAF075F000A46C
:101850002AFA75F002E9A42AF9E50E28F582E50FC7
:1018600039F583A3E0F91213BFA90C1213BF0EEED2
:1018700070010F851082851183E0F8A3E0F9C3EEB3
:1018800098EF994095740212144C7F080214F8C026
:1018900082C083D2977A647B0079011213ADC2971C
:1018A0007A647B0079011213ADD2977A647B007958
:1018B000011213ADD083D08202006274F712148C2F
:1018C000E9FE1213E379111213B97A787B007901DA
:1018D0001213AD79B11213B979051213BF793C1205
:1018E00013BF793C1213BF79B21213B979051213E1
:1018F000BF793C1213BF793C1213BF79B31213B9ED
:1019000079051213BF793C1213BF793C1213BF79CA
:10191000051213BF793C1213BF793C1213BF79B47F
:101920001213B979031213BF79C01213B979AB122C
:1019300013BF790B1213BF79041213BF79C11213AD
:10194000B979C51213BF79C21213B9790D1213BF39
:1019500079001213BF79C31213B9798D1213BF79AD
:101960006A1213BF79C41213B9798D1213BF79EEBD
:101970001213BF79C51213B9790F1213BF79E01290
:1019800013B979071213BF790E1213BF7908121316
:10199000BF79071213BF79101213BF79071213BF53
:1019A00079021213BF79071213BF79091213BF7995
:1019B0000F1213BF79251213BF79361213BF7900A6
:1019C0001213BF79081213BF79041213BF791012D2
:1019D00013BF79E11213B9790A1213BF790D1213EB
:1019E000BF79081213BF79071213BF790F1213BF03
:1019F00079071213BF79021213BF79071213BF7947
:101A0000091213BF790F1213BF79251213BF79354D
:101A10001213BF79001213BF79091213BF79041290
:101A200013BF79101213BF79FC1213B97980121306
:101A3000BF793A1213B979051213BF79361213B967
:101A4000EEF91213BF79211213B979291213B9795A
:101A50002A1213B979001213BF791A1213BF790031
:101A60001213BF79691213BF792B1213B9790012BF
:101A700013BF79011213BF79001213BF79A012139B
:101A8000BF792C1213B97F010214F874F112148C6F
:101A9000890E8A0C8B0D8C0A8D0B740F121482E048
:101AA000FEA3E0FF7411121482E0F508A3E0F5092B
:101AB0007408650E7073792A1213B9E50C241AF8AC
:101AC000E4350DF9E4C9F8E8F91213BFE50C241A5E
:101AD000F91213BFEE241AF8E43FF9E4C9F8E8F963
:101AE0001213BFEE241AF91213BF792B1213B9E5A2
:101AF0000A2401F8E4350BF9E4C9F8E8F91213BF38
:101B0000E50A2401F91213BFE5082401F8E43509B8
:101B1000F9E4C9F8E8F91213BFE5082401F9121332
:101B2000BF792C1213B9021C8A74C8650E707379C0
:101B30002A1213B9E50C241AF8E4350DF9E4C9F8B2
:101B4000E8F91213BFE50C241AF91213BFEE241A98
:101B5000F8E43FF9E4C9F8E8F91213BFEE241AF9E2
:101B60001213BF792B1213B9E50A2401F8E4350BDF
:101B7000F9E4C9F8E8F91213BFE50A2401F91213D0
:101B8000BFE5082401F8E43509F9E4C9F8E8F912D9
:101B900013BFE5082401F91213BF792C1213B902FF
:101BA0001C8A7478650E7072792A1213B9E50C24B8
:101BB00001F8E4350DF9E4C9F8E8F91213BFE50CB2
:101BC0002401F91213BFEE2401F8E43FF9E4C9F847
:101BD000E8F91213BFEE2401F91213BF792B121387
:101BE000B9E50A241AF8E4350BF9E4C9F8E8F91262
:101BF00013BFE50A241AF91213BFE508241AF8E402
:101C00003509F9E4C9F8E8F91213BFE508241AF90F
:101C10001213BF792C1213B98070792A1213B9E507
:101C20000C2401F8E4350DF9E4C9F8E8F91213BF02
:101C3000E50C2401F91213BFEE2401F8E43FF9E4A6
:101C4000C9F8E8F91213BFEE2401F91213BF792B7A
:101C50001213B9E50A241AF8E4350BF9E4C9F8E8D7
:101C6000F91213BFE50A241AF91213BFE508241A62
:101C7000F8E43509F9E4C9F8E8F91213BFE50824D6
:101C80001AF91213BF792C1213B97F070214F874D2
:101C9000F612148C8C088D09780812153E8A088B70
:101CA00009780812153E79781213EF740412144C57
:101CB0007F020214F874F612148CEC2401F508E487
:101CC0003DF509780812153EEA2401F508E43BF5D4
:101CD00009780812153E79781213EF740412144C27
:101CE000740A121482E0FEA3E0FFEEF8EFF9E4C9F3
:101CF000F8E8F91213BFEEF91213BF7F020214F8CD
:101D000074F012148C74FB1214367403121482EAE9
:101D1000F0A3EBF07401121482ECF0A3EDF0E9C033
:101D2000E0851082851183D0E0F0851082851183D3
:101D3000E0C394214029851082851183E0F8790061
:101D4000E824E0FEE934FFFFEE75F010A4CEA8F021
:101D500075F000A428F875F010EFA428FF80047E29
:101D6000007F00750F007415121482E0F50AA3E0DD
:101D7000F50B7417121482E0F508A3E0F509800250
:101D8000050FE50FC394104003021E21750E00805D
:101D900031780812153E7403121482E50FF87900A9
:101DA000E028FCA3E039FD7405121482E50EF879F1
:101DB00000E028FAA3E039FB1213FB740212144C62
:101DC000050EE50EC3940850B7750C80750D00E53F
:101DD0000E780C121426E50FF87900EE28F8EF398A
:101DE000F9740028F582740239F583E0550C60A17E
:101DF000780A12153E7403121482E50FF87900E098
:101E000028FCA3E039FD7405121482E50EF8790070
:101E1000E028FAA3E039FB1213FB740212144C8081
:101E20009F740512144C7F080214F874F012148C7D
:101E300074FB1214367402121482EAF0A3EBF085DC
:101E40001082851183ECF0A3EDF0E9C0E074041278
:101E50001482D0E0F0750E00750F00741912148210
:101E6000E0FA8008050EE50E7002050FC3E50E943A
:101E700004E50F940040030220A0A80EA90FE87506
:101E8000F022A4C8ABF075F000A42BFB75F022E99A
:101E9000A42BF974F028F582740739F583E0F874FF
:101EA00004121482E06870BCA80EA90FE875F02235
:101EB000A4C8ABF075F000A42BFB75F022E9A42BAD
:101EC000F974F128F582740739F583E06A70957525
:101ED0000A007415121482E0F508A3E0F5097417DE
:101EE000121482E0FEA3E0FF8002050AE50AC39413
:101EF0001040030220A0750B0080358E0C8F0D78EA
:101F00000C12153E7402121482E50AF87900E028DA
:101F1000FCA3E039FD7404121482E50BF87900E0AB
:101F200028FAA3E039FB1213FB740212144C050BC0
:101F3000E50BC394084003021FC4750C80750D00A7
:101F4000E50B780C121426A80EA90FE875F022A450
:101F5000C8AAF075F000A42AFA75F022E9A42AF9BB
:101F6000E50AFA7B00EA75F002A4CAACF075F0004D
:101F7000A42CFC75F002EBA42CFB74F22AFA740773
:101F80003BFBEA28F582EB39F583E0550C70030240
:101F90001EFB780812153E7402121482E50AF879C5
:101FA00000E028FCA3E039FD7404121482E50BF86C
:101FB0007900E028FAA3E039FB1213FB7402121433
:101FC0004C021F2E750B00803C8E0C8F0D780C126E
:101FD000153E7402121482E50AF87900E028FCA389
:101FE000E039FD7404121482E50BF87900E028F85A
:101FF000A3E039F9E82408FAE439FB1213FB740270
:1020000012144C050BE50BC394084003021EEA753D
:102010000C80750D00E50B780C121426A80EA90F84
:10202000E875F022A4C8AAF075F000A42AFA75F0A9
:1020300022E9A42AF9E50AFA7B00EA75F002A4CAAB
:10204000ACF075F000A42CFC75F002EBA42CFB7432
:10205000F32AFA74073BFBEA28F582EB39F583E0B3
:10206000550C7003021FC9780812153E7402121431
:1020700082E50AF87900E028FCA3E039FD74041237
:102080001482E50BF87900E028F8A3E039F9E82498
:1020900008FAE439FB1213FB740212144C022003F9
:1020A000740512144C7F080214F853C6BFE59EA2B3
:1020B000E640FA53C6B87AFF7BFF1213CB7AF47B63
:1020C0000179011213AD7A007BF81213D17AF47BF7
:1020D0000179011213AD7AE07B071213D17AF47BF8
:1020E0000179011213AD7A1F7B001213D17AF47BB0
:1020F0000179011213AD7AE07BFF1213D17AF47BE0
:102100000179011213AD7AFF7BFF1213D17AE87BBC
:102110000379011213AD750878750908780812154E
:102120003E7508FF7509FF780812153EE4F508F5BD
:1021300009780812153E7C007D007A007B0012139E
:10214000D7740612144C750888750908780812159A
:102150003E7508FF7509FF780812153E7508007571
:1021600009F8780812153E7C107D007A007B001279
:1021700013D7740612144C7508957509087808125F
:10218000153E7508FF7509FF780812153E7508E0C1
:10219000750907780812153E7C207D007A007B00C7
:1021A0001213D7740612144C7508A575090878081F
:1021B00012153E7508FF7509FF780812153E75085F
:1021C0001F750900780812153E7C307D007A007B6F
:1021D000001213D7740612144C7AA07B0F790112E7
:1021E00013AD7AFF7BFF1213D17508B37509087818
:1021F0000812153E7C287B287A0C79281213DD748E
:102200000212144C7AA07B0F79011213AD0220C682
:1022100043FE0453F4FBD29243FE0853F4F743FD0C
:102220000453F3FBD28243FD0153F3FE43FE80537C
:10223000F47F02006274F712148CE9FEC282C2803D
:10224000EEF91213C5D2827F010214F874F712144A
:102250008CE9FEC282D280EEF91213C5D2827F01D0
:102260000214F878008009D293E9C333F9D29208B6
:10227000E8C39408500BC292E9A2E740EAC29380F7
:10228000E802006274F612148CE97008750817757C
:102290000902800675082E7509047E007F00C3EED2
:1022A0009AEF9B501B7C007D00C3EC9508ED9509CF
:1022B00050070CEC70F30D80F00EEE70E10F80DE35
:1022C0007F020214F874F712148C74FE121436EAAA
:1022D000FEEBFF851082851183EEF0A3EFF0AA10CC
:1022E000AB11790112140D80EAC082C0831214135D
:0A22F000D083D08202006202006277
:040000050000004AAD
:00000001FF
